:1000000097C60000BBC60000B9C60000B7C6000016
:10001000B5C60000B3C60000B1C60000AFC6000000
:10002000ADC60000ABC60000A9C60000A7C6000010
:10003000A5C60000D0C700000C94F5300C942D31FB
:100040000C9465310C949D310C94D5310C940D3287
:100050000C9445320C947D320C94B5320C94ED32F4
:100060008DC600008BC6000089C6000087C6000050
:1000700085C6000083C6000081C600007FC6000060
:100080007DC600007BC6000079C6000077C6000070
:1000900075C6000073C6000071C600000C946A2E7D
:1000A0000C94A72E0C94E42E0C94212F67C600000C
:1000B00065C600000C9442642AC700000C945535B4
:1000C0000C948D350C94C5350C94FD350C94353657
:1000D0000C946D360C94A5360C94DD360C941537C3
:1000E0000C944D374BC6000049C6000047C60000BF
:1000F00045C6000043C6000041C600003FC60000E0
:100100000C9494683BC6000039C6000037C6000056
:1001100035C6000033C6000031C600000C94762DB1
:100120000C94B32D0C94F02D0C942D2E27C60000AA
:1001300020C700000C9425330C945D330C94953348
:100140000C94CD330C9405340C943D340C947534DC
:100150000C94AD340C94E5340C941D350FC600009E
:100160000DC600000BC6000009C6000007C600004F
:1001700005C6000003C6000001C60000FFC5000060
:10018000FDC50000FBC50000F9C50000F7C5000073
:10019000F5C500000C947A64F1C50000EFC50000BD
:1001A000EDC50000EBC50000E9C50000E8C5000092
:1001B0000C9485370C94BD370C94F5370C942D387E
:1001C0000C9465380C949D380C94D5380C940D39EA
:1001D0000C9445390C947D39D1C50000CFC5000081
:1001E000CDC50000CBC50000C9C50000C7C50000D3
:1001F000C5C50000460C9110B4116F144715721557
:100200007215121B141B161B181B1A1B1E1B221BFC
:100210003E514E515E517D5189519751AB51D25152
:10022000E851EA512A5110520E531A532052685283
:100230009B52A752B352BF52D652E652FB520853BA
:100240000A530E531A53265331534B535753795372
:100250009F5305540554AB53D653445A485A4D5AEC
:10026000525A575A5C5AC85A615AC85A665A6B5AF7
:10027000C85AC85AC85AC85AC85A705A755A945B4C
:10028000975B9B5B9F5BA35BA75BC05BAB5BC05B50
:10029000AF5BB35BC05BC05BC05BC05BC05BB75BAD
:1002A000BB5B395D425D465DE55E4A5D4E5D515D1D
:1002B000555DE55E5D5D645D6D5D735D765D815D83
:1002C000E55E935D9C5DA35DA85DB55DC25DD15D9E
:1002D000DD5D015E085EE55E2D5E345EE55EE55E39
:1002E000E55EE55EE55E3E5E425E475E4C5E4F5E0D
:1002F000525E565EE55EE55EE55EE55EE55EE55E08
:10030000E55EE55EE55E595E605E765EE55EE55E55
:100310007C5E8B5EA05EA95EB25ED35EE160FC6037
:1003200005612061296144614D6156615F616861C9
:1003300071617A6183618C6195619E61A761B06131
:10034000B961C261CB61EC61F56104620D622E623C
:1003500037625A62736207634236B79BD8A71A396D
:10036000685618AEBAAB558C1D3CB7CC5763BD6D03
:10037000EDFD753EF6177231BF000000803F0800AA
:100380000000BE922449123EABAAAA2ABECDCCCC14
:100390004C3E00000080BEABAAAAAA3E00000000AE
:1003A000BF000000803F0000000000084178D3BB80
:1003B0004387D1133D190E3CC3BD4282AD2B3E682D
:1003C000EC8276BED98FE1A93E4C80EFFFBE01C41E
:1003D000FF7F3F00000000004C1A454E554D44453C
:1003E000560000FF04841A5F454E554D434D4402AC
:1003F0000004376952455345540000000100FF3E98
:10040000695F53485554444E0000FFFFD27C5F465D
:100410004143544F5259024005411A5354415455D7
:1004200053000000FF05471A41424F52540000009C
:1004300000FFFF6E695F5245414459000000FF050F
:100440007F6952454144424C4B0002400400005F2A
:100450004857524553455400FFFF017D53415645CF
:100460000000000000FF05ED1A5F53455456455249
:10047000000544056B695F4C4F434B454400010048
:1004800005691A56455253494F4E0000FF040000BB
:10049000000000000000000000FFFF3F1A454E4131
:1004A000424C45000000FFFFD64A54454D5053458D
:1004B000543F010003956254454D50534554000587
:1004C00030036E3E4249504F4C41523F010005857A
:1004D0003E4249504F4C4152000200058E3D434F71
:1004E0004E54524F4C3F010000F876434F4E545249
:1004F0004F4C00020000EE5054454D503F000000AC
:10050000010003084A544552524F523F0001000374
:10051000184943555252454E543F010003004B5475
:10052000454D504D494E3F010003134B54454D502E
:100530004D494E00053003894B54454D504D4158AF
:100540003F0100039C4B54454D504D415800053030
:10055000032A4D4741494E3F0000000100003B4D3A
:100560004741494E0000000002000018484D415824
:10057000435552523F010003AC584D415843555228
:1005800052000530035B46504741494E3F00000191
:1005900000032E54504741494E0000000530036EC1
:1005A00046494E5445473F00000100038254494EDE
:1005B00054454700000005300381464445524956E2
:1005C0003F0000010003D654444552495600000044
:1005D0000530039446534C45573F0000000100038B
:1005E000F745534C455700000000053003CF3D5000
:1005F0004741494E454E3F0100052A555047414964
:100600004E454E00020005E63D494E544547454ED5
:100610003F0100056655494E544547454E000200CE
:1006200005FD3D4445524956454E3F010005A25542
:100630004445524956454E00020005143E534C4570
:1006400057454E3F000100052B3E534C4557454E44
:1006500000000200059649504F5745523F000001E7
:100660000003F549504552494F443F00010001BC89
:1006700049504552494F440000031001A33D504FDB
:100680004C3F00000000010005BA3D504F4C415264
:100690004954590200050E47424554413F000000AD
:1006A0000100035A56424554410000000005300342
:1006B000214752454654454D503F010003B0565224
:1006C000454654454D500005300334475245465287
:1006D00045533F00010003FD565245465245530025
:1006E000000530035E4754434F4546413F0001003B
:1006F00003884754434F4546410000053003A64751
:1007000054434F4546423F00010003A74654434F20
:100710004546420000053003D04754434F45464309
:100720003F00010003FA4754434F4546430000058C
:100730003003105D54455354000000000404014987
:100740003F5245414400000000010003AB3C5345CB
:10075000544441430000053005533D53455453571D
:1007600000000004C005923F494E4344414300004D
:10077000010003803F44454344414300000100031E
:1007800042484D41585057523F000100036D484DBB
:1007900041585057520000053003CE5A494D50453C
:1007A00044413F00000005D15A494D5045444100A5
:1007B00000010005D45A494D504544423F00000015
:1007C00005CE3C494D504544420000010005933F91
:1007D0004552524F523F0000010001BE3F45525268
:1007E0004F52000000031001184043564F4C543F35
:1007F00000000100032A404741494E413F000001EB
:1008000000036C404741494E41000000053003B7EA
:10081000404741494E423F0000010003F640474136
:10082000494E420000000530033E414F46465345C5
:1008300054413F010003F7694F4646534554410078
:1008400005300391414F4646534554423F01000352
:10085000756A4F46465345544200053003DE414D0C
:100860004F4445413F000000000126634D4F444581
:100870004100000002400110424D4F4445423F00FC
:1008800000000001B4634D4F4445420000000240A7
:100890000142424741494E313F000001000384427A
:1008A0004741494E31000000053003EA42474149C3
:1008B0004E323F00000100032C434741494E3200B5
:1008C000000005300392434F4646534554313F01E3
:1008D0000003D0434F46465345543100053003339F
:1008E000444F4646534554323F01000372444F463D
:1008F000465345543200053003D5444D4F444531ED
:100900003F000000FF0110454D4F444531000000FD
:1009100002400166454D4F4445323F000000FF0153
:10092000A1454D4F444532000000024001E44C54C3
:100930005741524E3F0000010003F74C54574152BB
:100940004E0000000530033C4D545249474F55546A
:100950003F0100014977545249474F555400031055
:10096000018E574355525253455400053003B65932
:1009700053544152545700000100015B3E53544F01
:100980005057000000010005F85A57415645494E9E
:10099000464F01000437575741564556414C000118
:1009A00000043B3C534C57534D50444101000494C8
:1009B0004A5746595343414C45053003B54A5746BB
:1009C000584445434641020000875B4750494F3F2A
:1009D000000000020005554841564C5057523F0058
:1009E00000FF03645B54544C5057523F0000FF0318
:1009F0002B3C54454D504C5554000100FF4A4D547A
:100A0000524947494E3F000100015950545249474D
:100A1000494E0000031001A9494C44494D50443F40
:100A200000010003D13C41504F4C3F000000010049
:100A300005E83C41504F4C00000000020005123D0B
:100A400042504F4C3F000000010005293D42504FED
:100A50004C000000000200058349435552525345A3
:100A6000543F010003614C53465459544D54000502
:100A70003003124C53465459544D543F010003BBAC
:100A80004C4C415354493F0000010003D54C4C41AC
:100A90005354563F000001000300004D4C444354A2
:100AA00048520004C00300004D4C44435448523F98
:100AB00000FF0300004D4C524D5448520004C00347
:100AC00000004D4C524D5448523F00FF0300004D72
:100AD0004C534D504C4D0001000000004D4C534D07
:100AE000504C4D3F00FF0000004D4F44454C4B3FE4
:100AF0000000FF0500004D4C4D45414E3F0000FFFA
:100B00000300004D4C5641523F000000FF0300001F
:100B10004D4C53544444563F00FF039D4E4558549A
:100B2000494E56413F00FF03CF4E455854494E565B
:100B3000423F00FF03CB5A544553545241573101B1
:100B40000004CD5A4255464954454D5300FF00CC50
:100B50005A5354524D4441544100FFFA584D4154A8
:100B60005354415254000100006F4D4154494F50BD
:100B700000000004C003304E4154494F503F000074
:100B800000FF03924D415453535444520004C00398
:100B90003C4E415453535444523F00FF030B4E41CB
:100BA0005453534C43540004C0033D4E41545353DB
:100BB0004C43543F00FF03E84D415453535400004D
:100BC0000004C003364E41545353543F000000FF0D
:100BD00003BE3E41544C4354415600010000C43E04
:100BE00041544C435441563F00FF00434E4154533F
:100BF0005354575400024001504E415453535457DC
:100C0000543F00FF01564E4154554C54474E3F004F
:100C1000FF035C4E4154554C5450443F00FF03B415
:100C20006054455354464C5400060C03C83E41548E
:100C300050434E43543F00FF00624E4154544F53C3
:100C4000454300024001824E4154544F5345433FB7
:100C500000FF01014F455854414D494E0004C00367
:100C6000514F455854414D494E3F00FF03574F45A2
:100C70005854414D41580004C003A74F45585441B2
:100C80004D41583F00FF03AD4F455854424D494E2A
:100C90000004C003FD4F455854424D494E3F00FFEC
:100CA000030350455854424D41580004C00353506B
:100CB000455854424D41583F00FF03CC3E455854DF
:100CC00041454E0000010005D73E45585441454E70
:100CD0003F0000FF05E03E45585442454E000001EC
:100CE0000005EB3E45585442454E3F0000FF053697
:100CF0005A4750494F000000000300051E3F454D74
:100D0000415747485400031001F43E454D415747B1
:100D100048543F0100019B3C454D41454E000000B9
:100D20000200058B3C454D41454E3F00000100054A
:100D300011241FBECFEFCDBFDFE3DEBF00E00CBF4D
:100D400018BE19BE1ABE1BBE10E2A0E0B0E2EAEE69
:100D5000F2E001E00BBF02C007900D92A635B1078B
:100D6000D9F71BBE2EE3A6E5B0E201C01D92AF3756
:100D7000B207E1F70E94F27B0C94738141C91F9284
:100D80000F920FB60F92112408B60F9218BE09B633
:100D90000F9219BE0AB60F921ABE0BB60F921BBE67
:100DA0002F933F934F935F936F937F938F939F9373
:100DB000AF93BF93CF93DF93EF93FF93E0915620D0
:100DC000F0915720848183FF06C08860848383E08C
:100DD000838386EF7FC0982F947121F083E0838313
:100DE0008FEF78C086FF41C0A0915820B091592064
:100DF00080915A2090915B2014962D913C911597EB
:100E00008217930764F49C012F5F3F4F20935A2071
:100E100030935B20A80FB91F11968C9122C080914E
:100E20005C2090915D2018962D913C911997821726
:100E30009307C8F420915E20222321F086818160EF
:100E400086834AC016962D913C911797AC014F5F4F
:100E50005F4F40935C2050935D20D901A80FB91FCC
:100E60008C91878339C083E02CC087FF32C0A0916A
:100E70005820B091592080915C2090915D20189667
:100E80002D913C91199782179307F8F416966D915E
:100E90007C9117979C012F5F3F4F20935C203093EC
:100EA0005D204781EB01C80FD91F488318968D91AB
:100EB0009C9119972817390718F482E083830CC096
:100EC00087E083831092602007C083E0838389EFEB
:100ED00001C08BEF80936020FF91EF91DF91CF9164
:100EE000BF91AF919F918F917F916F915F914F9142
:100EF0003F912F910F900BBE0F900ABE0F9009BE2D
:100F00000F9008BE0F900FBE0F901F9018951F9264
:100F10000F920FB60F92112408B60F9218BE09B6A1
:100F20000F9219BE0BB60F921BBE2F933F934F9398
:100F30005F936F937F938F939F93AF93BF93EF9341
:100F4000FF931DDFFF91EF91BF91AF919F918F9123
:100F50007F916F915F914F913F912F910F900BBEB9
:100F60000F9009BE0F9008BE0F900FBE0F901F90FC
:100F700018951F920F920FB60F92112408B60F9278
:100F800018BE09B60F9219BE0BB60F921BBE2F9357
:100F90003F934F935F936F937F938F939F93AF9301
:100FA000BF93EF93FF93EBDEFF91EF91BF91AF9172
:100FB0009F918F917F916F915F914F913F912F9171
:100FC0000F900BBE0F9009BE0F9008BE0F900FBE82
:100FD0000F901F9018951F920F920FB60F92112429
:100FE00008B60F9218BE09B60F9219BE0BB60F9233
:100FF0001BBE2F933F934F935F936F937F938F937A
:101000009F93AF93BF93EF93FF93B9DEFF91EF915F
:10101000BF91AF919F918F917F916F915F914F9110
:101020003F912F910F900BBE0F9009BE0F9008BEFD
:101030000F900FBE0F901F901895FC01DB011496C6
:101040008C91858388EB818381E08483E6E5F0E2FF
:1010500011861286E0EAF0E08281826082837894D1
:1010600080E00895CF93DF931F92CDB7DEB7DC0108
:10107000FB01892B09F444C0309709F441C08285F3
:1010800090915F20992319F081113CC0FFCF8FB759
:101090008983F894898191E090935F2090E8909300
:1010A00060208FBFA0935620B093572060935820A4
:1010B0007093592010925A2010925B2010925C205D
:1010C00010925D2040935E209081990F248135819C
:1010D000232B11F44111916016969C93809160200E
:1010E0008038E1F3E0915620F0915720848183709D
:1010F000813009F0F7CF8091602010925F2003C00B
:1011000088EF01C086EF0F90DF91CF910895CF92C5
:10111000DF92EF92FF92CF93DF9320E030E040E840
:1011200050E460919E2070919F208091A02090912A
:10113000A1200E94C87F2CED3FE049E450E40E94CA
:101140006E7D2091C0203091C1204091C2205091ED
:10115000C3200E946E7D6093B8207093B920809365
:10116000BA209093BB204091C23220E132E0429FEE
:10117000E001439FD00D1124C15CD94C2AE939E923
:1011800049E15FE30E94C87F6CA37DA38EA39FA368
:1011900020E030E048EC52E4609187207091882094
:1011A0008091892090918A200E946E7D6B017C0144
:1011B0006093B4207093B5208093B6209093B720AD
:1011C00020E030E040E05FE30E94C87F68A779A795
:1011D0008AA79BA720E030E040E05EE3C701B601AC
:1011E0000E94C87F6CA77DA78EA79FA7DF91CF9194
:1011F000FF90EF90DF90CF9008954F925F926F92A3
:101200007F928F929F92AF92BF92CF92DF92EF9296
:10121000FF920F931F93CF93DF9300D01F92CDB710
:10122000DEB720E030E0A90160917B3270917C3222
:1012300080917D3290917E320E946A7D20919C2027
:1012400030919D2029833A838090692090906A2074
:10125000A0906B20B0906C2087FF37C0D9011C96FE
:101260004D905D906D907C901F97A5019401C301F6
:10127000B2010E946A7D87FF13C0A30192016091B1
:101280009E2070919F208091A0209091A1200E948B
:10129000067DE981FA8164877587868797875EC0B6
:1012A000A501940160919E2070919F208091A020C3
:1012B0009091A1200E94067DA981BA811C966D9310
:1012C0007D938D939C931F9749C0E981FA81448453
:1012D000558466847784A5019401C301B2010E94FC
:1012E0000F7F20919E2030919F204091A02050910F
:1012F000A12018166CF4C301B2010E94057DA981DA
:10130000BA811C966D937D938D939C931F970AC011
:10131000C501B4010E94057DE981FA816487758762
:1013200086879787E981FA81E45FFE4F808181118A
:1013300015C020E030E0A901A981BA811C966D9109
:101340007D918D919C911F970E946A7D87FF06C0B9
:10135000E981FA81148615861686178609811A8115
:10136000015F1D4FD8018C91882311F081508C931F
:10137000E981FA8184849584A684B78420AD31AD57
:1013800042AD53ADC501B4010E940F7F181674F031
:10139000A981BA81D4962D913D914D915C91D797B9
:1013A000C501B4010E946A7D87FF2AC062E0809176
:1013B000C2320E94EF6A1092692010926A20109245
:1013C0006B2010926C20E0919C20F0919D2024A92C
:1013D00035A946A957A964857585868597850E9494
:1013E0006A7D87FF03C060E170E202C060E270E2E4
:1013F0008091C2320E94365C86E08093BD3294C0F8
:10140000C0909732D0909832E0909932F0909A3212
:101410008090002090900120A0900220B0900320A6
:10142000C701B6019058A50194010E94C87F2B0105
:101430003C018091773290917832A0917932B091CD
:101440007A3289839A83AB83BC839C01AD01C3014B
:10145000B2010E946A7D1816ACF120917B32309166
:101460007C3240917D3250917E32C301B2010E94A4
:101470000F7F87FD27C060919720709198206B3077
:101480007105F0F081E080938B2080E090E00E9475
:10149000387E2091B4323091B5324091B6325091BD
:1014A000B7320E946E7D60930D2070930E20809362
:1014B0000F20909310200E940C7ED8016C9302C0E4
:1014C00010928B20A5019401C701B6010E94C87F2C
:1014D0006B017C019B01AC0169817A818B819C81CC
:1014E0000E946A7D181604F120917B3230917C3283
:1014F00040917D3250917E32C701B6010E946A7DD3
:10150000181694F080918B2080938C2060910D2090
:1015100070910E2080910F20909110200E940C7EDF
:10152000F801608310928B202496CDBFDEBFDF913F
:10153000CF911F910F91FF90EF90DF90CF90BF90D0
:10154000AF909F908F907F906F905F904F90089595
:10155000CF92DF92EF92FF92C0907B32D0907C329C
:10156000E0907D32F0907E3220E030E0A901C701AA
:10157000B6010E946A7D87FF17C0209193203091A9
:1015800094204091952050919620C701B6010E9469
:101590006A7D87FF1FC0C0929320D0929420E09272
:1015A0009520F092962016C020918F2030919020A7
:1015B0004091912050919220C701B6010E940F7F67
:1015C000181644F4C0928F20D0929020E09291207F
:1015D000F0929220FF90EF90DF90CF900895CF92FD
:1015E000DF92EF92FF920F931F93CF93DF93C09000
:1015F0009320D0909420E0909520F0909620E8944D
:10160000F7F800918F2010919020D0919120C091F7
:10161000922098014D2F5C2FC701B6010E940F7FC9
:1016200018161CF48601DE2DCF2DB8018D2F9C2FAE
:10163000DF91CF911F910F91FF90EF90DF90CF90AE
:10164000089510928F201092902010929120109265
:101650009220109293201092942010929520109234
:10166000962008952F923F924F925F926F927F92B1
:101670008F929F92AF92BF92CF92DF92EF92FF92A2
:101680000F931F93CF93DF93CDB7DEB72C97CDBFCA
:10169000DEBF8091972090919820019680939720AB
:1016A0009093982000919C2010919D208091C232AF
:1016B0000E940B65F801E055FE4F608371838283C1
:1016C00093838091C23290E0FC01E55FFD4D208163
:1016D0002223D9F1FC01EE0FFF1FEE0FFF1FE15F88
:1016E000FD4D008111812281338140E1E42E42E0F1
:1016F000F42E8E9DA0018F9D500D9E9D500D1124A6
:101700004F5C574CE0919C20F0919D20E055FE4F9E
:1017100060817181828193810E9476258091C2329D
:101720008E9DF0018F9DF00D1124EF5CF74C8081B0
:101730009181A281B381E0919C20F0919D20E055A0
:10174000FE4F80839183A283B38300919C201091EC
:101750009D20580120E5A21A2EEFB20AF801E85F99
:10176000FE4F2081318142815381D5016D917D9160
:101770008D919C910E94057D6B017C01F501608338
:101780007183828393835801F4E5AF1AFEEFBF0A99
:101790009B01AC01D80114966D917D918D919C9126
:1017A00017970E94067DF50160837183828393837E
:1017B00000918732109188322091893230918A329B
:1017C0004BE752E3C701B6010E947625209177329C
:1017D000309178324091793250917A3260917B32F7
:1017E00070917C3280917D3290917E320E94057D95
:1017F0006093AF207093B0208093B1209093B2207B
:1018000080909C2090909D205401F0E5AF1AFEEF4F
:10181000BF0AD5016D917D918D919C9199DEF40166
:10182000E455FE4FC080D180E280F380E056F14065
:101830002081318142815381C701B6010E940F7F0F
:1018400087FF0DC0F401E85BFF4F208131814281A9
:101850005381C701B6010E946A7D181644F062E008
:101860008091C2320E94EF6A68E070E2CAC0809143
:10187000BD3290E08730910510F00C947F15FC018B
:101880008827E650FF4F8F4F0C9458818091972006
:10189000909198204090AF205090B0206090B1205F
:1018A0007090B2208536910508F45AC0C0907B3202
:1018B000D0907C32E0907D32F0907E32E894F7F860
:1018C0002DEC3CEC4CEC5DE3C701B6010E940F7FB0
:1018D00018160CF045C02FE632E143E85AE3C30185
:1018E000B2019F770E946A7D87FF3AC0809169208C
:1018F00090916A20A0916B20B0916C20BC01CD0129
:101900009F77F40120AD31AD42AD53AD0E946A7DA9
:1019100087FF22C02FE632E143E85AE3C701B60150
:101920000E94C87F2DEC3CEC4CEC5DE30E946E7D88
:101930009B01AC016091092070910A2080910B20DD
:1019400090910C200E94067D6093092070930A20DC
:1019500080930B2090930C20109297201092982047
:101960008091B320843208F4ACC020E030E0A901BB
:10197000C301B2010E940F7F1091A22018167CF4BF
:1019800020E030E0A9016091AB207091AC20809103
:10199000AD209091AE200E946A7D87FD19C020E0A5
:1019A00030E0A901C301B2010E946A7D87FF82C0B5
:1019B00020E030E0A9016091AB207091AC208091D3
:1019C000AD209091AE200E940F7F18160CF072C0CF
:1019D00026EA3BE944EC5AE3C301B2019F770E9437
:1019E0000F7F18160CF066C081E0810F8093A22053
:1019F000193CC0F062E08091C2320E94EF6A60E858
:101A000070E28091C2320E94365C1092692010927E
:101A10006A2010926B2010926C2086E08093BD3279
:101A20000C94C616C0900520D0900620E0900720A8
:101A3000F090082024EA30E74DE75FE3C701B601E4
:101A40000E946A7D87FF3DC02AE037ED43E25CE3F8
:101A5000C701B6010E94067D6093052070930620A1
:101A60008093072090930820F50180819181A281C5
:101A7000B38180937B3290937C32A0937D32B0937C
:101A80007E321092A2202AE037ED43E25CE36091BF
:101A900000207091012080910220909103200E94EB
:101AA000067D609300207093012080930220909324
:101AB000032007C0112329F0FF24FA94F10EF092BD
:101AC000A2204092AB205092AC206092AD20709248
:101AD000AE2080917B3290917C32A0917D32B0918A
:101AE0007E32BC01CD0190582091092030910A200E
:101AF00040910B2050910C200E94C87F6093692078
:101B000070936A2080936B2090936C20D401D896B8
:101B1000ED90FD900D911C91DB97D4962D913D9108
:101B20004D915C91D7970E948229609369207093B0
:101B30006A2080936B2090936C2000916520109117
:101B400066200436110588F1C80164E670E00E9441
:101B50002281892B51F5C0907B32D0907C32E0906D
:101B60007D32F0907E322091612030916220409150
:101B7000632050916420C701B6010E94057D20E0DA
:101B800030E048EC52E40E946E7D6093AF20709389
:101B9000B0208093B1209093B220C0926120D09267
:101BA0006220E0926320F09264208091B32084311F
:101BB00009F476C068F4853091F118F48823D1F0E7
:101BC0009FC18A3009F442C08F3009F454C098C1D3
:101BD000833209F4C8C038F4893109F480C08E31E9
:101BE00009F4A2C08DC1883209F4DCC08D3209F439
:101BF000F8C086C180917B3290917C32A0917D3279
:101C0000B0917E32BC01CD019F7720E030E048E406
:101C100052E40E946A7D87FF75C185E014C08091FF
:101C20007B3290917C32A0917D32B0917E32BC01AA
:101C3000CD019F7720E030E040EA51E40E946A7DC8
:101C400087FF60C18AE08093B3205CC180917B32C2
:101C500090917C32A0917D32B0917E32BC01CD0159
:101C60009F7720E030E040E251E40E946A7D87FFE8
:101C700049C18FE0E8CF80917B3290917C32A09176
:101C80007D32B0917E32BC01CD019F7720E030E003
:101C900040EA50E40E946A7D87FF34C184E1D3CFDB
:101CA000C0907B32D0907C32E0907D32F0907E32DA
:101CB000C701B6019F7720E030E040E050E40E9489
:101CC0006A7D87FF1FC189E18093B320C0926120A4
:101CD000D0926220E0926320F092642013C1C80188
:101CE000019680936520909366200536110508F4CF
:101CF00009C18091AF209091B020A091B120B09106
:101D0000B220BC01CD019F772FE632E143E85AE3D0
:101D10000E946A7D87FF03C08EE18093B3201092FA
:101D2000652010926620EEC0C80101968093652060
:101D3000909366200536110508F4E4C08091AF2029
:101D40009091B020A091B120B091B220BC01CD0102
:101D50009F7722E539E44DE959E30E946A7D87FFC8
:101D6000DECF83E2DACFC80101968093652090939D
:101D700066200536110508F4C5C08091AF2090910A
:101D8000B020A091B120B091B220BC01CD019F77CD
:101D900027E137EB41ED58E30E946A7D87FFBFCF13
:101DA00088E2BBCFC801019680936520909366209E
:101DB0000536110508F4A6C08091AF209091B0209F
:101DC000A091B120B091B220BC01CD019F7722E853
:101DD00038EA4BEF57E30E946A7D87FFA0CF8DE280
:101DE0009CCF7801BFEFEB1AFB0AE0926520F092DE
:101DF00066200536110508F485C0C70164E670E069
:101E00000E942281019709F07DC08090AF209090C0
:101E1000B020A090B120B090B220E894B7F820E0B4
:101E200030E048EC52E460918B3270918C328091BA
:101E30008D3290918E320E946E7D9B01AC01C50166
:101E4000B4010E946A7D87FF6ACFE5EFEE16E1E0FC
:101E5000FE0608F457C081E08093BD3283E0809392
:101E60009B2010929720109298201092652010923B
:101E70006620E0919C20F0919D20E455FE4F40812A
:101E80005181628173814093B9325093BA32609329
:101E9000BB327093BC328091C2320E945D5F8091F0
:101EA000C2320E943A6010927B3210927C321092C1
:101EB0007D3210927E32209100203091012040919D
:101EC00002205091032060919B3270919C3280914E
:101ED0009D3290919E320E94C87F20919F32309116
:101EE000A0324091A1325091A2320E94C87F6093EB
:101EF000BC207093BD208093BE209093BF2002C071
:101F00001092B320209197203091982025363105EA
:101F100008F4C5C08091AA2081111BC0253F314023
:101F200008F4BDC020E030E0A9016091AF207091BD
:101F3000B0208091B1209091B2200E940F7F18169E
:101F400014F481E001C08FEF8093AA201092A920A1
:101F5000A6C0813081F420E030E0A9016091AF207B
:101F60007091B0208091B1209091B2200E946A7D42
:101F700087FF2AC011C08F3F39F520E030E0A9016A
:101F80006091AF207091B0208091B1209091B220EB
:101F90000E940F7F1816C4F48091A920811110C0EF
:101FA0004091692050916A2060916B2070916C2063
:101FB0004093A5205093A6206093A7207093A8205B
:101FC0008F5F8093A92002C01092A9208091A92040
:101FD000853008F464C081E08093BD3283E0809353
:101FE0009B201092972010929820109265201092BA
:101FF00066208091A5209091A620A091A720B09165
:10200000A8208093692090936A20A0936B20B093BE
:102010006C20E0919C20F0919D20E455FE4F408182
:102020005181628173814093B9325093BA32609387
:10203000BB327093BC328091C2320E945D5F80914E
:10204000C2320E943A6010927B3210927C3210921F
:102050007D3210927E3220910020309101204091FB
:1020600002205091032060919B3270919C328091AC
:102070009D3290919E320E94C87F20919F32309174
:10208000A0324091A1325091A2320E94C87F609349
:10209000BC207093BD208093BE209093BF206091A0
:1020A0007B3270917C3280917D3290917E32609350
:1020B0007732709378328093793290937A32E091CC
:1020C0009C20F0919D200091692010916A20209120
:1020D0006B2030916C2004871587268737872091E5
:1020E000A420222309F40BC5E455FE4F0081118181
:1020F000228133810093BE321093BF322093C032CD
:102100003093C13220E030E04AE754E40E94C87FB7
:1021100060937332709374328093753290937632F9
:10212000EEC48091992090919A201C012FEF221AE1
:10213000320A2092992030929A200091AF32109169
:10214000B0328017910708F0EFC080907B329090FA
:102150007C32A0907D32B0907E32D501C401BF7731
:1021600089879A87AB87BC87209100203091012016
:10217000409102205091032060918B3270918C32FB
:1021800080918D3290918E320E94C87F2B013C014C
:10219000B80180E090E00E94387E9B01AC01C30151
:1021A000B2010E94C87F20E030E048EC52E40E9477
:1021B0006E7D9B01AC0169857A858B859C850E942B
:1021C0000F7F18160CF08FC092E02916310408F426
:1021D0008AC020E030E0A901C501B4010E940F7F50
:1021E000181644F54090AF205090B0206090B12078
:1021F0007090B22020E030E0A901C301B2010E943A
:102200000F7F1816BCF4C0906920D0906A20E0902F
:102210006B20F0906C20C701B6019F77A30192015B
:102220005F770E94C87F9B01AC01C701B6010E9485
:10223000057D2EC020E030E0A901C501B4010E9457
:102240006A7D87FF2EC08090AF209090B020A09034
:10225000B120B090B22020E030E0A901C501B40166
:102260000E946A7D87FF1DC0C0906920D0906A20BF
:10227000E0906B20F0906C20C701B6019F77A5011C
:1022800094015F770E94C87FA70196010E94067D96
:102290006093692070936A2080936B2090936C20E8
:1022A0001AC0C092B932D092BA32E092BB32F092E8
:1022B000BC32B701A6018091C2320E945D5F80915D
:1022C000C2320E943A6010927B3210927C3210929D
:1022D0007D3210927E321092992010929A201092A4
:1022E000972010929820E0919C20F0919D20DF0192
:1022F000A455BE4F8D919D910D90BC91A02D8093C2
:10230000BE329093BF32A093C032B093C13280915D
:10231000692090916A20A0916B20B0916C208487F5
:102320009587A687B787EBC38091B320823318F4D3
:1023300082E38093B32082E08093BD3210926820C4
:102340001092672010926520109266207AD9109220
:10235000C0201092C1201092C2201092C32010926F
:10236000992010929A208EC32091BC203091BD20DC
:102370004091BE205091BF206091C0207091C1203B
:102380008091C2209091C3200E946A7D87FFF7C090
:10239000809197209091982069E170E00E942281BD
:1023A000892B09F0ECC0C0907B32D0907C32E09059
:1023B0007D32F0907E3220E030E0A901C701B60105
:1023C0000E946A7D87FF3BC020E030E0A901609158
:1023D0007732709178328091793290917A320E947E
:1023E0006A7D87FF2CC02091692030916A2040913E
:1023F0006B2050916C20D4011C966D917D918D9134
:102400009C911F970E940F7F18160CF05CC02091C2
:10241000AF203091B0204091B1205091B220609116
:10242000AB207091AC208091AD209091AE200E94A5
:102430006A7D881F8827881F91E0892745C020E092
:1024400030E0A901C701B6010E940F7F1816CCF534
:1024500020E030E0A901609177327091783280916C
:10246000793290917A320E940F7F181654F520919C
:10247000692030916A2040916B2050916C20F401CA
:1024800064857585868597850E946A7D87FF1BC058
:1024900011E02091AF203091B0204091B1205091B7
:1024A000B2206091AB207091AC208091AD209091D2
:1024B000AE200E940F7F18160CF010E081E08127FB
:1024C00003C080E001C081E0C0927732D0927832C0
:1024D000E0927932F0927A324091AF205091B02060
:1024E0006091B1207091B2204093AB205093AC200A
:1024F0006093AD207093AE20882309F440C0C09053
:102500009E20D0909F20E090A020F090A12080916C
:10251000692090916A20A0916B20B0916C20BC0141
:10252000CD019F772AE037ED43EA5CE30E94C87F44
:10253000A70196010E940F7F18164CF42FE632E196
:1025400043E85AE3C701B6010E94067D08C026E6AB
:1025500036E646E85FE3C701B6010E94C87F609394
:102560009E2070939F208093A0209093A120809123
:10257000A320811104C010929720109298200E94ED
:10258000FD088091A320811110928C2080918C20D5
:10259000882309F481C110928C20209193203091DE
:1025A0009420409195205091962060918F207091B9
:1025B000902080919120909192200E94057D20E0B2
:1025C00030E040E05FE30E94C87F6B017C01E8944B
:1025D000F7F8C092C020D092C120E092C220F092C1
:1025E000C3208091A4208823C1F0C092BE32D09233
:1025F000BF32E092C032F092C13260919720709168
:10260000982080E090E00E94387E6093733270934F
:10261000743280937532909376328090BC20909083
:10262000BD20A090BE20B090BF20A5019401C7019D
:10263000B6010E946A7D87FF3FC026E636E646E87F
:102640005FE360919E2070919F208091A0209091E7
:10265000A1200E94C87F60939E2070939F2080934A
:10266000A0209093A1201091B320103508F00EC146
:10267000A5019401C701B6010E946E7D20E030E003
:1026800040EF51E40E94C87F0E940C7E82E3860FD7
:1026900065E00E941581982F990F990F890F482F97
:1026A000082E000C550B212F30E0241735070CF0B5
:1026B000EDC08093B320EAC08091682081115BC097
:1026C00040907F32509080326090813270908232A0
:1026D00080918F3290919032A0919132B09192324C
:1026E00089879A87AB87BC872091772030917820A3
:1026F0004091792050917A20C701B6010E94057D52
:102700004B015C01E894B7F8930182014BE750E27A
:10271000C701B6010E9476259301820143E750E28A
:10272000C501B4010E947625C0927720D09278200E
:10273000E0927920F0927A2020917B2030917C20C9
:1027400040917D2050917E20609173207091742083
:1027500080917520909176200E946E7D9B01AC0146
:102760005F7769857A858B859C850E940F7F181617
:102770000CF08CC007C380916720882311F18091F1
:102780000420882319F01092042080C0C0926F208A
:10279000D0927020E0927120F09272208091972068
:1027A0009091982080936D2090936E208091B3201B
:1027B000803518F480E58093B32083E08093BD32A8
:1027C00065C0409083325090843260908532709022
:1027D00086328091933290919432A0919532B0914B
:1027E000963289879A87AB87BC87609197207091D2
:1027F000982080E090E00E94387E6B017C0120915F
:1028000083203091842040918520509186200E9421
:10281000057D4B015C01E894B7F89301820147E81C
:1028200050E2C701B6010E947625930182014FE76D
:1028300050E2C501B4010E947625C0928320D09257
:102840008420E0928520F09286202091872030918C
:1028500088204091892050918A2060917F2070913A
:10286000802080918120909182200E946E7D9B012A
:10287000AC015F7711E069857A858B859C850E9424
:102880000F7F18160CF010E010936720109297201D
:10289000109298200E94210B2091B1323091B232D7
:1028A00080919720909198202817390708F027C128
:1028B00062E070E28091C2320E94365C1092692020
:1028C00010926A2010926B2010926C2062E080912E
:1028D000C2320E94EF6A86E08093BD3210C10E942E
:1028E000FD0880918C20882309F409C110928C2066
:1028F00020919320309194204091952050919620E2
:1029000060918F20709190208091912090919220E1
:102910000E94057D20E030E040E05FE30E94C87F38
:102920006B017C016093C0207093C1208093C22012
:102930009093C3208091A4208823C1F0C092BE321E
:10294000D092BF32E092C032F092C13260919720B3
:102950007091982080E090E00E94387E60937332FE
:1029600070937432809375329093763220919920CF
:1029700030919A202F5F3F4F2093992030939A20D7
:102980008091B332682F70E000916D2010916E201D
:102990002617370708F042C061507109072E000C56
:1029A000880B990B0E943A7E9B01AC0160E070E0BD
:1029B00080E791E40E946E7D4B015C016091B32041
:1029C00070E080E090E00E943A7E9B01AC01C5017E
:1029D000B4010E94067D0E940C7E6093B320A70183
:1029E000960160916F20709170208091712090917C
:1029F00072200E94067D60936F20709370208093F8
:102A00007120909372206091972070919820600FB0
:102A1000711F60936D2070936E2032C0682F70E03C
:102A200080E090E00E94387E6B017C019B01AC014C
:102A300060916F2070917020809171209091722030
:102A40000E946E7D6093C0207093C1208093C2204D
:102A50009093C320B80180E090E00E94387EA701E7
:102A600096010E946E7D60938720709388208093EA
:102A7000892090938A2084E08093BD321092B32005
:102A80000E94210B109297201092982038C00E942B
:102A9000870880919B20833091F08530B9F4809332
:102AA000BD3262E08091C2320E94EF6A66E080919E
:102AB000C2320E94EF6A86E080939B200CC061E0E6
:102AC0008091C2320E94EF6A64E001C062E08091AE
:102AD000C2320E94EF6A61E070E28091C2320E94CD
:102AE000365C0DC01092B320D40118961D921D9231
:102AF0001D921C921B978091C2320E94FF66E0914A
:102B00009C20F0919D2080917B3290917C32A0910D
:102B10007D32B0917E328093773290937832A09359
:102B20007932B0937A328091BD32843008F02EC170
:102B300080AD91ADA2ADB3AD8D839E83AF83B887D9
:102B400084A995A9A6A9B7A989839A83AB83BC83D5
:102B5000E4ACF5AC06AD17ADDF01A053BE4F2D912F
:102B60003D914D915C91E854FE4F6081718182816D
:102B70009381FE0131965F01DE0115966D010E9481
:102B80002227C0909C20D0909D20ED80FE800F8158
:102B9000188529813A814B815C81F60164857585B0
:102BA000868597850E948229D60118966D937D931C
:102BB0008D939C931B978091C2320E94FF66009177
:102BC0009C2010919D20F801EB5FFD4F608180916A
:102BD000C2320E94C420F801E454FE4F6083718326
:102BE0008283938380919C2090919D20AC014054DE
:102BF0005E4FFC01E454FE4F6081718182819381BC
:102C000008E411EE2AE73FE30E9476258091C23264
:102C100090E1E92E92E0F92E8E9D80018F9D100D9E
:102C20001124015C194CF801E454FE4F408151819C
:102C3000628173810E940D22F801EC54FE4F608383
:102C40007183828393832091C2322E9DC0012F9D78
:102C5000900D1124AC014950584CFC01ED50F84C3A
:102C6000608171818281938103E313E323E73FE372
:102C70000E9476251091C2321E9DC0011F9D900DAD
:102C80001124815C994C7C01B4E3EB1ABEEFFB0A82
:102C9000FC01E054FE4FDC01A854BE4F2D913D9144
:102CA0004D915C9160817181828193810E94C87F86
:102CB000F701608371838283938380919C2090913C
:102CC0009D20FC01ED5FFD4F2081253009F05EC0A5
:102CD00033962081222309F459C0389620812F5F32
:102CE000208331978081281708F450C020E030E01D
:102CF0004AE754E460917B3270917C3280917D325E
:102D000090917E320E94C87FAB01BC01812F0E944E
:102D10004368E0919C20F0919D20E55BFE4F4FB70A
:102D2000F894A081B1818C938081918101968083F8
:102D30009183268137812817390720F48481958172
:102D40008083918382859385608571858617970737
:102D500020F40196828793870CC08281938101962B
:102D6000828393832817390720F484819581828395
:102D700093834FBFE0919C20F0919D20E25FFD4F37
:102D8000108204C081E08093682080CD2C96CDBF56
:102D9000DEBFDF91CF911F910F91FF90EF90DF90F9
:102DA000CF90BF90AF909F908F907F906F905F90EB
:102DB0004F903F902F9008950F931F93EFE7F2E30A
:102DC0008DEC9CECACECBDE380839183A283B38358
:102DD00084839583A683B78380879187A287B387EF
:102DE0004FE652E163E87AE3448755876687778741
:102DF000808B918BA28BB38B848B958BA68BB78B9F
:102E0000408F518F628F738F448F558F668F778F6E
:102E100000E010E020EA31E400A311A322A333A3D1
:102E200044A355A366A377A380A791A7A2A7B3A79E
:102E300080E090E0A0E4B0E484A795A7A6A7B7A798
:102E400084EF91E080AB91AB80E395E782AB93ABED
:102E500084E084AB80E090E0A0E2B1E485AB96AB87
:102E6000A7ABB0AF1F910F9108954F925F926F92F1
:102E70007F928F929F92AF92BF92CF92DF92EF920A
:102E8000FF920F931F93CF93DF9390919B20292F55
:102E90002D7F19F0963009F00AC2082F11E0109327
:102EA000BD321092992010929A2010929720109281
:102EB00098200E94210B10928D2010928E2010924B
:102EC0008C2010928B201092B9321092BA3210924C
:102ED000BB321092BC3210927B3210927C32109234
:102EE0007D3210927E3210927732109278321092A8
:102EF000793210927A3210928720109288201092A4
:102F0000892010928A2010929E2010929F20109269
:102F1000A0201092A1201092832010928420109261
:102F200085201092862010927F201092802010928F
:102F300081201092822010927B2010927C2010928F
:102F40007D2010927E20109277201092782010928F
:102F5000792010927A20109273201092742010928F
:102F60007520109276201092BE321092BF321092CD
:102F7000C0321092C1321092733210927432109299
:102F800075321092763210926F201092702010924B
:102F900071201092722010926D2010926E208AE0A3
:102FA00097EDA3E2BCE38093092090930A20A093BD
:102FB0000B20B0930C201092AA201092A9201092FE
:102FC000C0201092C1201092C2201092C3202091E4
:102FD0009F323091A0324091A1325091A232609143
:102FE0009B3270919C3280919D3290919E320E94D2
:102FF000C87F6093BC207093BD208093BE209093C7
:10300000BF201092A2208091873290918832A091A7
:103010008932B0918A328093052090930620A09344
:103020000720B0930820109265201092662010931C
:10303000042080E090E0A0E8BFE38093002090931C
:103040000120A0930220B09303200093C232C02F2E
:10305000D0E080E192E0C89F9001C99F300DD89FD9
:10306000300D1124215C394C20939C2030939D20FD
:10307000F901E25FFE4F1083319610833196108381
:1030800080919B20811102C01092B32020E132E098
:10309000C29FF001C39FF00DD29FF00D1124E15C9F
:1030A000F94CDF01AD5FBD4F9C91943009F49EC097
:1030B00020F0973008F0FBC09FC085E080939B20F4
:1030C0001092692010926A2010926B2010926C204E
:1030D000DF01A45FBE4F1C91C480D580E680F780DD
:1030E000111147C0E455FE4F80809180A280B380CB
:1030F000A5019401C701B6010E946A7D1816B4F0BB
:1031000060E470E2802F0E94365C10926920109279
:103110006A2010926B2010926C2062E08091C23283
:103120000E94EF6A86E08093BD32C2C04090AB320D
:103130005090AC326090AD327090AE32A5019401E7
:10314000C701B6010E94057DA30192010E946A7D1C
:1031500087FF0FC0A3019201C501B4010E94067D43
:103160006093B9327093BA328093BB329093BC3281
:1031700008C0C092B932D092BA32E092BB32F0921B
:10318000BC3280E192E0C89FF001C99FF00DD89F4A
:10319000F00D1124E551F84C80819181A281B38119
:1031A00080936F3290937032A0937132B0937232E9
:1031B0001092BD324091B9325091BA326091BB3217
:1031C0007091BC32802F0E945D5F8091C2320E945C
:1031D0003A608FE692E1A3E8BAE380939E20909351
:1031E0009F20A093A020B093A1204FC0811104C0C4
:1031F00082E080939B2059C020E132E0C29FF00121
:10320000C39FF00DD29FF00D1124E15CF94C408575
:103210005185628573854093692050936A2060933D
:103220006B2070936C208B7F823049F48091AF3299
:103230009091B0328093992090939A200CC08FE6A1
:1032400092E1A3E8BAE380939E2090939F20A093FD
:10325000A020B093A12083E080939B2080E192E0A6
:10326000C89FF001C99FF00DD89FF00D1124E15CBB
:10327000F94C84819581A681B7818093B93290936E
:10328000BA32A093BB32B093BC32E0919C20F09153
:103290009D208091692090916A20A0916B20B0912F
:1032A0006C2084879587A687B78711E001C010E05E
:1032B000812FDF91CF911F910F91FF90EF90DF90C1
:1032C000CF90BF90AF909F908F907F906F905F90C6
:1032D0004F900895E091D233F0E0A091D233B0E066
:1032E000AA53BD4C14968C91E953FF4D8083809175
:1032F000D233811134C08091C620811109C08091E0
:10330000C720863009F04AC081E080935E3208957C
:103310008091C72090915520891720F081E08093FB
:10332000D7330895893031F461E089E790E00E9455
:10333000593AFFCFE82FF0E09F01220F331FE20F31
:10334000F31FE251FC4C20813181232B39F3809310
:10335000603282818093C420811120C016C0809188
:10336000D2339091C420891319C0882361F0282F8B
:1033700030E0F901E953FF4D9081F901E05AFD4C2D
:1033800090838150F2CF1092C4208091A8048F7C4A
:103390008093A80461E082ED9AE1F4C10895CF938F
:1033A000DF931F92CDB7DEB7E82FE695E695E69559
:1033B00090E2E99FF0011124E05FF94F8770E80F78
:1033C000F11D8FB78983F8949981808187708083FC
:1033D0008081886180839FBF0F90DF91CF91089596
:1033E000089588E08093220780E18093220780E29D
:1033F0008093220780E4809322078BE4D0DF8CE463
:10340000CEDF8DE4CCDF8EE4CADF8FE39CE9019749
:10341000F1F700C000008091280783FD03C081E020
:103420008093C5208091280784FD05C08091C52028
:103430008E5F8093C5208091280785FD05C080910F
:10344000C5208C5F8093C5208091280786FD05C02C
:103450008091C520885F8093C5208091C520089504
:103460000E94C32F87E08093A2000E945F3AB9DFD9
:103470006AE679E155D381E08093C620F9C081E006
:1034800099C380915F3296D310925F32089581E0A4
:1034900080935E3280E08EC3CF93DF93CDB7DEB7EB
:1034A0002897CDBFDEBF8BE089831B821C821D82E3
:1034B000809155208A831E821F82188668E070E002
:1034C000CE01019664D32896CDBFDEBFDF91CF91A8
:1034D0000895CF93DF93CDB7DEB72897CDBFDEBF7A
:1034E00040E068E0CE01019670D382E08D8386E4EF
:1034F0008E8368E070E0CE01019649D32896CDBF57
:10350000DEBFDF91CF910895EF92FF921F93CF938B
:10351000DF93CDB7DEB76597CDBFDEBF7C01FC0181
:103520001081812F90E0103148F42DE0289FB001E8
:10353000299F700D112468527C4F09C040972DE0DF
:10354000289FB001299F700D112468557B4F4DE0D5
:1035500050E0CE0101960E946181F70181818111C5
:103560000AC01E878B858F878C85888B8D85898B7C
:1035700064E070E00BC088E0FE013396DE011E9629
:1035800001900D928A95E1F768E070E0CE010E9609
:10359000FED26596CDBFDEBFDF91CF911F91FF9028
:1035A000EF90089560E082ED9AE1ECD01092C62091
:1035B0008091603290E0FC01EE0FFF1F8E0F9F1F85
:1035C000FC01E251FC4C0190F081E02D81E692E398
:1035D000199581E08093C62008950F931F93CF9390
:1035E000DF93CDB7DEB72897CDBFDEBF8C01FC01DE
:1035F00080819181863E904C89F540E068E0CE0163
:103600000196E3D2F801938124814281477050E012
:1036100047305105D0F4FA018827EF5FFE4F8F4FF6
:103620000C945881998313C09A8311C09B830FC057
:103630009C830DC0923049F49D8309C0963429F4CF
:103640009E8305C09F83288702C086E008C040E0B3
:1036500068E0CE010196EED280E001C083E0AAD2FC
:103660002896CDBFDEBFDF91CF911F910F910895B6
:10367000DF92EF92FF920F931F93CF93DF93CDB71B
:10368000DEB72D97CDBFDEBF38EDE32E33E0F32E4E
:103690000EEE13E34DE050E0B701CE0101960E941B
:1036A000618189819A81F801808391838B858283EE
:1036B000FDE0EF0EF11C0D5F1F4F84E30E31180784
:1036C00049F790E1F92EE09055202DE0D22EFE141E
:1036D00008F50F2D10E0C8014097D89EB001D99E83
:1036E000700D112468557B4F4DE050E0CE010196DE
:1036F0000E946181F801EE0FFF1F0E0F1F1FF801DE
:10370000E251FC4C89819A81808391838B858283ED
:10371000F394DDCF80E04ED22D96CDBFDEBFDF919A
:10372000CF911F910F91FF90EF90DF9008958091BE
:10373000C4329091C53201968093C4329093C532C1
:103740000895FB014FB7F8942091C4323091C532EF
:103750004FBF60817181A9012617370730F0461BE2
:10376000570B4817590760F007C041505109461BD5
:10377000570B4817590720F02083318381E00895C3
:1037800080E00895E9E2F0E22091C33244E0249F12
:1037900090011124275D3F4DE217F30749F0208186
:1037A00031812817390711F4628308953496ECCFDC
:1037B0000895CF93DF93EC010E94B53967E97BE16F
:1037C000CE010E94123A8981887F898380E09DE73B
:1037D0008EA39FA38E818C7F8E838E8181608E834A
:1037E0008881807F81608883DF91CF910895FF92E7
:1037F0000F931F93CF93DF93CDB7DEB72997CDBF3C
:10380000DEBF8C01F62E29833A834B835C83220F23
:10381000331F441F551F60E078E488EE91E00E945A
:103820003681DA01C9010597A109B1098D839E830B
:10383000AF83B887F9860115110509F4F1C0003C82
:10384000110511F460E105C0003484E0180719F493
:1038500068E080E0E3C00115E4E01E0711F464E0D5
:10386000F8CF0038F1E01F0711F462E0F2CF011544
:1038700081E0180711F461E0ECCF0038E3E01E07A7
:1038800011F461E017C00039F3E01F0711F461E0A3
:1038900018C0011582E0180711F462E00BC0003473
:1038A000E2E01E0711F462E00CC00115F3E01F070F
:1038B00019F464E081E0B2C0003283E0180719F423
:1038C00064E082E0ABC00115E8E01E0711F461E09E
:1038D0008FC00115F9E01F0711F461E090C00115D8
:1038E0008AE0180711F461E091C00115EBE01E07B2
:1038F00011F461E092C00034F8E01F0711F462E0B7
:1039000077C0003489E0180711F462E078C0003411
:10391000EAE01E0711F462E079C00034FBE01F0703
:1039200011F462E07AC0003988E0180711F464E00D
:103930005FC00039E9E01E0711F464E060C000399F
:10394000FAE01F0711F464E061C000398BE018074A
:1039500011F464E062C0003CE8E01E0711F468E086
:1039600047C0003CF9E01F0711F468E048C0003C84
:103970008AE0180711F468E049C0003CEBE01E073C
:1039800011F468E04AC0003AF8E01F0711F460E162
:103990002FC0003A89E0180711F460E130C0003A06
:1039A000EAE01E0711F460E131C0003AFBE01F07B6
:1039B00011F460E132C0003B88E0180711F460E2C6
:1039C00017C0003BE9E01E0711F460E218C0003B9D
:1039D000FAE01F0711F460E219C0003B8BE0180702
:1039E00011F460E21AC00038E4E01E0719F460E444
:1039F00083E014C00039F4E01F0719F460E484E0A8
:103A00000DC0003A84E0180719F460E485E006C0B0
:103A1000003BE4E01E0721F460E486E00E940130F0
:103A2000BE016F5F7F4FC8010E941D08F8018181B0
:103A3000886081832996CDBFDEBFDF91CF911F9132
:103A40000F91FF90089520E731E141E050E060E5FB
:103A500080E994E0CCCECF93DF93CDB7DEB72B9740
:103A6000CDBFDEBFFE0131963BE0DF011D923A95EE
:103A7000E9F729836F83788750E049875A8721E0E7
:103A80002B8728EE33E0DC0114964C9143704130D3
:103A900029F440E0BF010E94320804C021503109DE
:103AA00091F78DEF2B96CDBFDEBFDF91CF910895BB
:103AB000242F462FBC0180E994E0CDCFCF93DF9334
:103AC000CDB7DEB72B97CDBFDEBFFE0131963BE011
:103AD000DF011D923A95E9F729836F83788750E0DB
:103AE00049875A8721E02B8728EE33E0DC011496C2
:103AF0004C914370413021F4BF010E94320804C050
:103B00002150310999F78DEF2B96CDBFDEBFDF91A4
:103B1000CF910895242F462FBC0180E994E0CECFA9
:103B20000F931F93CF93C82F8B0160E485E00E9411
:103B30000130A80160EA74E0809111209091122078
:103B40000E945E2C40EC6C2F8091112090911220ED
:103B50000E94702C209111203091122080E090E082
:103B6000F901E80FF91F1482019688309105C1F719
:103B700080E090E0F901E80FF91F148601968115A5
:103B800041E09407B9F7CF911F910F9108956130EB
:103B900021E0720748F4AB01BC01809111209091A3
:103BA00012200C960E946A818091A8048063809301
:103BB000A8040895E0911120F09112208487E0EA92
:103BC000F4E08085806380870895DF92EF92FF9212
:103BD0000F931F93CF93DF93CDB7DEB7A097CDBFE1
:103BE000DEBFD82E092F842F162F613208F010E285
:103BF00040E250E09E012F5F3F4F7901B90130E272
:103C0000839FC00111240E943930ED2DF02FD70180
:103C10008A2F8E19811718F48D918193F9CFA09670
:103C2000CDBFDEBFDF91CF911F910F91FF90EF903D
:103C3000DF9008957F928F929F92AF92BF92CF9222
:103C4000DF92EF92FF920F931F93CF93DF93CDB745
:103C5000DEB7A097CDBFDEBF962E842E8E010F5FFC
:103C60001F4F20E2F80111922A95E9F7F0E24F9FE9
:103C7000500111246C017801F801DC01702E8E2FA7
:103C8000801B891518F48D918193F9CFC8010E948A
:103C90007030882D0E94823040E250E0B801C501AA
:103CA0000E9439308E2D8719891550F4F7019191B2
:103CB0007F01F60181916F019817A1F381E001C0A6
:103CC00080E0A096CDBFDEBFDF91CF911F910F9115
:103CD000FF90EF90DF90CF90BF90AF909F908F902C
:103CE0007F900895CF92DF92EF92FF920F931F93F0
:103CF0006B017C01CC24DD24EE2420E8F2228B0130
:103D00009C013F77012B022B032BB1F18B019C010E
:103D10000027112720783F7747E13695279517959B
:103D200007954A95D1F7F801309731F1DC01CB01C5
:103D3000AF77BB27AC01BD013CE076956795579501
:103D400047953A95D1F7CA01EF3FF10521F4892B48
:103D500009F043C006C0C801805791098F31910511
:103D60003CF0CD28CE28CF28D9F180E09CEF3DC093
:103D70008A3DEFEF9E073CF4CD28CE28CF2899F559
:103D800080E090E032C0181619068CF0CD28CE28BD
:103D9000CF2849F50256110902C0569547950A9554
:103DA000E2F74F5F5F4FCA01969587951EC09C0151
:103DB000322F2227330F330F4F5F5F4F56954795B2
:103DC000CD28CE28CF2829F0CA019068822B932BCA
:103DD0000CC0C901842B952B08C080E09EEF05C064
:103DE00080E09CE702C080E090E81F910F91FF9077
:103DF000EF90DF90CF9008954F925F926F927F92F5
:103E0000AF92BF92CF92DF92EF92FF920F931F93E8
:103E1000CF93DF939C013F77232B09F46FC08C0174
:103E200000271C77012F1127069506956C0123E0CA
:103E3000D2220F31110551F4CD2809F063C097FD4E
:103E400066C060E070E080E89FE765C0011511057D
:103E500039F0412C512C20E8622E2FE3722E03C042
:103E6000412C512C3201EC0189E0E82EF12CAA24DE
:103E7000A394B12CA3019201C301B2010E94067D5B
:103E80002B013C01C5010E2C02C0880F991F0A941A
:103E9000E2F78C219D21892B51F020E030E040E8B1
:103EA0005FE3C301B2010E94067D2B013C0181E06A
:103EB000E81AF108F8F6B80169517109072E000CEB
:103EC000880B990B0E943A7E9B01AC0160E070E088
:103ED00080E090E40E942B809B01AC01C301B20101
:103EE0000E94C87F012B31F420E030E040E059E32C
:103EF0000E94C87FD7FF0FC090580DC060E070E0EF
:103F0000CB0109C060E070E080EC9FE704C060E096
:103F100070E080E89FEFDF91CF911F910F91FF90AC
:103F2000EF90DF90CF90BF90AF907F906F905F90B9
:103F30004F900895CF93DF931F921F92CDB7DEB7B6
:103F400019821A820097E1F121E02093E60620E031
:103F500030E040913320509134202417350720F46D
:103F600000002F5F3F4FF5CF21E02093E50620E0D2
:103F700030E040913120509132202417350720F451
:103F800000002F5F3F4FF5CF21E02093E606FC01B4
:103F900021812093C30B2091C20B27FFFCCF2091DE
:103FA000C30B2A83FC0180818093C30B8091C20BD9
:103FB00087FFFCCF8091C30B898381E08093E50666
:103FC00089819A810F900F90DF91CF910895EFEC46
:103FD000F0E28081837084628083E0EDF0E2808192
:103FE000807883608062806880830895CF92DF92BA
:103FF000EF92FF920F931F93CF93C82F8091C00B26
:104000008F7B8093C00B009135201091362020913A
:10401000372030913820C12CD12C760143E060E06C
:1040200070E080EC9BE00E94832F8091C00B806445
:104030008093C00BC770CC0F8091D020817F8C2BD8
:1040400080688093D0208FEC90E274DF80E090E075
:104050002091693230916A328217930718F4000078
:104060000196F6CF8091D0208F778093D0208FEC6F
:1040700090E260DF80E090E02091693230916A3216
:104080008217930718F400000196F6CF8FEC90E2A8
:1040900051DF80E090E02091693230916A328217DE
:1040A000930718F400000196F6CF8FEC90E2CF91C1
:1040B0001F910F91FF90EF90DF90CF903BCFCF9368
:1040C000C82FCB01BA012FE632E143E05AE30E9448
:1040D0000F7F18167CF4EC2FF0E0EE0FFF1FED5E63
:1040E000FF4D808191818C3221E092071CF4019672
:1040F00080839183CF910895CF92DF92EF92FF92C8
:10410000CF93C82F73DFBC01C43000F1EC2FF0E077
:10411000EE0FFF1FE55FFF4D208131816901032E06
:10412000000CEE08FF08CB01072E000CAA0BBB0BFE
:104130008C199D09AE09BF0981159048AF4FBF4F3B
:104140001CF0621B730B02C060E070E8072E000CCD
:10415000880B990B0E943A7E2FE632E143E850E447
:104160000E94C87F20E030E040E05FE30E94C87F0B
:1041700020E03EEF4FEF56E40E946E7DCF91FF901E
:10418000EF90DF90CF900895CF93C62F8C5FB4DF70
:104190002FE632E143E050E40E94067DCC2329F073
:1041A00025ED38E749EE5EE304C027ED33EA40E34E
:1041B00050E40E94C87FCF910895AF92BF92CF92F2
:1041C000DF92EF92FF920F931F93CF93DF9300D074
:1041D00000D0CDB7DEB71D821E8219821A820097E9
:1041E00009F464C05C019091C00B9F7B9093C00B5D
:1041F000C12CD12C760100E412E42FE030E040E045
:1042000060E070E080EC9BE00E94832F9091C00BF7
:1042100090649093C00B82E08093E606F501818163
:1042200092818B839C838C818093C30B8091C20B82
:1042300087FFFCCF8091C30B8B818093C30B809150
:10424000C20B87FFFCCF8091C30B82E08093E50611
:104250008093E6069A819093C30B8091C20B87FFEF
:10426000FCCF8091C30B89818093C30B2091C20B3B
:1042700027FFFCCF2091C30B22E02093E50620937B
:10428000E6069093C30B9091C20B97FFFCCF9091E1
:10429000C30B9E838093C30B8091C20B87FFFCCF1F
:1042A0008091C30B8D8382E08093E5068D819E8192
:1042B0009F702696CDBFDEBFDF91CF911F910F91EA
:1042C000FF90EF90DF90CF90BF90AF900895CF9286
:1042D000DF92EF92FF920F931F93CF93DF931F9282
:1042E0001F92CDB7DEB789839A838091C00B8F7BF5
:1042F0008093C00BC12CD12C760100E412E42FE096
:1043000030E040E060E070E080EC9BE00E94832FB2
:104310008091C00B80648093C00B82E08093E6069E
:104320008A818093C30B8091C20B87FFFCCF809161
:10433000C30B89818093C30B8091C20B87FFFCCF95
:104340008091C30B82E08093E5060F900F90DF9180
:10435000CF911F910F91FF90EF90DF90CF90089534
:10436000CF9381E08093D1208091D4208D708460A0
:1043700088608093D4208CE08093D5208091D420D5
:104380009091D520A4DF8091D320817088608E7FAA
:104390008093D3201092D2208091D2209091D3206C
:1043A00096DF8091D92096E69093D8208F738E7FE8
:1043B0008093D920C0E18C2F8F71982F990F809115
:1043C000D920817C892B8093D9208091D82090910D
:1043D000D9207DDFCF5FCF71C43169F7CF910895C8
:1043E0008430C0F4880F86702091D220611105C0FE
:1043F0008295807F2F78822B08C08F5F8770982FDF
:104400009295907F822F8F78892B8093D22081ED97
:1044100090E2D3CE80E090E008958F929F92AF9289
:10442000BF92CF92DF92EF92FF92CF93DF93B82E9D
:104430006A017B0160E0D4DFEC0161E08B2DD0DF0D
:10444000BE01681B790B77FF03C0719561957109F7
:10445000072E000C880B990B0E943A7E20E030E07A
:1044600040EA5AE30E94C87F20E030E040E351E494
:104470000E94C87F4B015C012AE037ED43EA5CE310
:10448000C701B6010E94C87F9B01AC015F77C501DF
:10449000B4010E94057DDF91CF91FF90EF90DF90F6
:1044A000CF90BF90AF909F908F9008958F929F92E2
:1044B000AF92BF92CF92DF92EF92FF920F931F9332
:1044C000CF93DF9300D01F92CDB7DEB7A62EB42EC8
:1044D00083702093DB203093DC20880F80618093F1
:1044E000DD203091DE209091DC2039838A839B830C
:1044F0002C8380EC882E8BE0982EF40180818F7BBA
:104500008083C12CD12C760100E412E42FE030E04E
:1045100042E060E070E080EC9BE00E94832FF401B9
:104520008081806480830A2D069506950695F0E2C9
:104530000F9F800111241A5F8A2D8770EE24E39467
:10454000F12C470101C0880C8A95EAF7F8018682B0
:1045500043E050E0BE016E5F7F4F80EC9BE00E9425
:10456000A42FF8018582EB2DE695E695E69590E27D
:10457000E99FF0011124FA5F9B2D977001C0EE0CAA
:104580009A95EAF7E682E5822496CDBFDEBFDF91F9
:10459000CF911F910F91FF90EF90DF90CF90BF9040
:1045A000AF909F908F9008959B0148E06DE37ECF80
:1045B0009B014FE36CE37ACF82E08093260660E0B4
:1045C0008CE00E94353B60E08DE00C94353B4F92CF
:1045D0005F926F927F928F92BF92CF92DF92EF9213
:1045E000FF920F931F93CF93DF9300D01F92CDB70D
:1045F000DEB72C01892B09F4F0C084E0E3EEF0E291
:10460000DF011D928A95E9F78091E6208770886224
:104610008093E6208091E3209091E420A091E52012
:10462000B091E620BF778093E3209093E420A0939D
:10463000E520B093E620B093DF20A093E020909394
:10464000E1208093E220E22EE694E694E694B0E244
:10465000EB9E70011124EAEFFE1A277081E001C081
:10466000880F2A95EAF7282F80E090E0DC01F70117
:104670003085322359F0883EF3E09F07A105B1054C
:1046800009F4ADC00196A11DB11DF1CF883E934044
:10469000A105B10509F4A3C0A42FA695A695A695DA
:1046A00030E2A39FD0011124BA5F477021E030E0CF
:1046B00001C0220F4A95EAF716962C9316974FEDF4
:1046C00050E2CE0105968E010F5F1F4FFA01F19067
:1046D000AF01FB01F382C12CD12C7601FB01B2802A
:1046E000B7FC0DC0F8EECF16F3E0DF06E104F104ED
:1046F000B9F0FFEFCF1ADF0AEF0AFF0AEFCFE8EEBB
:10470000CE16E3E0DE06E104F10451F0FB01F38094
:10471000FC01F292CF010E171F07C1F680E001C025
:104720008DEF15962C9381115BC0298122952695DA
:1047300027709A81392F330F330F330F632E622A7C
:10474000292F2295269527709B81392F330F330F00
:10475000330F732E722A9295969597702C81322F73
:10476000330F330F330F832E892AE82C6301CC24B7
:10477000E7FCC394DD24EE2491E0322F307225FF54
:1047800090E09C15C1F0682DA30170E031111EC0AE
:104790007F6FA091E720B0E0AA0FBB1FA851BF4DCB
:1047A000CD90DC900D2C000CEE08FF084C0D5D1D2B
:1047B0006E1D7F1D0BC088202CF041E050E060E8AA
:1047C0007FEF04C04FEF5FEF6FE770E0D2014D93D2
:1047D0005D936D937C93139703C080E001C08DEFD0
:1047E0002496CDBFDEBFDF91CF911F910F91FF9037
:1047F000EF90DF90CF90BF908F907F906F905F9001
:104800004F900895DB01843090F4282F30E0F901B7
:10481000EE0FFF1FEF5BFF4D60817181F901E35CDB
:10482000FF4D4081F901E75CFF4D208104C020E08D
:1048300040E060E070E08093E720CD01C8DE082E04
:10484000000C990B08958BE0E0EFF0E2DF011D9280
:104850008A95E9F7CF0111C1CF93DF9321E030E0D2
:10486000A90102C0440F551F6A95E2F7BA010097EB
:1048700061F0FC012081213041F4EC0180EF90E2F5
:10488000DFD0CE01DF91CF9121C08FEF9FEFDF917D
:10489000CF910895009749F0FC012081211105C0B6
:1048A00021E0208381E090E008958FEF9FEF08954D
:1048B000CF93DF93009729F0EC01ECDF22E029830E
:1048C00002C08FEF9FEFDF91CF910895009759F0CD
:1048D000FC012081213039F44085678105961AD981
:1048E00081E090E008958FEF9FEF0895CF93DF93DD
:1048F000009789F0FC012081213069F4EC0184E10A
:10490000808782E08783CF01A7DF8D819E819827F2
:104910008927982702C080E090E0DF91CF91089529
:10492000813069F038F0823099F4E62FF0E0E057FA
:10493000F94F09C0E62FF0E0E05FF94F04C0E62F21
:10494000F0E0E059F94F8081108281E090E0089515
:104950008EEF9FEF08958130A9F058F08230E9F48E
:1049600081E090E001C0880F6A95EAF780938106A4
:1049700011C081E090E001C0880F6A95EAF780934A
:10498000010608C081E090E001C0880F6A95EAF74F
:104990008093610681E090E008958EEF9FEF089587
:1049A0000F931F93CF93DF93009779F1EC011A8552
:1049B0000985602F812FCFDF1130B1F060F0123008
:1049C000E1F481E090E0002E01C0880F0A94EAF73C
:1049D0008093850612C081E090E0002E01C0880F10
:1049E0000A94EAF78093050681E090E0002E01C06A
:1049F000880F0A94EAF780936506602F812F90DF75
:104A000081E0888381E090E002C08FEF9FEFDF912B
:104A1000CF911F910F910895009749F0FC012081DB
:104A2000213029F4408563818181928141D88FEFC3
:104A30009FEF0895009709F0B3CF8FEF9FEF089590
:104A4000CF93DF931F92CDB7DEB7009781F0FC01C3
:104A50002081213061F4678369832383CE0101962D
:104A600081839283CF01D8DF81E090E002C08FEF95
:104A70009FEF0F90DF91CF910895009749F023E0C9
:104A8000FC012187128621E0278320E72087D2CFEF
:104A90008FEF9FEF0895CF93DF931F92CDB7DEB7CF
:104AA00091E001C0990F6A95EAF79983482F61E078
:104AB000CE0101960E94581D0F90DF91CF9108956D
:104AC000CF93DF931F921F92CDB7DEB719826A830F
:104AD000682F81E7E0DF4EE262E0CE0101960E949E
:104AE000581D0F900F90DF91CF9108954F925F92D4
:104AF0006F927F928F929F92AF92BF92CF92DF92EE
:104B0000EF92FF920F931F93CF93DF932B013C0102
:104B1000EA0148015901C880D980EA80FB8020E081
:104B200030E0A901C701B6010E946A7D811105C06C
:104B3000488259826A827B821EC0A501940160E08E
:104B400070E080E89FE30E94057DA30192010E942E
:104B5000C87F2B013C01A5019401C701B6010E9449
:104B6000C87F9B01AC01C301B2010E94067D68832E
:104B700079838A839B83DF91CF911F910F91FF905F
:104B8000EF90DF90CF90BF90AF909F908F907F90ED
:104B90006F905F904F9008952F923F924F925F9247
:104BA0006F927F928F929F92AF92BF92CF92DF923D
:104BB000EF92FF920F931F93CF93DF93CDB7DEB7A2
:104BC0002797CDBFDEBF8C011B014F83FC01E25153
:104BD000FF4F608170E080E090E00E943A7ED80153
:104BE00014962D913D914D915C9117970E94C87F2D
:104BF0002B013C01F801E151FF4F608170E080E042
:104C000090E00E943A7EF8012085318542855385E7
:104C10000E94C87F4B015C01F801E051FF4F6081A9
:104C200070E080E090E00E943A7ED8011C962D91C1
:104C30003D914D915C911F970E94C87F6B017C0153
:104C4000F801ED5FFE4F408251826282738220E064
:104C500030E0A901C501B4010E946A7DF801E95F55
:104C6000FE4FED83FE8381110AC0108211821282F1
:104C700013823C9610821182128213825BC020E064
:104C800030E0A901C701B6010E946A7DF801E55034
:104C9000FF4FE983FA83882381F0A7019601C501BC
:104CA000B4010E94C87F0E949B80A981BA816D9344
:104CB0007D938D939C9313970AC0C501B4010E9404
:104CC0009B80E981FA816083718382839383D80119
:104CD0008D919D910D90BC91A02D89839A83AB837A
:104CE000BC839C01AD01C301B2010E94C87FA50134
:104CF00094010E946E7DED81FE81608371838283C9
:104D0000938398012D5E3E4F2D833E83F801E5503D
:104D1000FF4F208131814281538169817A818B816A
:104D20009C810E946E7DAD81BE816D937D938D933C
:104D30009C931397F801ED50FF4F80819181A281E0
:104D4000B38189839A83AB83BC83D8012D913D9134
:104D50004D915C9169817A818B819C810E94C87F91
:104D6000A70196010E94067D4B015C01F801E55FF9
:104D7000FE4FED83FE839B01AC01C701B6010E948B
:104D80006E7DAD81BE816D937D938D939C931397C2
:104D9000F801E15FFE4FED83FE8329813A814B816B
:104DA0005C81C301B2010E94C87FA70196010E94E5
:104DB000C87FA50194010E946E7DAD81BE816D9377
:104DC0007D938D939C931397BF81BB23B1F0F10129
:104DD000EF59FF4F80819181A281B3813D978083FC
:104DE0009183A283B3833897108211821282138237
:104DF00034961082118212821382F101EB55FF4F1B
:104E00001082789780E090E0A0EAB1E480839183FB
:104E1000A283B383799610822796CDBFDEBFDF9140
:104E2000CF911F910F91FF90EF90DF90CF90BF90A7
:104E3000AF909F908F907F906F905F904F903F903A
:104E40002F9008954F925F926F927F92AF92BF9290
:104E5000CF92DF92EF92FF920F931F93CF93DF9346
:104E600000D000D0CDB7DEB729013A01E982FA823D
:104E70000B831C83CD82DE8220E030E0A9010E94FA
:104E80000F7F181684F5A3019201C801B7010E9493
:104E90006E7D0E949B802B013C01F60120813181B7
:104EA000428153810E946A7D87FF05C0F6014082DE
:104EB00051826282738220E030E0A901F5016081B5
:104EC0007181828193810E946A7D87FF0CC0ED8190
:104ED000FE8180819181A281B381B058F5018083E8
:104EE0009183A283B3832696CDBFDEBFDF91CF919E
:104EF0001F910F91FF90EF90DF90CF90BF90AF90F8
:104F00007F906F905F904F9008952F923F924F92B5
:104F10005F926F927F928F929F92AF92BF92CF9249
:104F2000DF92EF92FF920F931F93CF93DF93CDB752
:104F3000DEB76C97CDBFDEBF6B8B7C8B8D8B9E8B72
:104F400029013A01E98EFA8E0B8F1C8F1601A98672
:104F5000BA86D60158966D917D918D919C915B9703
:104F60006D837E838F8398875496CD90DD90ED90EE
:104F7000FC905797C982DA82EB82FC825C962D9175
:104F80003D914D915C915F972B873C874D875E8764
:104F9000F501EB57FF4F20813181428153812F87EB
:104FA000388B498B5A8BF101E451FF4F208121113D
:104FB00020C09B01AC010E94C87F6D837E838F83DC
:104FC00098872B853C854D855E85CA01B9010E9475
:104FD000C87F6B877C878D879E872F853889498915
:104FE0005A89CA01B9010E94C87F6F87788B898B63
:104FF0009A8BF101E150FF4FC080D180E280F380B5
:1050000020E030E0A901C701B6010E946A7DE98570
:10501000FA85EC5AFF4F882331F0D101AF50BF4FD2
:105020008C91811105C0408251826282738237C0A7
:1050300080809180A280B380A5019401C301B20158
:105040000E94057D562E472E3C01262F372FAC019E
:10505000C701B6010E946A7D87FD10C0F7FAF0947F
:10506000F7F8F094252D342DA301C701B6010E9455
:105070000F7F18161CF0C52CD42C730169847A8418
:1050800034E5630E711CA7019601C501B4010E94AD
:10509000067DD3016D937D938D939C931397E98542
:1050A000FA85EC5AFF4FEF8BF88F208131814281D6
:1050B0005381F101E950FF4F6081718182819381B9
:1050C0000E94C87F2B893C894D895E890E94057D9D
:1050D000F101ED5FFE4F20813181428153810E94B9
:1050E000C87F6B017C01E985FA85E85BFF4F60832F
:1050F00071838283938369847A84F0E56F0E711CD7
:10510000D3012D913D914D915C91F101E55FFE4FF1
:1051100060817181828193810E94C87F4B015C0113
:10512000E985FA85EC5BFF4F208131814281538113
:105130006B897C898D899E890E94057DF101E15FE3
:10514000FE4F20813181428153810E94C87F9B01A3
:10515000AC01C501B4010E94057D9B01AC01F301C6
:10516000608371838283938349845A84FCE44F0E65
:10517000511CC701B6010E94067DD2012D913D91BF
:105180004D915C910E94067D298D3A8D4B8D5C8DF1
:105190000E94067D3B014C01E985FA85E359FF4FEA
:1051A0006081718182819381FE0131965F019E0150
:1051B0002B5F3F4F6901EB84FC840D851E852F8595
:1051C000388949895A893EDECD80DE80EF80F884B7
:1051D00009811A81AB80BC809601A701B301C4018B
:1051E0000E940F7F18166CF09801A501B301C4014D
:1051F0000E946A7D87FF03C06801750102C06301D8
:1052000074012B893C894D895E89AF89B88D6D9178
:105210007D918D919C910E94057DF101E95FFE4F8A
:1052200020813181428153810E94C87FF201208117
:105230003181428153810E94067D6B877C878D87F7
:105240009E875101FDEEAF1AFEEFBF0A9301A40144
:10525000B601C7010E94057DD5012D913D914D916B
:105260005C910E94C87F9B01AC016B857C858D851C
:105270009E850E94067DF201608371838283938301
:10528000E985FA85EC5BFF4F2B893C894D895E8966
:105290002083318342835383F101E451FF4F8081A6
:1052A000B601811118C0C7016C96CDBFDEBFDF917A
:1052B000CF911F910F91FF90EF90DF90CF90BF9013
:1052C000AF909F908F907F906F905F904F903F90A6
:1052D0002F900C949B80C7016C96CDBFDEBFDF91F1
:1052E000CF911F910F91FF90EF90DF90CF90BF90E3
:1052F000AF909F908F907F906F905F904F903F9076
:105300002F9008958F929F92AF92BF92CF92DF928B
:10531000EF92FF920F931F93CF93DF936B01D82FE0
:10532000C92F49015A019701A8010E940F7F181641
:105330006CF09401A501B6018D2F9C2F0E946A7D0F
:1053400087FF07C06401DA2DCB2D03C06701D02F82
:10535000C12FB6018D2F9C2FDF91CF911F910F91FF
:10536000FF90EF90DF90CF90BF90AF909F908F9085
:1053700008951F93CF93DF9366DACBEFD0E219E065
:10538000FE01812F11928A95E9F7CE0191DA2996D3
:10539000E1E2CF31DE07A1F7DF91CF911F910895B0
:1053A000682F29E0829FC001112485509F4D9ECA1D
:1053B0004F925F926F927F928F929F92AF92BF9225
:1053C000CF92DF92EF92FF92CF93DF93EA0123E334
:1053D00033E948E853E40E94067D9B01AC0160E09C
:1053E00070E080E89FE30E946E7D9B01AC016881C4
:1053F00079818A819B810E94057D6B017C014884B3
:1054000059846A847B8420E030E0A901C301B201A1
:105410000E946A7D81110AC0C701B60190582C8193
:105420003D814E815F810E946E7D4EC020E030E064
:1054300040E450E46C817D818E819F810E946E7D6D
:10544000A30192010E946E7D20E030E040E450E430
:105450000E942B804B015C01A3019201C701B601A0
:105460000E946E7D20E030E040E05FE30E94C87F54
:105470006B017C019B01AC010E94C87FA5019401D6
:105480000E94067D0E949B804B015C01A701960152
:105490000E94057D2BEA3AEA4AEA5EE30E942B80ED
:1054A0002B013C01A5019401C701B6010E94067DB4
:1054B0002BEA3AEA4AEA5EE30E942B809B01AC01A8
:1054C000C301B2010E94057DDF91CF91FF90EF9063
:1054D000DF90CF90BF90AF909F908F907F906F9014
:1054E0005F904F900C94DB7DCF92DF92EF92FF9212
:1054F0005FDF6B017C0120E030E44CE156E40E9468
:10550000067D9B01AC01C701B6010E946E7D20E0C3
:1055100030E040E857E40E94C87F6B017C0120E046
:105520003FEF4FE757E40E940F7F18163CF4C12C61
:10553000DD24DA948FE7E82E87E4F82EC701B60160
:105540000E9477800E940C7ECB01FF90EF90DF904D
:10555000CF9008954F925F926F927F928F929F9219
:10556000AF92BF92CF92DF92EF92FF920F931F9371
:10557000CF93DF93CDB7DEB72897CDBFDEBF6D8366
:105580007E838F83988729013A01D80118968D91DF
:105590009D910D90BC91A02D89839A83AB83BC8390
:1055A00020E030E0A901BC01CD010E946A7D81119B
:1055B0000CC0F801248535854685578560E070E08C
:1055C00080E89FE30E946E7D25C020E030E040E44B
:1055D00050E469817A818B819C810E94C87F6983B4
:1055E0007A838B839C83C301B2010E94557F9B0108
:1055F000AC010E94C87F29813A814B815C810E9465
:10560000C87FD80114962D913D914D915C911797CB
:105610000E94067D69837A838B839C8323E333E92D
:1056200048E853E46D817E818F8198850E94067DD4
:105630009B01AC010E94C87FA70196010E946E7D6C
:105640006D837E838F83988720E030E44CE156E4BD
:10565000C301B2010E94067D9B01AC010E94C87F7C
:105660006B017C0120E030E44CE156E4C301B2015F
:105670000E94C87F9B01AC01C701B6010E946E7DEC
:105680002D813E814F8158850E94C87F9B01AC01CE
:1056900069817A818B819C810E94C87F6B017C012A
:1056A000C501B4010E94387E9B01AC01C701B6015F
:1056B0000E946E7D2896CDBFDEBFDF91CF911F91F6
:1056C0000F91FF90EF90DF90CF90BF90AF909F90A1
:1056D0008F907F906F905F904F9008958F929F92E0
:1056E000AF92BF92CF92DF92EF92FF920F931F93F0
:1056F000CF93DF9300D01F92CDB7DEB78A010E940F
:10570000557F69837A838B839C8369817A818B81BE
:105710009C8189809A80AB80BC80C980DA80EB80D4
:10572000FC80F80120853185428553850E94C87F21
:10573000A50194010E94C87FF8012481358146812A
:1057400057810E94067DA70196010E94C87FF8013B
:1057500020813181428153810E94067D6B017C0151
:1057600020E030E0A9010E940F7F18164CF4A70139
:10577000960160E070E080E89FE30E946E7D03C0C8
:1057800060E070E0CB0123E333E948E853E40E9492
:10579000057D2496CDBFDEBFDF91CF911F910F9184
:1057A000FF90EF90DF90CF90BF90AF909F908F9041
:1057B00008958F929F92AF92BF92CF92DF92EF9215
:1057C000FF920F931F93CF93DF9300D01F92CDB71B
:1057D000DEB78B01009731F0BC0180E090E00E94C1
:1057E000387E04C060E070E080E89FE320E030E0B5
:1057F00040E857E30E94C87F6B017C0120E030E461
:105800004CE156E40E94C87F69837A838B839C8332
:1058100089809A80AB80BC80A701960160E070E02F
:1058200080E89FE30E94057D9B01AC01C501B401A6
:105830000E946E7D69837A838B839C8369817A81E0
:105840008B819C81A8014ADF2496CDBFDEBFDF910A
:10585000CF911F910F91FF90EF90DF90CF90BF906D
:10586000AF909F908F9008958F929F92AF92BF922A
:10587000CF92DF92EF92FF9249015A010E943A7E45
:105880006B017C01C501B4010E94387E9B01AC0113
:10589000C701B6010E946E7D20E030E040EA5FE380
:1058A0000E94C87FFF90EF90DF90CF90BF90AF90A5
:1058B0009F908F9008950C94C87F0895FC01608399
:1058C000718342835383E45FFE4F108231961082CE
:1058D000118232961082319610823196108208958C
:1058E000DC01ED91FC91119748634087ED91FC91AB
:1058F000660F63870895CF93DF93FC018F5E9E4F01
:10590000DC012C911197EF01C15FDE4F222359F08A
:105910000190F081E02D22E0218726E02C9318826F
:10592000FC01108217C081E088831C92A081B181A4
:1059300018968C9118978B7F18968C93DF01A45F33
:10594000BE4F1C9211961D921C920190F081E02D89
:1059500083E08187DF91CF910895DC01ED91FC9187
:10596000119720852B7F2087ED91FC912285206463
:105970002287FC01E05FFE4F21E0208331971082F7
:1059800008950F931F93CF93DF93EC01E881F98182
:105990008085846080878E01045F1E4FF8018081BE
:1059A000E881F981883028F58485F8019081FE012D
:1059B000E90FF11D8483EA81FB811995F80180814B
:1059C0008F5F8083DE01AF5EBE4F8C91E881F981ED
:1059D000882361F082E08187FE01E05FFE4F86E070
:1059E0008083C15FDE4F18821C920DC083E08187E7
:1059F0000AC086E08187FE01E05FFE4F82E080837F
:105A0000C15FDE4F1882DF91CF911F910F910895F2
:105A1000CF93DF93FC01E35FFE4F20813181EC01E6
:105A2000A881B981232B59F01A962C911A9724FF3B
:105A300006C022E019962C93339621E01FC02081E6
:105A400031812F3F310509F098F4C081D181C80F11
:105A5000D91F2C851C962C93208131812F5F3F4FBD
:105A600020833183DC01ED91FC9183E0818709C0C3
:105A700022E019962C93FC01E05FFE4F20833197C2
:105A80001082DF91CF910895DC01ED91FC91228588
:105A900021FDBECF76CFDC01ED91FC91228522FF66
:105AA0000AC0FC01E45FFE4F108231961082118221
:105AB000339624E017C023FF0AC0FC01E45FFE4FC9
:105AC0001082319610821182339623E00BC026FF9C
:105AD00003C020FD10CF41CF27FDD6CFFC01E05FF2
