:100000005CC5000080C500000C94761C7CC5000017
:100010007AC5000078C5000076C5000074C50000F0
:1000200072C5000070C500006EC500006CC5000000
:100030006AC50000A9C600000C9467510C949F513A
:100040000C94D7510C940F520C9447520C947F523D
:100050000C94B7520C94EF520C9427530C945F53AA
:1000600052C5000050C500004EC500004CC5000040
:100070004AC5000048C5000046C5000044C5000050
:1000800042C5000040C500003EC500003CC5000060
:100090003AC5000038C5000036C5000034C5000070
:1000A00032C5000030C500002EC500002CC5000080
:1000B0002AC500000C94C22F9FC500000C94C755A0
:1000C0000C94FF550C9437560C946F560C94A7560D
:1000D0000C94DF5618C5000016C5000014C50000BA
:1000E00012C5000010C500000EC500000CC50000C0
:1000F0000AC5000008C5000006C5000004C50000D0
:1001000002C5000000C50000FEC40000FCC40000E1
:10011000FAC40000F8C40000F6C400000C94F14DCD
:100120000C942E4E0C946B4E0C94A84EECC4000014
:10013000EAC400000C9497530C94CF530C940754CA
:100140000C943F540C9477540C94AF540C94E75493
:100150000C941F550C9457550C948F55D4C4000023
:10016000D2C40000D0C40000CEC40000CCC4000043
:10017000CAC40000C8C40000C6C40000C4C4000053
:10018000C2C40000C0C40000BEC40000BCC4000063
:10019000BAC40000B8C40000B6C40000B4C4000073
:1001A000B2C40000B0C40000AEC40000ACC4000083
:1001B000AAC40000A8C40000A6C40000A4C4000093
:1001C000A2C40000A0C400009EC400009CC40000A3
:1001D0009AC4000098C4000096C4000094C40000B3
:1001E00092C4000090C400008EC400008CC40000C3
:1001F0008AC4000088C4000086C4000020172317AA
:10020000261729172C173117361707634236B79B65
:10021000D8A71A39685618AEBAAB558C1D3CB7CC66
:100220005763BD6DEDFD753EF6177231BF000000DE
:10023000803F08000000BE922449123EABAAAA2AC1
:10024000BECDCCCC4C3E00000080BEABAAAAAA3EDC
:1002500000000000BF000000803F00000000000818
:100260004178D3BB4387D1133D190E3CC3BD4282B5
:10027000AD2B3E68EC8276BED98FE1A93E4C80EF73
:10028000FFBE01C4FF7F3F00000000006C16454E1A
:10029000554D4445560000FF0497165F454E554D99
:1002A000434D44020004E010524553455400000001
:1002B00000FFFFF4105F53485554444E0000FFFF09
:1002C0006E135F464143544F5259024005911653F5
:1002D0005441545553000000FF05681641424F52E7
:1002E0005400000000FFFF15155F524541445900BE
:1002F0000000FFFF7E1352454144424C4B00024038
:100300000400005F4857524553455400FFFF7F13D8
:10031000534156450000000000FF0503175F534599
:100320005456455200054405A0135F4C4F434B45BE
:100330004400010005881656455253494F4E0000AF
:10034000FF040000000000000000000000FFFF6745
:1003500016454E41424C45000000FFFF3F2F434FE2
:100360004E54524F4C3F010000DA2B434F4E545233
:100370004F4C00020000DA274552524F523F000016
:10038000010001F7274552524F52000000031001AF
:10039000A3274C494D4954533F000100034B2F54B0
:1003A000524947494E3F000100016A2F54524947C4
:1003B000494E0000031001322F545249474F555403
:1003C0003F010001572F545249474F555400031025
:1003D00001A5274750494F3F000000020005BE2EEF
:1003E0004750494F00000000030005CE29544553F3
:1003F0005400000000040401D14354454D505345BE
:10040000543F010003DC3C54454D50534554000516
:10041000300311444249504F4C41523F010005E620
:10042000434249504F4C4152000200054B3D544558
:100430004D503F000000010003AE42544552524F60
:10044000523F000100037D4154435552523F00008A
:10045000010003784454454D504D494E3F0100037F
:100460001A4454454D504D494E00053003F2445452
:10047000454D504D41583F010003954454454D5062
:100480004D4158000530030B4154435F494C494DE1
:100490003F0100032D4154435F494C494D00053055
:1004A00003863E504741494E3F0000010003683D2E
:1004B000504741494E000000053003A33E494E54C9
:1004C00045473F0000010003AB3D494E54454700FE
:1004D0000000053003C03E44455249563F0000012C
:1004E0000003EE3D4445524956000000053003DD4F
:1004F0003E534C45573F000000010003313E534C32
:100500004557000000000530038A42504741494EDC
:10051000454E3F0100053442504741494E454E008B
:100520000200059342494E544547454E3F010005A0
:100530004942494E544547454E000200059C4244FD
:1005400045524956454E3F0100055E4244455249D9
:1005500056454E00020005A542534C4557454E3FB7
:10056000000100057342534C4557454E0000020000
:1005700005EB41504F5745523F0000010003184220
:10058000504552494F443F00010001F5415045524A
:10059000494F4400000310012B42504F4C54433F3D
:1005A00000000100051D42504F4C54430000000262
:1005B00000055D40424554413F000000010003FA40
:1005C0003E42455441000000000530037A40524548
:1005D0004654454D503F010003323F524546544575
:1005E0004D500005300397405245465245533F0059
:1005F000010003883F524546524553000005300331
:10060000B44054434F4546413F00010003CA3F54A4
:10061000434F4546410000053003D14054434F4508
:1006200046423F00010003F03F54434F454642001D
:1006300000053003EE4054434F4546433F00010060
:1006400003374054434F45464300000530032841DB
:100650004D41585057523F000100036B3C4D4158EB
:100660005057520000053003463D43564F4C5454FA
:10067000433F010003E245545741524E3F00000101
:100680000003A645545741524E000000053003E6D2
:1006900041544355525345543F0100039A4154433A
:1006A000555253455400053003EC425354415254C3
:1006B000570000010001354353544F5057000000CC
:1006C0000100053D4357415645494E464F01000440
:1006D00086435741564556414C00010004B24353EE
:1006E0004C57534D504441010004B34357465953AE
:1006F00043414C45053003C543574658444543469E
:1007000041020000553C41564C5057523F0000FFFB
:10071000033B3C54544C5057523F0000FF033A43B4
:1007200054454D504C5554000100FFF0414C444994
:100730004D50443F00010003674553465459544D02
:10074000543F0100030F4553465459544D5400057E
:1007500030038C454C4153544954433F010003A19D
:10076000454C4153545654433F010003CB464D4C36
:1007700044435448520004C0031D474D4C44435465
:1007800048523F00FF0322474D4C524D54485200FF
:1007900004C00360474D4C524D5448523F00FF0384
:1007A0007D474D4C534D504C4D0001000090474D3E
:1007B0004C534D504C4D3F00FF0094474D4F444526
:1007C0004C4B3F0000FF0597474D4C4D45414E3F78
:1007D0000000FF039C474D4C5641523F000000FF74
:1007E00003A1474D4C53544444563F00FF03F54585
:1007F000534C535256454E3F010000E745534C536E
:100800005256454E000200002246534C5352564762
:100810004E3F010003FE45534C535256474E0005D0
:1008200030034B46534C5352564F533F010003275E
:1008300046534C5352564F53000530035E46534CBB
:10084000535256504F3F0100005046534C5352569E
:10085000504F00020000ED0A434355525345543FA8
:10086000010003F20A434355525345540005300337
:100870009C0C434D41584355523F010003B90C4372
:100880004D415843555200053003280E43435552FD
:10089000523F0000010003FA0E5057525345543F97
:1008A000000100031D0F50575253455400000530FE
:1008B00003870F434D41585057523F010003AA0F81
:1008C000434D415850575200053003F20F43504FEB
:1008D0005745523F00010003151043564F4C5443F7
:1008E000433F01000332104741494E3F00000001E1
:1008F000000337104741494E000000000530037ED9
:1009000010524553505654593F010003A11052450F
:10091000535056545900053003C910504F4C4343AF
:100920003F0000010005D210504F4C43430000002F
:10093000020005831356544F503F0000000100038E
:10094000871356544F500000000005300398134998
:100950004E5445524C4B3F00FF05A1134154454DA9
:10096000503F0000010003BD13485754454D503F10
:1009700000010003D913435552524F4653540530DA
:10098000035D1456544F5054524B3F010003611401
:100990004C415354493F000001000365144C41533E
:1009A000545643433F01000369145057524D415878
:1009B0003F0000FF03B80E4D4F44435552523F00D5
:1009C000FF03EC135F4D4F4443414C000530005E84
:1009D000295F4C544D4158000005300336285F4CC8
:1009E000544D41583F0000FF03EE285F4C544D49E1
:1009F0004E000005300319285F4C544D494E3F000E
:100A000000FF03122D5F4142534D415849067005C6
:100A100053285F4142534D58493F0240030B2C5F1E
:100A20004D4C4355525200067005B7285F4D4C435C
:100A30005552523F024003892C5F4D4C44555200A1
:100A400000067005FD2B5F4D4C4455523F0002409F
:100A500003DB0E43434D4F44563F0000FF038B0D15
:100A6000434D494E435552000530036E0D434D49E9
:100A70004E4355523F010003E82D5F4142534D491B
:100A80004E4906700585285F4142534D4E493F024D
:100A90004003ED2C4558544D4F444C00054405D6B9
:100AA000274558544D4F444C3F00FF00E928455816
:100AB00054524E473F0000FF010011241FBECFEFEC
:100AC000CDBFDFE3DEBF00E00CBF18BE19BE1ABE0B
:100AD0001BBE10E2A0E0B0E2E8E1FAEB00E00BBFE1
:100AE00002C007900D92AA31B107D9F71BBE2BE2C5
:100AF000AAE1B0E201C01D92AD35B207E1F70E9454
:100B000005330C940A5D7CCACF93DF931F92CDB757
:100B1000DEB78FB78983F89489810F90DF91CF91E9
:100B200008950F931F93CF93DF938C01EB01ECDFBC
:100B30000115124021F4C0931825D09319258FBFB9
:100B4000DF91CF911F910F9108958115924061F42B
:100B500080911A2091E0980F90931A20811104C07F
:100B600062E081E00C94625008958115924059F43E
:100B700080911A20815080931A20811104C062E074
:100B800081E00C94735008951F93CF93DF93EC0191
:100B9000BBDF182FCE01D9DF8881816088831FBF1A
:100BA0008091542B8F3F09F4FFCFAEDF9091542BEF
:100BB0009F5F9093542B8FBFDF91CF911F9108952A
:100BC0001F93CF93DF93EC019FDF182F88818E7FD7
:100BD0008883CE01CADF1FBF8091542B811101C0D1
:100BE000FFCF92DF9091542B91509093542B8FBF55
:100BF000DF91CF911F9108951F920F920FB60F9220
:100C0000112408B60F9218BE09B60F9219BE0AB683
:100C10000F921ABE0BB60F921BBE2F933F934F93AA
:100C20005F936F937F938F939F93AF93BF93CF9374
:100C3000DF93EF93FF93E0911B20F0911C208481C0
:100C400083FF06C08860848383E0838386EF7FC050
:100C5000982F947121F083E083838FEF78C086FF13
:100C600041C0A0911D20B0911E2080911F20909125
:100C7000202014962D913C9115978217930764F4C8
:100C80009C012F5F3F4F20931F2030932020A80FFF
:100C9000B91F11968C9122C0809121209091222021
:100CA00018962D913C91199782179307C8F42091BB
:100CB0002320222321F08681816086834AC01696F4
:100CC0002D913C911797AC014F5F5F4F40932120CE
:100CD00050932220D901A80FB91F8C91878339C066
:100CE00083E02CC087FF32C0A0911D20B0911E2050
:100CF000809121209091222018962D913C91199756
:100D000082179307F8F416966D917C9117979C01C2
:100D10002F5F3F4F20932120309322204781EB010A
:100D2000C80FD91F488318968D919C911997281741
:100D3000390718F482E083830CC087E08383109224
:100D4000252007C083E0838389EF01C08BEF809368
:100D50002520FF91EF91DF91CF91BF91AF919F91AE
:100D60008F917F916F915F914F913F912F910F9054
:100D70000BBE0F900ABE0F9009BE0F9008BE0F90D9
:100D80000FBE0F901F9018951F920F920FB60F92E3
:100D9000112408B60F9218BE09B60F9219BE0BB6F1
:100DA0000F921BBE2F933F934F935F936F937F934D
:100DB0008F939F93AF93BF93EF93FF931DDFFF91AB
:100DC000EF91BF91AF919F918F917F916F915F91C3
:100DD0004F913F912F910F900BBE0F9009BE0F9036
:100DE00008BE0F900FBE0F901F901895FC01DB01FD
:100DF00014968C91858388EB818381E08483EBE179
:100E0000F0E211861286E0EAF0E08281826082835D
:100E1000789480E00895CF93DF931F92CDB7DEB72B
:100E2000DC01FB01892B09F444C0309709F441C06F
:100E3000828590912420992319F081113CC0FFCF25
:100E40008FB78983F894898191E09093242090E86A
:100E5000909325208FBFA0931B20B0931C206093FC
:100E60001D2070931E2010921F201092202010929F
:100E7000212010922220409323209081990F2481D9
:100E80003581232B11F44111916016969C9380912A
:100E900025208038E1F3E0911B20F0911C20848113
:100EA0008370813009F0F7CF8091252010922420A3
:100EB00003C088EF01C086EF0F90DF91CF910895B6
:100EC000CF93DF931F92CDB7DEB7E82FE695E69577
:100ED000E69590E2E99FF0011124E05FF94F8770F9
:100EE000E80FF11D8FB78983F8949981808187700D
:100EF00080838081682B60839FBF0F90DF91CF91AB
:100F000008954F925F926F927F928F929F92AF92CD
:100F1000BF92CF92DF92EF92FF920F931F93CF93E6
:100F2000DF93CDB7DEB72B97CDBFDEBFE0EBF0E0B0
:100F300080E1C82EC28282E38383E12C96E0F92E01
:100F400020E4722EF701718260E086E0B9DFF701DC
:100F5000768230E8932E918260E087E0B1DFF7017E
:100F6000968240E2642E618260E085E0A9DFF701AD
:100F7000668250E2A52E56E0B52E62E0462EF501BF
:100F80004282F701C28274E0572EF501518268E275
:100F90008AE096DFF501558200E616E0F80141820D
:100FA000DD24D394D18260E089E18ADF60E088E1CA
:100FB00087DFF801D6824682F501D282A8E08A2E28
:100FC000818260E08BE07CDFF5018682B0E4AB2EAD
:100FD000B6E0BB2EF501C18260E084E171DFF5016E
:100FE000C582F801518260E08AE16ADFF80155822A
:100FF000818260E08BE164DFF8018582C18260E07C
:101000008CE15EDFF801C582F50161826682918222
:101010009682F80161826682918296820E94CD3723
:10102000F701D28242825282828261E270E082E0E3
:101030000E948357082F10E0102F002760E270E015
:1010400082E00E948357082B00930C0210930D023C
:10105000BE016F5F7F4F80E092E00E942E4FAE0195
:10106000485F5F4F61E080E092E00E948E4F8A818E
:10107000897E9B819F7890629B8388608A839C8213
:1010800087E08D8366EE7CE180E092E04ADDBE0180
:101090006F5F7F4F80E092E00E94E54E8A858C7FF3
:1010A00081608A87D8868986AE01485F5F4F61E09C
:1010B00080E092E00E94544FAE01485F5F4F62E0D3
:1010C00080E092E00E948E4F8A858C7F81608A87C3
:1010D000D886C986AE01485F5F4F62E080E092E04B
:1010E0000E94544FAE01485F5F4F64E080E092E0A1
:1010F0000E948E4F8A858C7F81608A87D88688E19E
:101100008987AE01485F5F4F64E080E092E00E9413
:10111000544FF501728268E186E1D2DEF5EDFA9571
:10112000F1F70000F501808586FB882780F98D2581
:101130000E94DC2578942B96CDBFDEBFDF91CF9146
:101140001F910F91FF90EF90DF90CF90BF90AF90E5
:101150009F908F907F906F905F904F900895EF9247
:10116000FF921F93CF93DF9310E1CDE1D1E08DE1AA
:10117000E82EFF24F394C7018C1B9D0B8A5C954DD0
:10118000412FC132D10514F060E201C06C2F0E94E2
:1011900068191F5FA097CD3F8FEFD80761F7DF91E8
:1011A000CF911F91FF90EF900895CF92DF92EF9231
:1011B000FF920F931F931091522B6CE171E086E325
:1011C0009AE20E94FA2F90913520181321C1409184
:1011D0000A2B50910B2B60910C2B70910D2B40938F
:1011E00076255093772560937825709379254091E3
:1011F0000E2B50910F2B6091102B7091112B40935F
:101200007E2550937F2560938025709381254091A2
:10121000122B5091132B6091142B7091152B40932E
:101220008225509383256093842570938525409172
:10123000162B5091172B6091182B7091192B4093FE
:10124000AA255093AB256093AC257093AD254091B2
:101250001A2B50911B2B60911C2B70911D2B4093CE
:10126000A6255093A7256093A8257093A9254091A2
:101270001E2B50911F2B6091202B7091212B40939E
:101280009A2550939B2560939C2570939D254091B2
:10129000222B5091232B6091242B7091252B40936E
:1012A0009E2550939F256093A0257093A125409182
:1012B000262B5091272B6091282B7091292B40933E
:1012C000A2255093A3256093A4257093A525409152
:1012D0002A2B50912B2B60912C2B70912D2B40930E
:1012E0009625509397256093982570939925409162
:1012F0002E2B50912F2B6091302B7091312B4093DE
:10130000B7255093B8256093B9257093BA254091BD
:10131000322B5091332B6091342B7091352B4093AD
:10132000BB255093BC256093BD257093BE2540918D
:10133000362B5091372B6091382B7091392B40937D
:10134000BF255093C0256093C1257093C22520917D
:101350003A2B30913B2B20937A2530937B2540917B
:101360003C2B50913D2B60913E2B70913F2B409335
:101370008625509387256093882570938925409111
:10138000402B5091412B6091422B7091432B409305
:101390008E2550938F2560939025709391254091D1
:1013A000442B5091452B6091462B7091472B4093D5
:1013B0009225509393256093942570939525809161
:1013C000512B8093DC254091482B5091492B609103
:1013D0004A2B70914B2B40938A2550938B25609319
:1013E0008C2570938D2580914C2B8093D7258091EF
:1013F0004D2B8093D82520914E2B30914F2B20934D
:10140000D9253093DA258091502B8093DB25B8C005
:101410008AE9C82E89E9D82E89ECE82E8FE3F82EC8
:10142000C0927625D0927725E0927825F0927925A2
:1014300040E050E060E271E440937E2550937F25C8
:10144000609380257093812500E010E020EF31E467
:10145000009382251093832520938425309385253E
:10146000C092AA25D092AB25E092AC25F092AD2592
:101470001092A6251092A7251092A8251092A925B2
:1014800010929A2510929B2510929C2510929D25D2
:1014900000939E2510939F252093A0253093A1258E
:1014A0001092A2251092A3251092A4251092A52592
:1014B000EFE6CE2EE2E1DE2EE3E8EE2EEBE3FE2EAB
:1014C000C0929625D0929725E0929825F092992582
:1014D0004093B7255093B8256093B9257093BA25EA
:1014E00040E050E060E87FE34093BB255093BC258B
:1014F0006093BD257093BE254093BF255093C025B2
:101500006093C1257093C22510927A2510927B2595
:10151000FFE6CF2EF2E1DF2EF3E8EF2EFAE3FF2E07
:10152000C0928625D0928725E0928825F092892561
:1015300000938E2510938F2520939025309391252D
:10154000409392255093932560939425709395250D
:101550001092DC2540E050E060E070E440938A2582
:1015600050938B2560938C2570938D251092D725F1
:101570001092D8251092D9251092DA251092DB25E9
:101580009F5F909335201F910F91FF90EF90DF9018
:10159000CF900895109268261092692610926A26BC
:1015A00010926B268CE99FEF80936C2690936D26AA
:1015B00080E090E0A0E8BFE380936E2690936F26D2
:1015C000A0937026B0937126809372269093732611
:1015D000A0937426B0937526089564E086E795E29B
:1015E0000C943E192F923F924F925F926F927F928E
:1015F0008F929F92AF92BF92CF92DF92EF92FF9223
:101600000F931F93CF93DF9300D000D0CDB7DEB7F9
:10161000FC01618172818381948169837A838B83E8
:101620009C83E090AA25F090AB250091AC25109109
:10163000AD252091A6253091A7254091A825509150
:10164000A9250E94FB397B018C01409076255090A2
:1016500077256090782570907925A30192010E94EA
:10166000F957882309F412C1A3019201B701C801F7
:101670000E949E59181624F0CC24CA94DC2C03C076
:10168000CC24C394D12C20E030E44CE156E4B701E3
:10169000C8010E94575A4B015C0120E030E040E055
:1016A0005FE30E94F95787FDE9C0E090AA25F0901A
:1016B000AB250091AC251091AD2520E030E040E055
:1016C0005FE3C501B4010E9495570E949B580E9498
:1016D000C75820E030E44CE156E40E94FD572091C9
:1016E0002A252C3609F061C020E03FEF4FE757E490
:1016F0000E94575A20E030E040EA50E40E94575AD6
:1017000020E030E046E153E40E94575A20E030E008
:101710004AE753E40E94FD570E949B584B015C012D
:1017200080E090E00E94C75820E03FEF4FE757E489
:101730000E94FD5720E030E040E250E40E94575AFA
:1017400020E030E048EC52E40E94575A20E030E8B4
:101750004BE354E40E94FD571B018D839E839B0144
:10176000AC01C301B2010E94F95781118CC08C0CED
:101770009D1CB40180E090E00E94C75820E03FEF3C
:101780004FE757E40E94FD5720E030E040E250E48C
:101790000E94575A20E030E048EC52E40E94575A29
:1017A00020E030E84BE354E45AC020E03FEF4FE73D
:1017B00057E40E94575A20E030E046E153E40E948B
:1017C000575A20E030E04AE753E40E94FD570E9458
:1017D0009B584B015C0180E090E00E94C75820E0DC
:1017E0003FEF4FE757E40E94FD5720E030E040E232
:1017F00050E40E94575A20E030E048EC52E40E9446
:10180000575A20E030E046E153E40E94FD571B01A7
:101810008D839E839B01AC01C301B2010E94F957E5
:10182000811131C08C0C9D1CB40180E090E00E94BD
:10183000C75820E03FEF4FE757E40E94FD5720E0F4
:1018400030E040E250E40E94575A20E030E048EC9B
:1018500052E40E94575A20E030E046E153E40E94EF
:10186000FD575B016C019B01AC01B701C8010E94EF
:10187000F95787FD0BC07501860108C0E12CF12CDA
:1018800000E010E003C071010D811E81C701D80185
:1018900089839A83AB83BC8364E0CE0101960E9466
:1018A0003E19C980DA80EB80FC80C0927625D09208
:1018B0007725E0927825F09279258091DE25823097
:1018C00028F120E030E0A90160914626709147267A
:1018D00080914826909149260E94F957811116C09F
:1018E000C0923E26D0923F26E0924026F0924126BA
:1018F000209168263091692640916A2650916B2686
:10190000C701B6010E9495570E9457252696CDBF64
:10191000DEBFDF91CF911F910F91FF90EF90DF908D
:10192000CF90BF90AF909F908F907F906F905F907F
:101930004F903F902F900895CF93DF9300D01F9248
:10194000CDB7DEB78091AA259091AB25A091AC25AB
:10195000B091AD2589839A83AB83BC8364E0CE01CB
:1019600001960E943E192496CDBFDEBFDF91CF9134
:101970000895CF92DF92EF92FF920F931F93CF9330
:10198000DF9300D01F92CDB7DEB7FC016181728179
:101990008381948169837A838B839C83E09035254E
:1019A000F0903625009137251091382520E030E061
:1019B000A9010E94FB3969837A838B839C832091E0
:1019C0002A252C3639F413ECE12E15EFF12E08EA16
:1019D0001EE305C013E3E12EFE2C03ED1FE320E020
:1019E00030E0A9010E94FB3969837A838B839C8351
:1019F000C0903525D0903625E0903725F0903825D9
:101A000029813A814B815C81C701B6010E94F95757
:101A100087FF04C0C982DA82EB82FC8264E0CE01D7
:101A200001960E943E19C980DA80EB80FC80A701F4
:101A30009601609176257091772580917825909117
:101A400079250E949E5918168CF5C0927625D09261
:101A50007725E0927825F0927925C0923E26D092A3
:101A60003F26E0924026F09241268091DE2582308A
:101A7000E8F020E030E0A901609146267091472609
:101A800080914826909149260E94F95781110EC0F5
:101A9000209168263091692640916A2650916B26E4
:101AA000C701B6010E9495570E94572589819A81E6
:101AB000AB81BC818093AA259093AB25A093AC25E4
:101AC000B093AD252496CDBFDEBFDF91CF911F919E
:101AD0000F91FF90EF90DF90CF900895CF93DF9319
:101AE00000D01F92CDB7DEB78091A6259091A72593
:101AF000A091A825B091A92589839A83AB83BC8343
:101B000064E0CE0101960E943E192496CDBFDEBF4F
:101B1000DF91CF910895CF92DF92EF92FF920F93D2
:101B20001F93CF93DF9300D01F92CDB7DEB7FC0198
:101B3000618172818381948169837A838B839C83A1
:101B4000E0903525F0903625009137251091382505
:101B50002091312530913225409133255091342503
:101B60000E94FB3969837A838B839C83C090AA256A
:101B7000D090AB25E090AC25F090AD25A701960163
:101B80000E949E59181624F4C982DA82EB82FC82E4
:101B900064E0CE0101960E943E19C980DA80EB8094
:101BA000FC80A70196016091762570917725809140
:101BB0007825909179250E94F95787FF31C0C0920E
:101BC0007625D0927725E0927825F0927925C092FB
:101BD0003E26D0923F26E0924026F0924126809108
:101BE000DE258230E8F020E030E0A9016091462651
:101BF0007091472680914826909149260E94F95776
:101C000081110EC0209168263091692640916A2684
:101C100050916B26C701B6010E9495570E94572527
:101C200089819A81AB81BC818093A6259093A72559
:101C3000A093A825B093A9252496CDBFDEBFDF9140
:101C4000CF911F910F91FF90EF90DF90CF9008956B
:101C5000CF93DF9300D01F92CDB7DEB78091582489
:101C6000823009F44EC090F4882319F1813009F0D4
:101C700062C020E030E04AE754E46091EC257091C6
:101C8000ED258091EE259091EF2561C0833009F418
:101C900045C0843009F04FC0809138269091392694
:101CA000A0913A26B0913B2689839A83AB83BC836B
:101CB00054C080915724882369F020E030E04AE73F
:101CC00054E46091762570917725809178259091E4
:101CD00079253DC0209118263091192640911A2669
:101CE00050911B2660914226709143268091442694
:101CF000909145260E94955720E030E04AE754E451
:101D000026C020E030E04AE754E460910C26709150
:101D10000D2680910E2690910F2619C020E030E00C
:101D20004AE754E4609118267091192680911A268A
:101D300090911B260CC020E030E04AE754E460910B
:101D400042267091432680914426909145260E9418
:101D5000575A69837A838B839C8364E0CE01019612
:101D60000E943E192496CDBFDEBFDF91CF9108952A
:101D7000CF93DF9300D01F92CDB7DEB720E030E0E5
:101D80004AE754E460911426709115268091162636
:101D9000909117260E94575A69837A838B839C837C
:101DA00064E0CE0101960E943E192496CDBFDEBFAD
:101DB000DF91CF910895CF93DF9300D01F92CDB7DD
:101DC000DEB7609118267091192680911A2690919D
:101DD0001B260E944F3669837A838B839C8364E041
:101DE000CE0101960E943E192496CDBFDEBFDF9141
:101DF000CF910895CF93DF9300D01F92CDB7DEB778
:101E000020E030E04AE754E4609186257091872510
:101E100080918825909189250E94575A69837A83F9
:101E20008B839C8364E0CE0101960E943E19249628
:101E3000CDBFDEBFDF91CF910895AF92BF92CF9219
:101E4000DF92EF92FF920F931F93CF93DF9300D017
:101E50001F92CDB7DEB7FC016181728183819481CD
:101E600069837A838B839C8320E030E04AE754E4E3
:101E70000E94FD577B018C0120E030E0A9010E9407
:101E8000F95787FF09C019821A821B821C82E12C34
:101E9000F12C00E010E01EC0A0908A25B0908B25A8
:101EA000C0908C25D0908D259501A601B701C80161
:101EB0000E949E59181674F420E030E04AE754E47A
:101EC000B501C6010E94575A69837A838B839C832C
:101ED0007501860164E0CE0101960E943E19C7019A
:101EE000D8018093862590938725A0938825B09369
:101EF00089252496CDBFDEBFDF91CF911F910F9131
:101F0000FF90EF90DF90CF90BF90AF900895CF9368
:101F1000DF9300D01F92CDB7DEB720E030E04AE774
:101F200054E460918A2570918B2580918C25909145
:101F30008D250E94575A69837A838B839C8364E042
:101F4000CE0101960E943E192496CDBFDEBFDF91DF
:101F5000CF910895CF92DF92EF92FF92CF93DF93CC
:101F600000D01F92CDB7DEB7FC01C180D280E380E4
:101F7000F480C982DA82EB82FC822091862530913E
:101F800087254091882550918925C701B6010E9477
:101F9000F95787FF10C020E030E04AE754E4C7015A
:101FA000B6010E94FD576093862570938725809324
:101FB000882590938925C092AE25D092AF25E092D6
:101FC000B025F092B12564E0CE0101960E943E1941
:101FD0002496CDBFDEBFDF91CF91FF90EF90DF90D1
:101FE000CF900895CF93DF9300D01F92CDB7DEB787
:101FF00020E030E04AE754E460910C2670910D2611
:1020000080910E2690910F260E94575A69837A83F9
:102010008B839C8364E0CE0101960E943E19249636
:10202000CDBFDEBFDF91CF910895CF93DF9300D076
:102030001F92CDB7DEB78091FC259091FD25A09130
:10204000FE25B091FF2589839A83AB83BC8364E02E
:10205000CE0101960E943E192496CDBFDEBFDF91CE
:10206000CF91089564E08EE895E20C943E190F93A9
:102070001F93CF93DF9300D01F92CDB7DEB7FC0143
:10208000618172818381948169837A838B839C834C
:1020900006E715E2F801608F718F828F938F20E041
:1020A00030E040E251E40E94FD579B01AC0160E04A
:1020B00070E080E291E40E94BA5A9B01AC0160E0BA
:1020C00070E080E89FE30E94FD57F80160A771A7C8
:1020D00082A793A764E0CE0101960E943E1940E0DA
:1020E00064E576E286E995E20E94F7372496CDBF53
:1020F000DEBFDF91CF911F910F910895CF93DF93B2
:1021000000D01F92CDB7DEB7209192253091932554
:10211000409194255091952560E070E080E89FE320
:102120000E94FD5769837A838B839C8364E0CE0190
:1021300001960E943E192496CDBFDEBFDF91CF915C
:102140000895CF93DF9300D01F92CDB7DEB7FC0187
:10215000218132814381548129833A834B835C837B
:1021600060E070E080E89FE30E94FD576093922555
:1021700070939325809394259093952564E0CE01E8
:1021800001960E943E192496CDBFDEBFDF91CF910C
:1021900008958091DC25882311F084E001C085E05A
:1021A0000C945719FC018181882329F081E08093E8
:1021B000DC2584E003C01092DC2585E00C945719DF
:1021C000F8940E9462191092A8048FE79EE3019789
:1021D000F1F700C0000082E08093850688ED84BF9F
:1021E00081E0809379000895E0E4F6E080E1868361
:1021F0008683809366060C9462190F931F93CF9386
:10220000DF9380919F269091A026A091A126B09166
:10221000A2268093362A9093372AA093382AB09327
:10222000392A8091A3269091A426A091A526B09149
:10223000A62680933A2A90933B2AA0933C2AB093F7
:102240003D2A8091A7269091A826A091A926B09119
:10225000AA2680933E2A90933F2AA093402AB093C7
:10226000412A8091AB269091AC26A091AD26B091E9
:10227000AE268093422A9093432AA093442AB09397
:10228000452A8091AF269091B026A091B126B091B9
:10229000B2268093462A9093472AA093482AB09367
:1022A000492A8091B3269091B426A091B526B09189
:1022B000B62680934A2A90934B2AA0934C2AB09337
:1022C0004D2A8091B7269091B826A091B926B09159
:1022D000BA2680934E2A90934F2AA093502AB09307
:1022E000512A8091BB269091BC26A091BD26B09129
:1022F000BE268093522A9093532AA093542AB093D7
:10230000552A8091BF269091C026A091C126B091F8
:10231000C2268093562A9093572AA093582AB093A6
:10232000592A8091C3269091C426A091C526B091C8
:10233000C62680935A2A90935B2AA0935C2AB09376
:102340005D2A8091C7269091C826A091C926B09198
:10235000CA2680935E2A90935F2AA093602AB09346
:10236000612A8091CB269091CC26A091CD26B09168
:10237000CE268093622A9093632AA093642AB09316
:10238000652A88E1EFECF6E2A6E6BAE201900D924A
:102390008A95E1F780915527909156278093EC2AF2
:1023A0009093ED2A80915D278093F42A80915E2797
:1023B0008093F52A80915F278093F62A8091602789
:1023C0008093F72A809161278093F82A8091E926EB
:1023D0009091EA26A091EB26B091EC268093FE2AFC
:1023E0009093FF2AA093002BB093012B8091ED26B0
:1023F0009091EE26A091EF26B091F0268093022BCB
:102400009093032BA093042BB093052B6091E826A7
:1024100070E080E090E00E94C7586093062B7093B4
:10242000072B8093082B9093092B80917B2690910A
:102430007C26A0917D26B0917E268093FA2A9093E7
:10244000FB2AA093FC2AB093FD2A809176259091D7
:102450007725A0917825B091792580930A2B9093C8
:102460000B2BA0930C2BB0930D2B80918225909178
:102470008325A0918425B09185258093122B90937C
:10248000132BA093142BB093152B80917E25909144
:102490007F25A0918025B091812580930E2B90936C
:1024A0000F2BA093102BB093112B8091AA25909104
:1024B000AB25A091AC25B091AD258093162B9093C0
:1024C000172BA093182BB093192B8091A6259091D0
:1024D000A725A091A825B091A92580931A2B9093A8
:1024E0001B2BA0931C2BB0931D2B80919A259091B0
:1024F0009B25A0919C25B0919D2580931E2B9093A8
:102500001F2BA093202BB093212B80919E2590917F
:102510009F25A091A025B091A1258093222B909377
:10252000232BA093242BB093252B8091A22590914F
:10253000A325A091A425B091A5258093262B909347
:10254000272BA093282BB093292B8091962590912F
:102550009725A0919825B091992580932A2B909347
:102560002B2BA0932C2BB0932D2B8091B7259091E2
:10257000B825A091B925B091BA2580932E2B9093C0
:102580002F2BA093302BB093312B8091BB259091B2
:10259000BC25A091BD25B091BE258093322B909390
:1025A000332BA093342BB093352B8091BF25909182
:1025B000C025A091C125B091C2258093362B909360
:1025C000372BA093382BB093392B80917A2590919B
:1025D0007B2580933A2B90933B2B8091862590917D
:1025E0008725A0918825B091892580933C2B9093D5
:1025F0003D2BA0933E2BB0933F2B80918E25909145
:102600008F25A0919025B09191258093402B909398
:10261000412BA093422BB093432B80919225909114
:102620009325A0919425B09195258093442B909368
:10263000452BA093462BB093472B8091DC258093AC
:10264000512B80918A2590918B25A0918C25B0915A
:102650008D258093482B9093492BA0934A2BB093C0
:102660004B2B8091D72580934C2B8091D82580933C
:102670004D2B8091D9259091DA2580934E2B909304
:102680004F2B8091DB258093502B6CE171E086E32A
:102690009AE20E94FA2F9091522B891721F0809391
:1026A000522BD1E001C0D0E0C0E106E31AE2DD2305
:1026B00029F04C2F60E2C80140D601C080E0CF5F16
:1026C000005E1F4F811104C0C93189F781E001C04C
:1026D00080E0DF91CF911F910F910895FC018081DF
:1026E0009181863E904C11F488DD06C00E94D50889
:1026F0000E94A6470E94983280E0D9C508950E94A2
:10270000983280E0D4C564E081E390E2B7C5FC0173
:1027100081819281A381B481809331209093322072
:10272000A0933320B093342064E081E390E2A6C507
:1027300080915924882311F084E001C085E0B7C559
:10274000F7CFCF93DF9300D01F92CDB7DEB7809144
:10275000282690912926A0912A26B0912B2689839C
:102760009A83AB83BC8364E0CE01019687D524961F
:10277000CDBFDEBFDF91CF910895CF93DF9300D01F
:102780001F92CDB7DEB78091302690913126A0916F
:102790003226B091332689839A83AB83BC8364E06D
:1027A000CE0101966BD52496CDBFDEBFDF91CF91D0
:1027B0000895FC0181819281A381B4818093682670
:1027C00090936926A0936A26B0936B2664E088E60E
:1027D00096E254D50C948632FC01208120932A2065
:1027E0006181728183819481609326207093272078
:1027F0008093282090932920223071F118F4213001
:1028000059F055C02330E1F1243009F050C00E9446
:10281000CA0A0E9486324DC020E030E0A9010E9421
:10282000F957811144C010926C2610926D2680E0F9
:1028300090E0A0E8BFE380936E2690936F26A0936C
:102840007026B09371268093722690937326A0937E
:102850007426B09375262DC020E030E0A9010E94B7
:10286000F95787FD24C080E090E0A0E8BFE38093A3
:102870006E2690936F26A0937026B093712613C096
:1028800020E030E0A9010E949E59181684F080E0F3
:1028900090E0A0E8BFE38093722690937326A09304
:1028A0007426B093752681E08093302002C0109288
:1028B0002A2061E08AE290E2E1C464E084E396E2E7
:1028C000DDC464E08AE390E2D9C464E086E390E288
:1028D000D5C408958F929F92AF92BF92CF92DF920C
:1028E000EF92FF920F931F93CF93DF931F92CDB779
:1028F000DEB7182F8FB78983F89409811230A0F4BE
:1029000010923E2610923F261092402610924126A9
:1029100060E070E0CB010E94572580E880930606B6
:1029200080E48093060661C0809127259091282538
:102930008E7F8093272590932825109252261092FF
:102940005326123009F051C0C0903925D0903A2555
:10295000E0903B25F0903C2580907625909077255F
:10296000A0907825B0907925A5019401C701B60102
:102970000E949E5918164CF4C0924626D0924726C3
:10298000E0924826F092492608C08092462690920E
:102990004726A0924826B092492620E030E040E841
:1029A0005FEBC701B6010E94F957811116C020E004
:1029B00030E04AE753E460914626709147268091C3
:1029C0004826909149260E94FD57609346267093B1
:1029D0004726809348269093492610923E261092CF
:1029E0003F26109240261092412680E880930606EA
:1029F00080E480930606133039F441E064E576E222
:102A000086E995E20E94F7371093DE250FBF0F90FD
:102A1000DF91CF911F910F91FF90EF90DF90CF90BA
:102A2000BF90AF909F908F9008950F931F93CF9377
:102A3000DF93FED000EC18E0F80180818F7B80836B
:102A4000C0ECD9E088818F7B888380EC98E00E947D
:102A5000C84FF80180818061808380EC99E00E94FA
:102A6000C84F888180618883E0E4F6E082E0828B51
:102A700084E0828783E081870E94DF250E94CD3732
:102A800080E028DF61E085EF9CE18CD2DF91CF917F
:102A90001F910F9117C40F931F93CF93DF931F9232
:102AA000CDB7DEB7182F80E092E00E94C4058FB743
:102AB0008983F89429813091000244E0149FC00179
:102AC0001124832B809300022FBF80910602812363
:102AD0001813FBCF10930602812F837021F41695F3
:102AE0001695E2E001C0E0E010FFEF5F88E0E89FAC
:102AF000F0011124E05EFD4F0481158180E092E039
:102B00000E94E00580913E209801281B310987FD35
:102B10003395C9010F90DF91CF911F910F910895C7
:102B2000E0915B25F0E0A0915B25B0E0A95BBA4D98
:102B300014968C91EE5BFF4D808380915B25811113
:102B400036C08091412081110BC081E080935F25C8
:102B500090914220963009F049C0809373240895E3
:102B60008091422090911820891720F081E0809375
:102B70005F250895893031F461E089E790E00E9493
:102B80008D57FFCFE82FF0E09F01220F331FE20F98
:102B9000F31FED5AF74D20813181232B39F38093B8
:102BA0007524828180933F20811120C016C08091BE
:102BB0005B2590913F20891319C0882361F0282F4D
:102BC00030E0F901EE5BFF4D9081F901EB58FB4DD0
:102BD00090838150F2CF10923F208091A8048F7C87
:102BE0008093A80461E083EE96E1DCC10895CF9361
:102BF000DF931F92CDB7DEB7E82FE695E695E69511
:102C000090E2E99FF0011124E05FF94F8770E80F2F
:102C1000F11D8FB78983F8949981808187708083B3
:102C20008081886180839FBF0F90DF91CF9108954D
:102C3000BFC2CF9384E08093820688E080938206AF
:102C4000C1E0C093E20782E08093E20782E2CFDF37
:102C500083E2CDDF88E7CBDF89E7C9DF8FE39CE93B
:102C60000197F1F700C000008091880682FFC093B1
:102C700040208091880683FD05C0809140208E5FB2
:102C8000809340208091E80780FD05C0809140201E
:102C90008C5F809340208091E80781FD05C0809182
:102CA0004020885F8093402080914020CF910895FC
:102CB0000E943E5087E08093A2000E949357B9DFA4
:102CC00060E975E1AFD281E080934120E1C0FAC2B2
:102CD00081E080937324F6C2CF93DF93CDB7DEB744
:102CE0002897CDBFDEBF8FE089831B821C821D82A7
:102CF000809118208A831E821F82188668E0CE0188
:102D00000196BCD22896CDBFDEBFDF91CF9108954A
:102D1000E9E2F5E281E0848385E1858368E0CF0123
:102D2000ADC280917424C3D2109274240895EF929E
:102D3000FF921F93CF93DF93CDB7DEB76597CDBFDB
:102D4000DEBF7C01FC011081812F90E0103148F43E
:102D50002DE0289FB001299F700D112464577D4FED
:102D600009C040972DE0289FB001299F700D1124C4
:102D7000645A7C4F4DE050E0CE0101960E94F85C11
:102D8000F7018181811109C01E878B858F878C8512
:102D9000888B8D85898B64E00AC088E0FE013396BC
:102DA000DE011E9601900D928A95E1F768E0CE0152
:102DB0000E9664D26596CDBFDEBFDF91CF911F9195
:102DC000FF90EF900895CF9360E083EE96E1EAD014
:102DD000CFB7F894109241208091752490E0FC01C7
:102DE000EE0FFF1F8E0F9F1FFC01ED5AF74D019054
:102DF000F081E02D86E794E2199581E080934120EF
:102E0000CFBFCF910895CF93DF93FC012081318113
:102E1000263E304CC9F5EC0140E06BE189E295E2D9
:102E200057D29B812C814A81477050E04730510531
:102E300010F5FA018827E250FF4F8F4F0C94CE5BBC
:102E4000909329251AC090932A2517C090932B257B
:102E500014C090932C2511C0913069F490932D25C6
:102E60000CC0953141F490932E2507C090932F25E7
:102E70002093302502C086E008C040E06BE189E283
:102E800095E25BD280E001C083E0DF91CF910FC279
:102E9000DF92EF92FF920F931F93CF93DF93CDB703
:102EA000DEB72D97CDBFDEBF3CE8E32E32E0F32E38
:102EB00003E518E24DE050E0B701CE0101960E9413
:102EC000F85C89819A81F801808391838B85828364
:102ED000FDE0EF0EF11C0D5F1F4F88E2033818076D
:102EE00049F790E1F92EE09018202DE0D22EFE1443
:102EF00008F50F2D10E0C8014097D89EB001D99E6B
:102F0000700D1124645A7C4F4DE050E0CE010196C3
:102F10000E94F85CF801EE0FFF1F0E0F1F1FF80153
:102F2000ED5AF74D89819A81808391838B858283C5
:102F3000F394DDCF80E0BBD12D96CDBFDEBFDF9116
:102F4000CF911F910F91FF90EF90DF9008958091A6
:102F500045259091462501968093452590934625D9
:102F60000895FB014FB7F8942091452530914625EF
:102F70004FBF60817181A9012617370730F0461BCA
:102F8000570B4817590760F007C041505109461BBD
:102F9000570B4817590720F02083318381E00895AB
:102FA00080E00895E0E1F0E22091442544E0249F90
:102FB00090011124205F3F4DE217F30749F0208173
:102FC00031812817390711F4628308953496ECCFC4
:102FD0000895CF93DF93EC010E94175767EA77E1DA
:102FE000CE010E9457578981887F898380E09DE7C1
:102FF0008EA39FA38E818C7F8E838E8181608E8332
:103000008881807F81608883DF91CF910895FF92CE
:103010000F931F93CF93DF93CDB7DEB72997CDBF23
:10302000DEBF8C01F62E29833A834B835C83220F0B
:10303000331F441F551F60E078E488EE91E00E9442
:10304000AC5BDA01C9010597A109B1098D839E83A3
:10305000AF83B887F9860115110509F496C0003CC5
:10306000110511F460E105C0011584E0180719F499
:1030700064E080E088C00038E1E01E0711F462E0FF
:10308000F8CF0115F1E01F0711F461E0F2CF00382D
:1030900083E0180711F461E005C00115E2E01E07A6
:1030A00019F462E081E06FC00032F3E01F0719F409
:1030B00064E082E068C0011588E0180711F461E05F
:1030C0005AC00115E9E01E0711F461E04DC0011579
:1030D000FAE01F0711F461E055C0003488E01807DA
:1030E00011F462E048C00034E9E01E0711F462E028
:1030F0003BC00039F8E01F0711F464E03CC0003920
:1031000089E0180711F464E02FC00039EAE01E07D7
:1031100011F464E037C0003CF8E01F0711F468E0E8
:103120002AC0003C89E0180711F468E01DC0003A8D
:10313000E8E01E0711F460E11EC0003AF9E01F0745
:1031400011F460E111C0003A8AE0180711F460E15F
:1031500019C0003BE8E01E0711F460E20CC0003B20
:10316000F9E01F0719F460E284E00DC0003884E044
:10317000180719F460E483E006C0003AE4E01E0793
:1031800021F460E485E00E946250BE016F5F7F4FD2
:10319000C8010E94F606F801818188608183299622
:1031A000CDBFDEBFDF91CF911F910F91FF900895AA
:1031B00020E731E141E050E060E580E894E027CF8E
:1031C000CF93DF93CDB7DEB72B97CDBFDEBFFE0128
:1031D00031963BE0DF011D923A95E9F729836F8331
:1031E000788750E049875A8721E02B8728EE33E023
:1031F000DC0114964C914370413021F4BF010E94D0
:103200000B0704C02150310999F78DEF2B96CDBFE4
:10321000DEBFDF91CF910895242F462FBC0180E8B7
:1032200094E0CECF0F931F93CF93C82F8B0160E410
:1032300085E00E946250A80160EA74E08091062057
:10324000909107200E94154D40EC6C2F8091062034
:10325000909107200E94204D209106203091072058
:1032600080E090E0F901E80FF91F148201968830A0
:103270009105C1F7CF911F910F910895693088F49E
:103280002091062030910720FC0180E090E0861715
:1032900040F44191D901A80FB91F1C964C93019697
:1032A000F6CF8091A80480638093A8040895E091EC
:1032B0000620F09107208487E0EAF4E080858063AF
:1032C00080870895E0EAF4E0808580638087089530
:1032D000DF92EF92FF920F931F93CF93DF93CDB7BF
:1032E000DEB7A097CDBFDEBFD82E092F842F162FB3
:1032F000613208F010E240E250E09E012F5F3F4F44
:103300007901B90130E2839FC00111240E949850D5
:10331000ED2DF02FD7018A2F8E19811718F48D917A
:103320008193F9CFA096CDBFDEBFDF91CF911F91E2
:103330000F91FF90EF90DF9008957F928F929F9270
:10334000AF92BF92CF92DF92EF92FF920F931F93B3
:10335000CF93DF93CDB7DEB7A097CDBFDEBF962E5C
:10336000842E8E010F5F1F4F20E2F80111922A95E3
:10337000E9F7F0E24F9F500111246C017801F80148
:10338000DC01702E8E2F801B891518F48D9181938E
:10339000F9CFC8010E94DC50882D0E94EE5040E217
:1033A00050E0B801C5010E9498508E2D87198915EB
:1033B00050F4F70191917F01F60181916F01981707
:1033C000A1F381E001C080E0A096CDBFDEBFDF9118
:1033D000CF911F910F91FF90EF90DF90CF90BF9012
:1033E000AF909F908F907F9008954F925F926F92D1
:1033F0007F928F929F92AF92BF92CF92DF92EF9285
:10340000FF920F931F93CF93DF932B013C01EA01AF
:1034100048015901C880D980EA80FB8020E030E073
:10342000A901C701B6010E94F957811105C0488260
:1034300059826A827B821EC0A501940160E070E01F
:1034400080E89FE30E949457A30192010E94575A7B
:103450002B013C01A5019401C701B6010E94575AF6
:103460009B01AC01C301B2010E9495576883798327
:103470008A839B83DF91CF911F910F91FF90EF90F3
:10348000DF90CF90BF90AF909F908F907F906F9084
:103490005F904F9008954F925F926F927F928F92BC
:1034A0009F92AF92BF92CF92DF92EF92FF920F93D3
:1034B0001F93CF93DF93CDB7DEB72C97CDBFDEBF81
:1034C0001D821E821F8218868090932690909426DB
:1034D000A0909526B0909626809197269091982658
:1034E000A0919926B0919A2689879A87AB87BC8745
:1034F00080915724882349F010922B2810922C2871
:1035000010922D2810922E2810C0CE0101960E94F4
:10351000492789819A81AB81BC8180932B28909324
:103520002C28A0932D28B0932E280E94D737809363
:103530003328909334288130AFEF9A0708F010C1F8
:10354000292F30E0F901EE0FFF1FEE0FFF1FEA5A9F
:10355000FF4DC080D180E280F3808C011127220FC3
:10356000331F220F331FF9019F3F01F1E65AFF4D30
:10357000A701960160817181828193810E94945795
:103580002B013C01B80180E090E00E94C758A301E4
:1035900092010E94575A20E030E040E85BE30E942D
:1035A000575AA70196010E94955724C0EE5AFF4D25
:1035B0002081318142815381C701B6010E94945715
:1035C0002B013C0160E071E0601B710B80E090E03A
:1035D0000E94C758A30192010E94575A20E030E090
:1035E00040E85BE30E94575A9B01AC01C701B6015A
:1035F0000E94945720917B2630917C2640917D2615
:1036000050917E260E9494577B018C012DEC3CEC5E
:103610004CEC5DE3C501B4010E9495579701A801E8
:103620000E94F95718160CF0A0C02DEC3CEC4CECA5
:103630005DE369857A858B859C850E949457970107
:10364000A8010E949E5987FF90C08090902790907B
:103650009127A0909227B090932760912B2870918A
:103660002C2880912D2890912E280E94C958A501C0
:1036700094010E94124D2B013C0120E030E0A90191
:10368000B701C8010E949E592DEC3CEC4CEC5DE367
:1036900087FD23C060919326709194268091952692
:1036A000909196260E9494574B015C019B01AC01BE
:1036B000B701C8010E949E5987FD34C0A50194013D
:1036C000B701C8010E9494572DEC3CEC4CE45EE33A
:1036D0000E94FD574B015C0128C0609197267091B4
:1036E00098268091992690919A260E9495574B0191
:1036F0005C019B01AC01B701C8010E94F957181683
:103700008CF0A5019401B701C8010E9494572DECDB
:103710003CEC4CE45EE30E94FD574B015C01E894F5
:10372000B7F803C0812C912C5401A501940160E0ED
:1037300070E080E89FE30E949457A30192010E94E9
:10374000575A2B013C019701A801C501B4010E9401
:10375000575A9B01AC01C301B2010E94955707C0A3
:1037600060E070E080EC9FE702C0B701C8018B0108
:103770009C01C901B8012C96CDBFDEBFDF91CF916E
:103780001F910F91FF90EF90DF90CF90BF90AF907F
:103790009F908F907F906F905F904F900895CF9201
:1037A000DF92EF92FF921F93CF93DF936091832676
:1037B0007091842680918526909186266B017C01EC
:1037C000E894F7F820E030E0A9010E94F9579091C1
:1037D0005E2787FF02C0892F02C081E089270E94EF
:1037E00023268091612420E03FEF4FE757E48823B0
:1037F000A9F0C701B6010E94575A2AE939E949E1FF
:103800005EE30E94575A20E030E44CE155E40E9408
:10381000575A20E030E84BE354E40EC0C701B6012C
:103820000E94575A2AE939E949E15EE30E94575A52
:1038300020E030E040E250E40E94FD5720E030E01C
:1038400040E05FE30E9495576B017C0120E03FEF71
:103850004FE757E40E949E59181634F0C701B6018D
:103860000E949B58EB0102C0CFEFDFEFC0933C28D2
:10387000D0933D2810915228123058F1612F70E0FA
:1038800080E090E00E94C75820E030E048E453E434
:103890000E94FD579B01AC0160E070E080E89FE36F
:1038A0000E9494576B017C01BE0180E090E00E9471
:1038B000C7589B01AC01C701B6010E94575A0E942C
:1038C0009B5860933C2870933D288FEF810F809325
:1038D000522880913C2890913D28DF91CF911F91F3
:1038E000FF90EF90DF90CF900C94FF251F920F92E6
:1038F0000FB60F92112408B60F9218BE09B60F9298
:1039000019BE0BB60F921BBE2F933F934F935F933D
:103910006F937F938F939F93AF93BF93EF93FF9397
:103920001092592481E08093542080912725909112
:103930002825806880932725909328258091DE256F
:10394000823040F081700E946A1480915C248F5F05
:1039500080935C2484E080932606FF91EF91BF91D1
:10396000AF919F918F917F916F915F914F913F9117
:103970002F910F900BBE0F9009BE0F9008BE0F90B5
:103980000FBE0F901F9018950F931F93CF93DF9347
:1039900006E510E2C0E0D0E06FEC76E280E09C2F1C
:1039A0000E94B74CF80161937193819391938F01B9
:1039B0002196C115F1E0DF0779F7DF91CF911F91D3
:1039C0000F91089584E0809325060895613019F0E1
:1039D000623031F0089540936F255093702508951B
:1039E0004093692550936A2508954F925F926F9294
:1039F0007F928F929F92AF92BF92CF92DF92EF927F
:103A0000FF920F931F93CF93DF9300D01F92CDB7F8
:103A1000DEB780915420882339F08091DE258170B3
:103A20000E946A141092542060E570E282E090E0F7
:103A300098DA882309F4B9C78FB7F89420914525FF
:103A40003091462520935020309351208FBF809194
:103A5000592481111EC0809127259091282587FD2A
:103A600018C028E0209325062093260620914806BA
:103A700022FB222720F92093592420915924211137
:103A800008C08068809327259093282584E0809340
:103A9000260680914A20813009F454C348F08230D0
:103AA00009F445C7833009F47BC710924A207DC7CB
:103AB00080910A20882309F461C0809156248230C5
:103AC00009F138F48823D9F08130B1F58FE896E216
:103AD00030C0843061F138F1853071F58BE896E2C1
:103AE0000E9449278BE09EEFAFE7B0E080938B26E2
:103AF00090938C26A0938D26B0938E2639C080E0BB
:103B000090E013C08FE896E20E94492785EF91E08C
:103B1000A0E8BFEF80938F2690939026A0939126E4
:103B2000B093922625C08FEF9FEFB7D721C08BE8C7
:103B300096E20E9449271CC06FEC76E280915527DF
:103B4000909156270E94B74C609377267093782601
:103B50008093792690937A268091552790915627C5
:103B60009CD70E94953B81E08093462810920A20C2
:103B7000809156248F5F8093562412C780915520E0
:103B8000811114C088DC2091592730915A27409127
:103B90005B2750915C270E9494576093F3277093A2
:103BA000F4278093F5279093F62701C074DC809169
:103BB0004628823008F51092FF27109200281092B4
:103BC00001281092022810920328109204281092C3
:103BD0000528109206281092F7271092F8271092C5
:103BE000F9271092FA271092FB271092FC271092C7
:103BF000FD271092FE272AC0833049F48091832646
:103C000090918426A0918526B091862608C0809147
:103C1000872690918826A0918926B0918A26809344
:103C2000FF2790930028A0930128B0930228609169
:103C3000FF2770910028809101289091022803E3CA
:103C400013E323E73FE343E058E2CFDB80912725EE
:103C50009091282590FF07C080914628817080931D
:103C600046280E94674680915520811130C080917E
:103C70005724882389F080910B2090910C20A091EB
:103C80000D20B0910E208093EF279093F027A09302
:103C9000F127B093F2271EC020917B2630917C261D
:103CA00040917D2650917E266091F3277091F427F4
:103CB0008091F5279091F6270E9495576093EF2702
:103CC0007093F0278093F1279093F22703C08150DF
:103CD0008093552010914628123008F458C0C090A7
:103CE000EF27D090F027E090F127F090F227209175
:103CF000C7263091C8264091C9265091CA26C701CF
:103D0000B6010E949E59181674F02091C326309176
:103D1000C4264091C5265091C626C701B6010E940F
:103D2000F95787FF34C080914B2090914C20A0918F
:103D30004D20B0914E200097A105B10599F4812F37
:103D40008170809346280E94674680912725909134
:103D500028258260809327259093282584E08093EE
:103D6000260615C00197A109B10980934B209093B5
:103D70004C20A0934D20B0934E20C297A105B105D1
:103D8000B0F48091DE2581700E946A1410C0809189
:103D9000CB269091CC26A091CD26B091CE268093B3
:103DA0004B2090934C20A0934D20B0934E208091B7
:103DB000462880FF6BC119821A821B821C82909157
:103DC000E726963009F0DAC0833009F0D7C080903A
:103DD000182690901926A0901A26B0901B2620E055
:103DE00030E040EE50E4C501B4010E94F9571816C6
:103DF0000CF4C2C020E030E040EE50ECC501B4014C
:103E00000E949E5987FDB8C0809152209091532006
:103E10009C012F5F3F4F209352203093532060919D
:103E2000F1267091F226660F771F660F771F0E94AA
:103E3000985B892B09F0A2C0E0906425F09065257D
:103E400000916625109167252091602530916125AC
:103E50004091622550916325C501B4010E94FB3950
:103E600069837A838B839C8320E030E040E251E4D5
:103E70006091E9267091EA268091EB269091EC26DC
:103E80000E94FD579B01AC0160E070E080E291E48C
:103E90000E94BA5A6B017C012091ED263091EE26EA
:103EA0004091EF265091F0268091E8268823B9F0C2
:103EB00069817A818B819C810E949457A701960128
:103EC0000E94575A9B01AC0160917B2670917C2621
:103ED00080917D2690917E260E94945714C069811E
:103EE0007A818B819C810E949457A70196010E9440
:103EF000575A20917B2630917C2640917D26509107
:103F00007E260E94955769837A838B839C83C09019
:103F1000C726D090C826E090C926F090CA262981ED
:103F20003A814B815C81C701B6010E94F95787FF36
:103F300004C0C982DA82EB82FC82C090C326D09092
:103F4000C426E090C526F090C62629813A814B818F
:103F50005C81C701B6010E949E59181624F4C982DB
:103F6000DA82EB82FC8269817A818B819C810E945A
:103F7000B13A0E94953B02C01092E72680914828F2
:103F8000882309F483C080914E288F5F80934E2848
:103F900090914D28891708F479C020E030E04AE775
:103FA00054E46091F3277091F4278091F527909164
:103FB000F6270E94575A2091492830914A2840916B
:103FC0004B2850914C280E94575A6B017C0120E0ED
:103FD00030E0A9010E94F95720E030E040E05FE3C3
:103FE00087FF05C0C701B6010E94945704C0C701EE
:103FF000B6010E9495576B017C0120E030E04EEF46
:1040000052E40E949E5918167CF020E030E040E017
:1040100053ECC701B6010E94F95787FD07C0C701DD
:10402000B6010E94965803C06FE701C060E8ECE952
:10403000F7E24FB7F894A081B1816C9380819181B0
:10404000019680839183268137812817390720F4D0
:104050008481958180839183828593856085718534
:104060008617970720F40196828793870CC0828178
:1040700093810196828393832817390720F48481E2
:104080009581828393834FBF10924E28809146285A
:104090008230A1F1833009F083C4409027285090EA
:1040A00028286090292870902A282091592730913B
:1040B0005A2740915B2750915C2760917726709139
:1040C00078268091792690917A260E9495579B01B7
:1040D000AC016091EF277091F0278091F1279091CA
:1040E000F227ACE9AA2EA7E2BA2EBBE9CB2EB6E2A4
:1040F000DB2E830172010E94BA341AC0E090B3260D
:10410000F090B4260091B5261091B6262091AF26E6
:104110003091B0264091B1265091B2266091872609
:10412000709188268091892690918A260E94FB3979
:1041300060938326709384268093852690938626A9
:104140002EDB2EC480911A25811124C020E030E09E
:1041500040E450E460913E2670913F2680914026D5
:10416000909141260E94575A20E030E048E251E405
:104170000E94575A9B01AC0160E070E08AEF92E424
:104180000E94945760931F257093202580932125CA
:10419000909322250E946136609314267093152611
:1041A000809316269093172606E616E626E63FE34A
:1041B00048E156E21AD980912A258C36B1F420E0E4
:1041C00030E040E251E46091142670911526809110
:1041D0001626909117260E94FD576093142670931F
:1041E0001526809316269093172680912A208130D9
:1041F00029F008F4B0C0843068F1ADC0C090142636
:10420000D0901526E0901626F090172627E137EB80
:1042100041ED58E3C701B6010E949E59181634F4C7
:1042200080916C2690916D2601970FC027E137EBA6
:1042300041ED58EBC701B6010E94F95787FF87C0CF
:1042400080916C2690916D26019680936C269093B8
:104250006D2681C020913020609114267091152622
:104260008091162690911726222371F021E0209349
:104270002F2060932B2070932C2080932D209093DF
:104280002E201092302067C006E616E626E63FE3B1
:104290004BE250E2AAD880912F2091E0980F9093A2
:1042A0002F20853608F457C020E030E04AE754E478
:1042B00060912B2070912C2080912D2090912E20A8
:1042C0000E94575A6B017C0160932B2070932C2025
:1042D00080932D2090932E2080912A208230E9F027
:1042E0008330A9F520E030E040E251E460912620DF
:1042F0007091272080912820909129200E94575A60
:10430000A70196010E94FD57609372267093732651
:1043100080937426909375261AC020E030E040E226
:1043200051E460912620709127208091282090915F
:1043300029200E94575AA70196010E94FD576093B9
:104340006E2670936F26809370269093712610923C
:104350002A200E9486320E94F436609300267093D1
:104360000126809302269093032606E616E626E6AB
:104370003FE344E056E239D80E946C376093F82559
:104380007093F9258093FA259093FB2506E616E6AF
:1043900026E63FE34CEF55E228D81091DE25123097
:1043A00098F42AE037ED43E25CE360913E26709199
:1043B0003F2680914026909141260E949E591816D2
:1043C0001CF4812F0E946A148091DE25843018F03D
:1043D00081700E946A14F090DE2521E02F1508F00C
:1043E0007EC00091522610915326043F81E01807A9
:1043F00008F08EC08090FC259090FD25A090FE25B1
:10440000B090FF25209168263091692640916A2658
:1044100050916B2660913E2670913F2680914026F8
:10442000909141260E949557A50194010E94575AE8
:1044300020E030E0A9010E949E5918169CF480915A
:1044400027259091282591608093272590932825F2
:104450008F2D81700E946A1480915A248F5F8093FF
:104460005A248CC0B80180E090E00E94C75820E038
:1044700030E048E451E40E94F957811104C060E043
:1044800070E0CB0114D3809152269091532601966F
:104490008093522690935326843F914001F580915A
:1044A000DE258230A9F410924F20209168263091A9
:1044B000692640916A2650916B2660913E26709144
:1044C0003F2680914026909141260E949557EFD239
:1044D00080E88093050680E48093050661C210920F
:1044E000422610924326109244261092452610929E
:1044F000FC251092FD251092FE251092FF251092AA
:104500000C2610920D2610920E2610920F2648C2ED
:1045100020911B2530911C2540911D2550911E2571
:104520006091302670913126809132269091332609
:104530000E949E59181634F58F2D81700E946A14BE
:10454000809127259091282580628093272590933C
:1045500028258091302690913126A0913226B09165
:1045600033268093382690933926A0933A26B09329
:104570003B2680915B248F5F80935B2484E0809353
:1045800026060EC28090EF279090F027A090F1278A
:10459000B090F22720918225309183254091842587
:1045A00050918525C501B4010E949E59181674F0DA
:1045B00020917E2530917F25409180255091812545
:1045C000C501B4010E94F95787FF0EC08F2D81707D
:1045D0000E946A14809127259091282594608093E9
:1045E000272590932825CACF82E0F81629F023E0EA
:1045F000F21609F459C1D4C1C0904626D09047267E
:10460000E0904826F090492620E030E0A901C7015B
:10461000B6010E949E5990914F20181624F09130B7
:1046200009F031C185C0913009F482C0A0F08090BA
:104630003E2690903F26A0904026B0904126409084
:104640007625509077256090782570907925923066
:1046500009F44CC0BBC08090392590903A25A090B9
:104660003B25B0903C2520917625309177254091CF
:10467000782550917925C501B4010E949E591816DC
:104680000CF052C040903E2650903F26609040264D
:1046900070904126A3019201C501B4010E949E5968
:1046A00018160CF0DDC0A3019201C501B4010E94EF
:1046B00094579B01AC01C701B6010E949E5987FD2A
:1046C00012C080923E2690923F26A0924026B09241
:1046D00041261092462610924726109248261092A4
:1046E000492681E022C0A301920188C0A301920162
:1046F000C501B4010E9494579B01AC01C701B601EA
:104700000E949E5987FD9EC040923E2650923F26B1
:1047100060924026709241261092462610924726BB
:10472000109248261092492683E080934F2098C02B
:10473000B8016F5F7F4F609352267093532680E0DD
:1047400090E00E94C7586B017C0120E030E048EC0B
:1047500052E460913D2570913E2580913F259091D6
:1047600040250E94575A20E030E04AEF53E40E946F
:1047700095579B01AC01C701B6010E949E591816BE
:104780000CF06EC082E080934F202091762530910E
:104790007725409178255091792560913925709140
:1047A0003A2580913B2590913C250E94945720E02A
:1047B00030E048EC52E40E94FD5760934626709327
:1047C000472680934826909349264AC0A301920128
:1047D000C501B4010E94F95787FF15C0A5019401D6
:1047E000C301B2010E9494579B01AC01C701B601FD
:1047F0000E949E5987FF15C0A5019401C701B6010B
:104800000E94955725C0A3019201C501B4010E94E1
:1048100094579B01AC01C701B6010E949E5987FDC8
:1048200011C040923E2650923F26609240267092E0
:104830004126109246261092472610924826109242
:1048400049260EC0A7019601C501B4010E949457E4
:1048500060933E2670933F26809340269093412696
:10486000209168263091692640916A2650916B26E6
:1048700060913E2670913F2680914026909141267E
:104880000E94955714D160913E2670913F268091E9
:1048900040269091412606E616E626E63FE342E4EE
:1048A00056E20E94F5197CC08091DC25882389F0AE
:1048B0008091082690910926A0910A26B0910B2696
:1048C000B0588093082690930926A0930A26B093A7
:1048D0000B2620918625309187254091882550917F
:1048E0008925609108267091092680910A26909169
:1048F0000B26E4E5AE2EE6E2BE2EF6E9CF2EF5E27B
:10490000DF2EE12CF12C87010E94F63860933E26C1
:1049100070933F26809340269093412620916826ED
:104920003091692640916A2650916B26A9CF00915B
:104930000820109109200F3F110509F088F56FEC50
:1049400076E280E0902F0E94B74C000F111F000FFD
:10495000111FF801EA5AFF4D6083718382839383AC
:1049600080910820909109200196809308209093CF
:10497000092081159140A1F460917B2670917C26DD
:1049800080917D2690917E260E94B13A8091552794
:104990009091562780935727909358270E94953BD4
:1049A00080914A208F5F80934A202496CDBFDEBF3E
:1049B000DF91CF911F910F91FF90EF90DF90CF90FB
:1049C000BF90AF909F908F907F906F905F904F902F
:1049D00008957F928F929F92AF92BF92CF92DF9273
:1049E000EF92FF920F931F93CF93DF9300D0CDB739
:1049F000DEB7982E5B01842E752EC12CD12C76014A
:104A000000E412E42FE030E043E060E070E0C50134
:104A10000E94DF4F8FB78B83F894DB8079828A8284
:104A2000F501808180648083092D069506950695A1
:104A3000F0E20F9F800111241A5F892D877021E019
:104A400030E0790101C0EE0C8A95EAF79E2DF8015D
:104A5000E682F80180858923E1F742E050E0BE015B
:104A60006F5F7F4FC5010E940050F801E582F5019C
:104A700090819F7B9083DFBE2396CDBFDEBFDF9109
:104A8000CF911F910F91FF90EF90DF90CF90BF904B
:104A9000AF909F908F907F900895AC0160EC79E08B
:104AA0008AE197CFAC0160EC78E084E192CF20916D
:104AB0002A252C3659F420E03FEF4FE757E40E94B7
:104AC000575A20E030E040EA50E404C020E03FEFD5
:104AD0004FE757E40E94575A20E030E046E153E4A4
:104AE0000E94575A20E030E04AE753E40E94FD5705
:104AF0000E949B58CB01D6CFBF92CF92DF92EF920C
:104B0000FF920F931F93CF93DF93CDB7DEB7259717
:104B1000CDBFDEBF7B0140935D2450935E249CEFAC
:104B200090935F24109260249FB79D83F894BD807A
:104B300090915D2420915E2430915F244091602407
:104B400049833A832B839C83FB01908190649083FB
:104B5000082F069506950695F0E20F9F8001112417
:104B60001A5F877021E030E0690101C0CC0C8A95A2
:104B7000EAF79C2DF801C682F80180858923E1F7C8
:104B800043E050E0BE016E5F7F4FC7010E940050BE
:104B9000F801C582F70190819F7B9083BFBE259667
:104BA000CDBFDEBFDF91CF911F910F91FF90EF90AE
:104BB000DF90CF90BF900895809361240895CF92A5
:104BC000DF92EF92FF920F931F93C12CD12C7601AD
:104BD00000E412E42FE030E042E060E070E080ECBE
:104BE00099E00E94DF4F4FEF5FEF60EC79E08BE1DF
:104BF0001F910F91FF90EF90DF90CF907DCFCF92DC
:104C0000DF92EF92FF920F931F93CF93DF93EC010C
:104C1000C12CD12C760100E412E42FE030E042E018
:104C200060E070E080EC99E00E94DF4FAE0160EC44
:104C300079E08BE1DF91CF911F910F91FF90EF9081
:104C4000DF90CF9059CF882331F082E080936606C1
:104C500000C081E005C081E08093660600C082E06C
:104C60008093650608954F925F926F927F928F9224
:104C70009F92AF92BF92CF92DF92EF92FF920F93EB
:104C80001F93CF93DF93CDB7DEB72597CDBFDEBFA0
:104C90004C015B01742EC12CD12C760100E412E48E
:104CA0002FE030E040E060E070E0C5010E94DF4F9F
:104CB0008FB78D83F8949D818114910409F4CFC03E
:104CC00084E0E6E6F4E2DF011D928A95E9F780913F
:104CD000692487708862809369244091662450918A
:104CE000672460916824709169247F7740936624DB
:104CF00050936724609368247093692470936224AE
:104D0000609363245093642440936524F50180816B
:104D100080648083E72DE695E695E69520E2E29FA4
:104D2000F00111246F018AEFD81A872D877021E0D6
:104D300030E001C0220F8A95EAF7422FD60116967D
:104D40002C93F60180858423E1F742E654E2DE01EC
:104D50001596BE016F5F7F4FFA018191AF01F5019A
:104D60008383412C512C3201F501828187FD0DC0D6
:104D7000F8EE4F16F3E05F0661047104A9F0FFEF4F
:104D80004F1A5F0A6F0A7F0AEFCF88EE481683E05A
:104D900058066104710441F0F50183818E93A617D2
:104DA000B707D1F680E001C08DEFD60115962C93A0
:104DB000811156C039813295369537702A81722F0C
:104DC000770F770F770F472F432B322F329536957A
:104DD00037702B81722F770F770F770F572F532B49
:104DE0002295269527703C81732F770F770F770FC9
:104DF000672F622B6A01E62ECC24E7FCC394DD24E6
:104E0000EE2421E0E32FE07235FF20E02C15B1F015
:104E100070E0E1111EC07F6FE0916A24F0E0EE0FB8
:104E2000FF1FE559FB4D40805180052C000C6608A2
:104E30007708440D551D661D771D0BC066232CF0A9
:104E400041E050E060E87FEF04C04FEF5FEF6FE7B5
:104E500070E0F401408351836283738301C080E07A
:104E6000D5012C912F7B2C939FBF2596CDBFDEBF04
:104E7000DF91CF911F910F91FF90EF90DF90CF9036
:104E8000BF90AF909F908F907F906F905F904F906A
:104E900008954CE160EC79E0E6DE082E000C990BF9
:104EA0000895009729F0FC012081213009F420C0E9
:104EB0008FEF9FEF0895F5CF009749F0FC01208117
:104EC000211105C021E0208381E090E008958FEF5B
:104ED0009FEF0895CF93DF93009729F0EC01ECDF6B
:104EE00022E0298302C08FEF9FEFDF91CF910895D9
:104EF000009761F0FC012081213041F440856781F9
:104F000005960E940C1981E090E008958FEF9FEFC5
:104F10000895CF93DF93009789F0FC012081213021
:104F200069F4EC0184E1808782E08783CF01C3DFED
:104F30008D819E8198278927982702C080E090E084
:104F4000DF91CF91089500000895FC0180818230A7
:104F500099F038F4882369F0813029F520912806EA
:104F600013C0843079F058F08131E9F42091E807DA
:104F70000BC02091080608C02091480605C020916A
:104F8000680602C02091880681E090E0018002C09E
:104F9000880F991F0A94E2F730E082239323892B2C
:104FA00011F084E001C085E00C94571980914125EF
:104FB0000C945719CF93DF931F921F92CDB7DEB792
:104FC00080912725909128259C01306C29833A8374
:104FD0009F73892B11F00E94E21C62E0CE010196C2
:104FE0000E943E190F900F90DF91CF910895CF93BB
:104FF000DF931F921F92CDB7DEB7FC0181819281B2
:105000008095909520912725309128258223932300
:105010008093272590932825906C89839A8362E05A
:10502000CE0101960E943E190F900F90DF91CF9113
:105030000895CF93DF9300D01F92CDB7DEB7809154
:105040007E2590917F25A0918025B091812589832F
:105050009A83AB83BC8364E0CE0101960E943E1923
:105060002496CDBFDEBFDF91CF910895CF93DF931C
:1050700000D01F92CDB7DEB7809182259091832515
:10508000A0918425B091852589839A83AB83BC83C5
:1050900064E0CE0101960E943E192496CDBFDEBF8A
:1050A000DF91CF9108950F931F93CF93DF9300D09B
:1050B0001F92CDB7DEB78C0120E030E04AE754E420
:1050C000609135257091362580913725909138254E
:1050D0000E94575A69837A838B839C83F80180816D
:1050E0009181863E904C31F464E0CE0101960E949D
:1050F0003E1903C083E00E9457192496CDBFDEBF3E
:10510000DF91CF911F910F9108950F931F93CF932C
:10511000DF9300D01F92CDB7DEB78C0120E030E0E6
:105120004AE754E46091312570913225809133250E
:10513000909134250E94575A69837A838B839C838C
:10514000F80180819181863E904C31F464E0CE017B
:1051500001960E943E1903C083E00E9457192496CD
:10516000CDBFDEBFDF91CF911F910F9108950F93B7
:105170001F93CF93DF9300D01F92CDB7DEB78C0182
:1051800020E030E04AE754E46091392570913A25F7
:1051900080913B2590913C250E94575A69837A83E0
:1051A0008B839C83F80180819181863E904C31F401
:1051B00064E0CE0101960E943E1903C083E00E9484
:1051C00057192496CDBFDEBFDF91CF911F910F916C
:1051D000089562E082E495E20C943E19CF92DF924A
:1051E000EF92FF920F931F93CF93DF93FC01018106
:1051F0001281D381C48120E030E040E85FE3609118
:1052000082257091832580918425909185250E9427
:1052100094576B017C019B01AC01B8018D2F9C2F31
:105220000E949E5918161CF48601DE2DCF2D20E019
:1052300030E040EA51ECB8018D2F9C2F0E94F957C5
:1052400087FF04C000E010E0D0EAC1EC4FEC56E26A
:10525000B8018D2F9C2F0E94524B6FEC76E20E947A
:10526000B74C60937E2570937F2580938025909323
:105270008125C0907B26D0907C26E0907D26F09002
:105280007E26A70196010E949E59181644F4C092EA
:105290007E25D0927F25E0928025F092812564E0E2
:1052A0008EE795E20E943E19DF91CF911F910F91F9
:1052B000FF90EF90DF90CF900C949832CF92DF92D6
:1052C000EF92FF920F931F93CF93DF93FC01018125
:1052D0001281D381C48120E030E040E85FE3609137
:1052E0007E2570917F2580918025909181250E9457
:1052F00095576B017C019B01AC01B8018D2F9C2F50
:105300000E94F95787FF03C08601DE2DCF2D20E0D4
:1053100030E04CE852E4B8018D2F9C2F0E949E593A
:10532000181624F400E010E0DCE8C2E44FEC56E28A
:10533000B8018D2F9C2F0E94524B6FEC76E20E9499
:10534000B74C609382257093832580938425909336
:105350008525C0907B26D0907C26E0907D26F0901D
:105360007E26A70196010E94F95787FF08C0C092C8
:105370008225D0928325E0928425F092852564E0F1
:1053800082E895E20E943E19DF91CF911F910F9123
:10539000FF90EF90DF90CF900C949832CF93DF93F3
:1053A000CDB7DEB76097CDBFDEBFFC019081218114
:1053B000628173816D877E87188A9A3009F471C182
:1053C00020F5943009F493C068F4913009F486C054
:1053D00008F470C0923009F488C0933009F0DBC142
:1053E0008FE0DAC1973009F4A7C038F4953009F49A
:1053F00082C0963009F483C0CEC1983009F4D6C07B
:10540000993009F0C8C181E049C1933309F490C1D2
:1054100088F49C3009F475C108F463C19D3009F427
:1054200079C1923309F0B7C162E0CE010D960E94B6
:105430003E197DC1963309F496C138F5943309F4C9
:105440008CC1953309F0A7C180912725909128251B
:105450008E7F809327259093282580E880930506EA
:1054600080E4809305066091762570917725809180
:1054700078259091792560933E2670933F268093FE
:1054800040269093412613DB88C1973309F480C1ED
:10549000933609F080C140E068E0CE0101960E9499
:1054A00068190E940F5140E068E0CE0101960E9409
:1054B0009D1973C1223061F018F4213049F00BC0FE
:1054C000233031F0243039F484E08093582465C1CE
:1054D0002093582462C1109258245FC185E0888BC4
:1054E00080E880930506000003C08AE055C180E88B
:1054F0008093060652C180E8809305064EC1223093
:1055000049F02330B1F0213009F047C1862F0E94C5
:105510004B153BC10E94613669877A878B879C87D0
:1055200069857A858B859C850E949B586D877E87CF
:1055300034C10E94DB3729C1213041F028F02230EC
:1055400009F02BC182E02FC0862FA8C06230710500
:1055500088F080E090E0AAE7B4E4809382259093FD
:105560008325A0938425B093852580E090E0AAE769
:10557000B4EC10C080E090E0A0EFB1E4809382250D
:1055800090938325A0938425B093852580E090E0B7
:10559000A0E2B1E480937E2590937F25A09380259F
:1055A000B0938125862F0E946A14F7C08CEE91E596
:1055B000A8EBBFE380939F269093A026A093A126FB
:1055C000B093A2268FE195E8ABEEBDE38093A326CE
:1055D0009093A426A093A526B093A6268FE892ECDC
:1055E000A5EFBCE38093A7269093A826A093A926B5
:1055F000B093AA2681E080935F27809360278093F1
:1056000061274FEC56E260E070E0CB010E94524B04
:105610006FEC76E20E94B74C6093C3267093C42669
:105620008093C5269093C6264FEC56E260E070E06A
:1056300088E492E40E94524B6FEC76E20E94B74CF1
:105640006093C7267093C8268093C9269093CA2674
:1056500040E06CE977E28BE996E20E9430336D8599
:105660007E8580E090E00E94C7580E94B13A809108
:1056700055279091562780935727909358270E943B
:10568000953B80E090E0AAEFB3E48093B32690933B
:10569000B426A093B526B093B62683E00E94674651
:1056A0007CC080E8222331F08093050680E480935B
:1056B000050607C08093060680E4809306061D86D3
:1056C0001E868D859E858130904520F080E090E596
:1056D0008D879E874D855E8560EC78E084E179D981
:1056E0005CC00E9461360E949B58688B0E94F43611
:1056F0000E949B58688B0E946C370E949B58688B55
:105700004CC0222321F081E08093572446C01092A0
:10571000572443C080E090E00E94C75860930B205C
:1057200070930C2080930D2090930E2036C0FFCFF5
:1057300062E0CE010D960E943E1960E070E080E0CC
:105740000E94121981E0809381068093860682E090
:10575000809381068093860620C08091A8048F7C68
:105760008093A80421C0211103C081E090E007C00C
:105770002B3008F02AE039E1239FC00111248093E7
:10578000F1269093F226822F90E08D879E8705C0A8
:1057900080916124F9CF8AE2888B88898F8762E0C3
:1057A000CE010D960E943E196096CDBFDEBFDF91FF
:1057B000CF910895CF93DF93FC012081D1812130D7
:1057C00041F08D2F0E9467468D2FDF91CF910C9471
:1057D0005719CD2FD430C0F78091DE25C817A1F31B
:1057E0008091480682FD03C0C23008F0C1708C2F42
:1057F0000E946A1480E88C0FE8CFFC0180819181BF
:10580000863E904C29F464E08DE395E20C943E19B9
:1058100083E00C945719CF92DF92EF92FF92CF93CF
:10582000DF93FC0120813181263E304C09F068C0B5
:10583000EC0140E06BE189E295E20E946819CA80C0
:10584000DB80EC80FD8020E030E040E85FEBC701CA
:10585000B6010E94F95781110DC080E090E0A0E8E8
:10586000BFEB8093392590933A25A0933B25B093C5
:105870003C253EC020E030E04AE754E4C701B601D1
:105880000E94FD576B017C0123E333E343ED5FE3AB
:105890000E949E5918164CF0C0923925D0923A2594
:1058A000E0923B25F0923C250CC083E393E3A3ED0B
:1058B000BFE38093392590933A25A0933B25B0937D
:1058C0003C2520E030E0A9016091392570913A250E
:1058D00080913B2590913C250E94F95787FF08C095
:1058E0001092392510923A2510923B2510923C25B2
:1058F00040E06BE189E295E20E949D1980E001C0E1
:1059000083E0DF91CF91FF90EF90DF90CF900C94E8
:105910005719CF92DF92EF92FF92CF93DF93FC0162
:1059200020813181263E304C09F04EC0EC0140E030
:105930006BE189E295E20E946819CA80DB80EC8005
:10594000FD8020E030E040EA50E4C701B6010E944B
:105950009E5918164CF0C0923D25D0923E25E092FB
:105960003F25F09240250CC080E090E0A0EAB0E432
:1059700080933D2590933E25A0933F25B0934025ED
:1059800020E030E040E05FE360913D2570913E25EE
:1059900080913F25909140250E94F95787FF0CC0C8
:1059A00080E090E0A0E0BFE380933D2590933E250A
:1059B000A0933F25B093402540E06BE189E295E25A
:1059C0000E949D1980E001C083E0DF91CF91FF909C
:1059D000EF90DF90CF900C945719CF93DF93FC0199
:1059E00020813181263E304CC1F4EC0140E06BE176
:1059F00089E295E20E9468198A81809341258B8112
:105A00009C81809342259093432540E06BE189E29D
:105A100095E20E949D1980E001C083E0DF91CF9163
:105A20000C945719CF92DF92EF92FF920F931F932E
:105A3000CF93DF93FC0120813181263E304C09F069
:105A4000B3C0EC0140E06BE189E295E20E94681985
:105A500020E030E04AE754E46A817B818C819D81BB
:105A60000E94FD5760933525709336258093372526
:105A70009093382520912A252C3669F423EC35EFB4
:105A800048EA5EE30E949E591816CCF483EC95EF29
:105A9000A8EABEE30CC023E333E343ED5FE30E94D7
:105AA0009E59181664F483E393E3A3EDBFE3809358
:105AB000352590933625A0933725B093382540E0BF
:105AC0006BE189E295E20E949D1980E00E945719DE
:105AD000E0903525F0903625009137251091382536
