:020000040800F2
:100000000000052005E10C0811720208697202085F
:1000100081720208837202088572020800000000E3
:1000200000000000000000000000000087720208CD
:100030008B72020800000000897202088D720208AB
:1000400055E10C0855E10C0855E10C0855E10C0888
:1000500055E10C0855E10C08A1710208DD72020897
:100060006D7302087573020855E10C0855E10C0820
:1000700055E10C0855E10C0855E10C0855E10C0858
:1000800089DC010899DC010855E10C0855E10C08F0
:1000900055E10C0855E10C0855E10C08E97202081D
:1000A00055E10C0855E10C0855E10C0855E10C0828
:1000B0009D72020855E10C0855E10C08E5DB0108CA
:1000C000F5DB010855E10C0855E10C0855E10C0879
:1000D00055E10C0855E10C0855E10C0855E10C08F8
:1000E0002173020855E10C0855E10C0855E10C0894
:1000F00055E10C0855E10C0855E10C0855E10C08D8
:1001000055E10C0855E10C0855E10C0855E10C08C7
:1001100055E10C0855E10C0855E10C0855E10C08B7
:1001200055E10C0855E10C0855E10C0855E10C08A7
:1001300055E10C0855E10C0855E10C0855E10C0897
:1001400055E10C0855E10C0855E10C08AD720208A8
:1001500055E10C0855E10C0855E10C0855E10C0877
:10016000BD720208CD72020855E10C0855E10C0879
:1001700055E10C0855E10C0855E10C0800000000A1
:1001800055E10C0855E10C0855E10C0855E10C0847
:1001900055E10C0855E10C0855E10C0855E10C0837
:1001A000516D020855E10C087D71020855E10C08FB
:0401B00055E10C0801
:1001C00010B5054C237833B9044B13B10448AFF391
:1001D00000800123237010BD740600200000000081
:1001E00098520D0808B5034B1BB103490348AFF300
:1001F000008008BD000000007806002098520D081D
:1002000010B4002460F3070461F30F2462F3174471
:1002100063F31F6483B0204603B05DF8044B70475E
:1002200030B4CBB2C5B2ED1A25EAE575C1F30723A8
:10023000C0F30722EDB20024D21A65F30704C0F31D
:100240000743C1F307455B1B22EAE272090ED2B2F3
:10025000C1EB106123EAE37362F30F24DBB221EAFE
:10026000E17163F31744C9B261F31F6484B020469F
:1002700004B030BC704700BF30B4CDB255FA80F541
:10028000FF2DA8BFFF25C1F30723C0F30722EDB25E
:1002900000241A4465F30704C0F30743C1F307457C
:1002A0002B44FF2A4FEA116101EB1061A8BFFF2226
:1002B000FF2BD2B2A8BFFF23FF2962F30F24DBB2CA
:1002C000A8BFFF2163F31744C9B261F31F6484B070
:1002D000204604B030BC70470B0EF0B4C3F1FF06EB
:1002E000C5B2CFB206FB05F5C0F30724214A07FBD0
:1002F000035506FB04F4C1F3072707FB0344C0F3CF
:100300000747C1F30741A2FB05C506FB07F7000E2F
:1003100001FB0373ED09A2FB0414C0F1FF0006FB0F
:1003200000F0FF2D4FEAD414A2FB03134FEAD313BE
:1003300082FB0012A8BFFF25FF2C02EB0001EDB2EB
:10034000A8BFFF24C217FF2B4FF00000E4B2A8BFE4
:10035000FF23A2EBE11265F30700DBB264F30F2089
:10036000013AD2B263F3174084B062F31F6004B065
:10037000F0BC70478180808030B481F30801164D55
:10038000C3B201FB03F3A5FB0343C0F30722C3F38E
:10039000C713002401FB02F263F30704C0F3074311
:1003A000A5FB02C201FB03F3000EC2F3C712A5FBBB
:1003B00003C301FB00F162F30F24C3F3C713A5FBD2
:1003C000012163F31744C1F3C71161F31F6484B0C3
:1003D000204604B030BC704781808080FF2930B453
:1003E00028BFFF21164DC3B201FB03F3A5FB034356
:1003F000C0F30722C3F3C713002401FB02F263F327
:100400000704C0F30743A5FB02C201FB03F3000E80
:10041000C2F3C712A5FB03C301FB00F162F30F2473
:10042000C3F3C713A5FB012163F31744C1F3C7113D
:1004300061F31F6484B0204604B030BC704700BF35
:100440008180808084B001908DF80410019B002091
:10045000DAB262F30700C3F3072262F30F20C3F39B
:10046000074262F317401B0E63F31F6004B070472E
:1004700084B001908DF80510019B0020DAB262F380
:100480000700C3F3072262F30F20C3F3074262F3AE
:1004900017401B0E63F31F6004B0704784B00190D7
:1004A0008DF80610019B0020DAB262F30700C3F357
:1004B000072262F30F20C3F3074262F317401B0EBB
:1004C00063F31F6004B0704784B001908DF807108B
:1004D000019B0020DAB262F30700C3F3072262F344
:1004E0000F20C3F3074262F317401B0E63F31F6034
:1004F00004B07047C2B2CBB282B09A42CDE90010CC
:1005000002D0012002B070479DF805209DF801300F
:100510009A42F6D19DF806209DF802309A42F0D119
:100520009DF807009DF80330C01A18BF0120E9E7C5
:1005300000B5082183B001F0C7FA43680020DAB2A1
:1005400062F30700C3F3072262F30F20C3F30742ED
:1005500062F317401B0E63F31F6003B05DF804FBEA
:10056000B0B10388A3B170B50A4E0B4D841C02E0F4
:1005700034F8023B5BB1A3F120025F2A19462846FA
:1005800084BF1946304626F0EFF9002CF0D170BD3B
:10059000704700BF709818086C9818080FB42DE9C0
:1005A000F04385B00CAB9B4853F8044B9A4DDFF8F1
:1005B000B0929A4E039326F0D7F90021234601E02A
:1005C000252A0CD01C4613F8012B002AF8D1944898
:1005D00026F0CAF905B0BDE8F04304B07047002921
:1005E00068D16378243B0234512B61D8DFE813F0E3
:1005F0008500600077006000600060006B006000B4
:1006000060006000600060006600600060006000E4
:1006100060006000600060006000600060006000DA
:1006200060006000600060006000600060006000CA
:1006300060006000600060006000600060006000BA
:1006400060006000600060006000600060006000AA
:10065000600060006000600060006000600060009A
:100660006000600052006000600060004A013A01D2
:1006700060000A01FD00F500ED00E500600060008B
:10068000DD0060006000C900C0006000AF00A00095
:10069000980090000398026800F10C0303936AB17C
:1006A000116843688068096800905E4826F05CF92C
:1006B000012183E7284626F057F992E75A4826F0A9
:1006C00053F901217AE7039B1A6804330393002A44
:1006D000F4D013685548196826F046F9E8E7039BFB
:1006E0001A6803F108010391002AE7D011685B68DA
:1006F00009684F4826F038F9DAE7039B1A68043393
:100700000393002ADAD011684A4826F02DF9CFE782
:10071000039B494819680433039326F025F9C7E77A
:10072000039B464819680433039326F01DF9BFE77D
:10073000039BD3F800801A1D3046039226F014F96B
:100740004046FFF70DFF304626F00EF9B0E7DDF822
:100750000CC03B48DCF80C70DCF80010DCE901232D
:100760000CF1100C0097CDF80CC026F0FDF89FE7B7
:10077000039B3448D3E900120833039326F0F4F8BE
:1007800096E7DDF80CC030489CF803E09CF8023096
:100790009CF801209CF80010CDF800E00CF1040C4E
:1007A000CDF80CC026F0E0F882E7039B27481968D3
:1007B0000433039326F0D8F87AE7039B244819689A
:1007C0000433039326F0D0F872E7039B48461A1DC2
:1007D0001968039226F0C8F86AE7039B1D48196858
:1007E0000433039326F0C0F862E7039B1A480733EB
:1007F00023F0070303F10801D3E90023039126F056
:10080000B3F855E7039B154819680433039326F0A2
:10081000ABF84DE778981808006D1808E0751808CF
:100820002C6B1808109918089C98180844991808F7
:1008300050991808106B1808A86E18089098180896
:10084000E0981808D8981808C4981808F09818085C
:100850008098180800991808406E1808849818089D
:100860007C991808039B1968A1F1200080B25F28C9
:1008700003F1040389B294BF09480A48039326F0A0
:1008800073F815E7039B1A68043303931AB10648FB
:1008900026F06AF80CE7054826F066F808E700BF7E
:1008A000B4981808BC981808A4981808AC981808A8
:1008B00008B5FFF755FEBDE8084026F067B800BF51
:1008C000034A416000230260C0E90233704700BF61
:1008D00038611808704700BF406840B1044BC268D7
:1008E0001B689A4203D00268C360D36918477047F7
:1008F0004C420020704700BF70B50E46054648B315
:10090000E86826F01DF80446A8B1E968204626F0FC
:100910005DF832462B69204600219847154BE9685F
:100920005D68A560D3E9020201440132C3E9021205
:100930005C60204670BD40F273220F490F4826F0DC
:1009400013F80F4826F010F80E4826F00DF826F0A0
:100950001DF8DAE74FF41B720749084826F004F83F
:10096000094826F001F8074825F0FEFF26F00EF8AA
:10097000C6E700BF4C4200208C99180898991808C7
:10098000C89918082C6B1808B09918082DE9F84375
:10099000D0F800C0254B1D68DCF80830002783B173
:1009A0005E6876B11C6874B32C4204D02BE02C42F4
:1009B00003F1080324D19C681E46002CF7D1DE68A1
:1009C0000EBBDFB1DCF804300446F868D3F80C90B5
:1009D00090460E4625F0B4FF0546B8B1F9682846A2
:1009E00025F0F4FF424631463B6944F80950204661
:1009F00098470F4AFB6891680B449360BDE8F88301
:100A0000F668002EDDD0B3683746C8E74FF435727C
:100A10000849094825F0A8FF084825F0A5FF08481F
:100A200025F0A2FF25F0B2FFD8E700BF8C420020DE
:100A30004C4200208C99180898991808C8991808F1
:100A40002C6B18080268526870B5D56842596AB1B3
:100A50001168074ACE68936889699B1B04469360B6
:100A60008847605925F076FF0023635170BD00BFB1
:100A70004C420020F0B50E4683B0054690B1836825
:100A800005687BB1364A11681A681AB904E053F850
:100A9000082F0AB10A42FAD05A681AB19368156849
:100AA000002BF1D12F4F3B6953B15A68954204D1C5
:100AB00021E06268AA4221D023461C68002CF8D1AC
:100AC0000C2025F03DFF0446002839D0BB683A6968
:100AD00065600C33BB6000232260A3603C61002191
:100AE0003046FFF709FF2B6801909847019AA260F2
:100AF000104603B0F0BD1C4607F11003A268216840
:100B000019602AB13B69236010463C6103B0F0BD17
:100B100040F259321449154825F026FF2946144859
:100B200025F022FF134825F01FFF25F02FFFA268B4
:100B30003B6923603C61002AD1D0104603B0F0BD70
:100B400040F262320849094825F00EFF0A4825F0B4
:100B50000BFF084825F008FF25F018FFB6E700BF97
:100B60008C4200204C4200208C9918089899180853
:100B7000F49918082C6B1808FC9D180838B5054620
:100B80000C4649B135B1286810B904E0406810B18D
:100B90008442FBD1284638BD40F2A53206490748B9
:100BA00025F0E2FE064825F0DFFE064825F0DCFED3
:100BB00025F0ECFEE6E700BF8C9918089899180814
:100BC000B09918082C6B180851B148B1884207D069
:100BD000436823B1994204D05B68002BFAD11846D0
:100BE0007047704700B10068704700BF98B138B5D2
:100BF00005460C2025F0A4FE044668B10E4BA56006
:100C00005A6922600021616002B154609A685C6197
:100C10000C329A6038BD704740F2324207490848AA
:100C200025F0A2FE074825F09FFE074825F09CFE10
:100C300025F0ACFEE2E700BF4C4200208C9918087A
:100C400098991808409A18082C6B1808002831D079
:100C500038B51A4D0446686948B183689C4203D18F
:100C600017E08368A34214D000680028F9D140F24D
:100C70006B421349134825F077FE2146124825F0B0
:100C800073FE124825F070FE25F080FE00231B68DD
:100C9000FFDED0E900230AB1536043685BB11A60FC
:100CA0000023C0E90033836025F054FEAB680C3BA1
:100CB000AB6038BD70476A61F2E700BF4C4200206C
:100CC0008C99180898991808689A18082C6B1808B5
:100CD00070B50B4E05460C4614F1FF340FD355F892
:100CE000043B1846002BF7D03268D9689142F3D004
:100CF0001968DA60CB69984714F1FF34EFD270BD00
:100D00004C420020F8B5334C2368666901332360F8
:100D1000002E5BD03546A86838B1C2689A4204D02C
:100D20000268C360D369984723682D68002DF2D10B
:100D3000184601F07DF92068274D01F0B3F92068CD
:100D400001F0C6F92768236983B19A681968002AF7
:100D50002FD0D268974218462BD0296025F0FAFD93
:100D6000A2682B680C3AA260002BEED165681B4F7D
:100D70002846D5B1EA682368D5F808C09A421BD046
:100D80002968A268D1F80CE0E3688969C7F800C057
:100D9000A2EB0E02013BC4E902238847284625F056
:100DA000D9FD3D682846002DE4D101F009FD3EB192
:100DB000F8BD1D460B46C7E705F108076546D7E7AE
:100DC00002F03CF9BDE8F84001F016B801F048F92E
:100DD0002368ADE74C4200205C42002050420020D6
:100DE000054B10B55C6834B1236820465B699847B1
:100DF000A468002CF8D110BD4C4200202DE9F0472A
:100E00006B4D002840D1D5E90841A868EB69AA6A72
:100E100003441C440C44EB6A66481444A342B8BF24
:100E2000EC6225F0A1FDD5E90212634825F09CFD96
:100E30002A6B296A614825F097FD696A604825F0A8
:100E400093FDA96A002902DD5E4825F08DFDE96960
:100E5000002902DD5C4825F087FD2146EA6A5B48EF
:100E600025F082FD534825F07FFDAC6944B1204652
:100E7000246825F06FFDEB69103BEB61002CF6D187
:100E80000023AB61BDE8F0876F68AE69002F2BD0FF
:100E9000DFF84091DFF84081DFF840A13A6856B1B1
:100EA000B3689A42344603D153E0A3689A4250D0C3
:100EB0002468002CF9D1102025F042FD04460028BA
:100EC00066D03A68AB69A26000222360E26062608B
:100ED00003B15C60EB69AC611033EB612646012322
:100EE000BF68E360002FD9D14FF0000C002E49D02D
:100EF00033460127D3E9002199B1CC68D8688442F0
:100F00000FDA0A601A68002A3AD051605A685168AC
:100F1000C3E9002153605968002700292AD00B60DB
:100F20001A680AB11346E5E7002FDFD0BCF1000FC5
:100F300000D0AE61AC69002C3FF465AF244ED4E91B
:100F4000023130461A6825F00FFD2468002CF6D1D6
:100F500059E7E368616801330029C1D022680A605B
:100F6000226802B15160002226606260AC61746048
:100F70002646B5E71E460F464FF0010C1346B9E76B
:100F80000A46C4E7BCF1000F3FF43DAFAE613AE75B
:100F900040F207124946404625F0E6FC504625F04F
:100FA000E3FC044825F0E0FC25F0F0FC89E700BFF5
:100FB0004C4200202C6B1808B09A1808D89A1808D0
:100FC000FC9A1808449B1808909B1808BC9B1808AA
:100FD000909A18088C99180898991808FC9D180878
:100FE000C0E90012704700BF10B485B06C460DF127
:100FF000100C84E80C000CE90300009B029A9A4252
:1010000004D0012005B05DF8044B70470398019BA4
:10101000C01A18BF012005B05DF8044B704700BF2F
:1010200082B030B482B002AC04E90600DDE90021F0
:10103000069D0593491BD31AC0E9003102B030BCAC
:1010400002B0704782B030B482B002AC04E906004E
:10105000DDE900250699059329441344C0E90031D0
:1010600002B030BC02B0704782B002AB03E90600A8
:10107000DDE9003252425B42C0E9003202B0704703
:1010800010B483B06C4684E806000093034694E8ED
:10109000030083E80500184603B05DF8044B704771
:1010A00010B483B06C4684E806000193034694E8CC
:1010B000030083E80300184603B05DF8044B704753
:1010C0000B4610B50C210446184600F0FDFC043018
:1010D00003C884E80300204610BD00BF30B4029D61
:1010E000C0E90012C0E9023530BC704782B070B46C
:1010F00083B06E4686E8060006AD044696E8030017
:1011000045F8043F84E8050095E8030004F108036E
:1011100083E80300204603B070BC02B0704700BFF4
:1011200084B00DF1100C0CE90F00049B009A9A4258
:1011300002D0012004B07047019A059B9A42F8D171
:10114000029A069B9A42F4D10398079BC01A18BFD3
:101150000120EFE784B00DF1100C0CE90F00049BA7
:10116000009A9A420DDC029A9A420ADD059B019A86
:101170009A4206DC03989842D4BF0020012004B0B4
:101180007047002004B0704784B00DF1100C0CE9DA
:101190000F00029A009B9A4207DD0398019B984238
:1011A000CCBF0020012004B07047012004B070477C
:1011B00084B0F0B405AC84E80E000A99099A069E42
:1011C000059C089F079D761AA41A39442A44466054
:1011D0000460F0BCC160826004B0704784B0F0B4B9
:1011E00005AC84E80E000C46DDE90612DDE9083C9A
:1011F0009442DDE90A76A4BF002214469942A4BFB6
:10120000002319460C9DB445A4BF0026B446AF4246
:10121000A4BF00252F466445B8BF6446B242A8BFAC
:101220003246B942B8BF3946AB42A8BF2B469442BA
:10123000A4BF002214469942A4BF00231946C0E966
:101240000041F0BCC0E9022304B0704784B0F0B4A0
:1012500005AC84E80E00DDE90643DDE90827994284
:10126000DDE90AC5A4BF002319469442A8BF0022A5
:101270000C9EA8BF1446AF42A4BF00252F46B4451C
:10128000A4BF0026B446994220D094421ED0AF425B
:1012900015D0B44513D0B942A8BF3946AB42B8BF48
:1012A0002B466445A8BF6446B242B8BF3246994255
:1012B000A4BF002319469442A4BF00221446C0E9EB
:1012C0000014F0BCC0E9023204B07047C0E9007CF1
:1012D000C0E90256F0BC04B0704700BF84B0F0B45F
:1012E00005AC84E80E00DDE90643DDE908279942F4
:1012F000DDE90AC5A4BF002319469442A8BF002215
:101300000C9EA8BF1446AF42A4BF00252F46B4458B
:10131000A4BF0026B446994220D094421ED0AF42CA
:1013200015D0B44513D0B942B8BF3946AB42A8BFB7
:101330002B466445B8BF6446B242A8BF32469942C4
:10134000A4BF002319469442A4BF00221446C0E95A
:101350000014F0BCC0E9023204B07047C0E9007C60
:10136000C0E90256F0BC04B0704700BF84B0F0B4CE
:1013700005AC84E80E00099F0A9E079D089A0C465A
:101380000699ED1BE41B891B921B8560C0E9004197
:10139000F0BCC26004B0704784B0F0B405AC84E81F
:1013A0000E00099F0A9A079E089D0C4606993E4426
:1013B0003C44114486602A44C0E90041F0BCC2604C
:1013C00004B0704784B00DF1100C0CE90F000398C5
:1013D000019BC01A04B0704784B00DF1100C0CE9E9
:1013E0000F000298009BC01A04B0704784B00DF142
:1013F000100C0CE90F0002980099039B019A401A07
:101400009B1A03FB00F004B0704700BF84B030B4F7
:1014100003AC84E80E00DDE90453069A0C46521B27
:101420001B1B30BCC0E9003204B0704784B030B43C
:1014300003AC84E80E00DDE90354DDE90512121B5C
:101440000024491BC0E9004430BCC0E9021204B0CA
:10145000704700BF84B030B403AC84E80E000C4683
:10146000DDE90412121B02EBD272069B04EB62024E
:1014700030BC5B1A03EBD37301EB6303C0E90023B9
:1014800004B0704784B030B403AC84E80E00089D0B
:10149000049A0B4607992A440B44CDE905320546C8
:1014A00094E80F0085E80F00284630BC04B0704770
:1014B00084B070B404AC84E80E00099D059B089EBE
:1014C0000A46DDE90614EB1AB21A2344C0E90065A6
:1014D00070BC0A448260C36004B0704784B030B40A
:1014E00003AC84E80E00079B0393054694E80F00C5
:1014F00085E80F00284630BC04B0704784B030B493
:1015000003AC84E80E00079B0493054694E80F00A3
:1015100085E80F00284630BC04B0704784B030B472
:1015200003AC84E80E00079B0593054694E80F0082
:1015300085E80F00284630BC04B0704784B030B452
:1015400003AC84E80E00079B0693054694E80F0061
:1015500085E80F00284630BC04B0704784B030B432
:1015600003AC84E80E00079A0B4613440593054626
:1015700094E80F0085E80F00284630BC04B070479F
:1015800084B030B403AC84E80E00079A049B134483
:101590000693054694E80F0085E80F00284630BC06
:1015A00004B0704784B070B404AC08AE054684E85B
:1015B0000E0096E8030084E8030094E80F0085E835
:1015C0000F00284670BC04B0704700BF84B070B4F0
:1015D00004AC08AE84E80E00054696E8030006ABAE
:1015E00083E8030094E80F0085E80F00284670BCEC
:1015F00004B070470B4610B514210446184600F09D
:1016000063FA04300FC884E80F00204610BD00BF05
:1016100010B4C0E9001283605DF8044B704700BF4E
:10162000A9B170B50A4E4D1E00F10C0454F80C3CE3
:10163000013D0C3418463BB13268D968914203D061
:101640001968DA60CB6998476B1CEFD170BD7047A1
:101650004C42002082B084B00DF1100C0CE9070060
:10166000019A05939A4203D0012004B002B070475A
:10167000029A069B9A42F7D10398079BC01A18BF9B
:10168000012004B002B0704784B004AB03E9070046
:10169000DDE9010304B0184784B004AB03E9070097
:1016A000DDE9010304B0184784B004AB03E9070087
:1016B000DDE9010304B0184784B004AB03E9070077
:1016C000DDE9010304B0184784B004AB03E9070067
:1016D000DDE9010304B0184784B004AB03E9070057
:1016E000DDE9010304B0184784B004AB03E9070047
:1016F000DDE9010304B0184784B004AB03E9070037
:10170000DDE9010304B0184784B004AB03E9070026
:10171000DDE9010304B0184784B004AB03E9070016
:10172000DDE9010304B0184710B584B004AC04E946
:101730000E00DDE9011304469847204604B010BDB1
:1017400010B584B004AC04E90E00DDE901130446D1
:101750009847204604B010BD86B001AB83E807006F
:10176000029B06B0184700BF84B004AB03E9070032
:10177000DDE9010304B0184784B004AB03E90700B6
:10178000DDE9010304B0184784B004AB03E90700A6
:10179000DDE9010304B0184710B584B004AC04E9D6
:1017A0000E00DDE9011304469847204604B010BD41
:1017B00084B004AB03E90700DDE9010304B0184776
:1017C00084B004AB03E90700DDE9010304B0184766
:1017D00084B004AB03E90700DDE9010304B0184756
:1017E00084B00DF1100C0CE9070019460198039B19
:1017F00004B0184784B00DF1100C0CE9070019462D
:101800000198039B04B0184784B00DF1100C0CE94B
:10181000070019460198039B04B0184784B00DF1E6
:10182000100C0CE9070019460198039B04B01847F7
:1018300084B00DF1100C0CE9070019460198039BC8
:1018400004B0184784B00DF1100C0CE907001946DC
:101850000198039B04B0184784B00DF1100C0CE9FB
:10186000070019460198039B04B0184784B004ABE5
:1018700003E907000198039B04B0184784B00DF1F9
:10188000100C0CE9070019460198039B04B0184797
:1018900084B00DF1100C0CE9070019460198039B68
:1018A00004B0184782B030B486B008AC01AD44F83B
:1018B000043F85E8070094E8030004AB83E80300D5
:1018C00093E806000198039B06B030BC02B01847AD
:1018D00082B030B488B00AAC01AD44F8043F85E86A
:1018E000070094E80F0004AC84E80F00079B0C93FA
:1018F00094E80E00039C0198A44608B030BC02B0E6
:10190000604700BF84B00DF1100C0CE90700009394
:1019100019460198039B04B0184700BF84B00DF12D
:10192000100C0CE9070019460198039B04B01847F6
:1019300084B00DF1100C0CE9070019460198039BC7
:1019400004B0184784B00DF1100C0CE907001946DB
:101950000198039B04B0184782B030B486B008AC3D
:1019600001AD44F8043F85E8070094E8030004ABA8
:1019700083E8030093E806000198039B06B030BC9F
:1019800002B0184784B00DF1100C0CE9070019469D
:101990000198039B04B0184784B00DF1100C0CE9BA
:1019A000070019460198039B04B0184784B00DF155
:1019B000100C0CE9070019460198039B04B0184766
:1019C000B8B1B1B170B5044610200E4624F0B8FF8E
:1019D000054678B10E49EC600B68AE600022C5E99F
:1019E000003203B15D600B4A0D6013681033136061
:1019F00070BD70479C220849084824F0B5FF08488C
:101A000024F0B2FF074824F0AFFF24F0BFFFE1E766
:101A10008442002070420020E89B1808989918081A
:101A2000F89B18082C6B180800B310B5114C2368EC
:101A30004BB1DA68904203D106E0DA68824203D003
:101A40001B68002BF9D110BDD3E9001209B14A601F
:101A50005A6862B111600022C3E90022184624F0DE
:101A600079FF054A1368103B136010BD7047216071
:101A7000F1E700BF8442002070420020014B58680B
:101A8000704700BF84420020034B5A68824202D054
:101A90005860FFF7A5B9704784420020014B986851
:101AA000704700BF84420020014B9860704700BF20
:101AB0008442002029B131EA00030CBF012000203C
:101AC00070470846704700BFF0B4044618B3134B84
:101AD000D3E9017C00252846D4E90032002AA66813
:101AE00009DD1C68BC4208BF1846002C08BF1D4613
:101AF000013A0B44F5D15EB133681BB905E056F8E5
:101B0000083F13B113EA0C0FF9D07468002CE3D12D
:101B1000002808BF2846F0BC704700BF8442002060
:101B200070B5164E346810B30D460821FFF7CCFF90
:101B3000416854B1A3689942234603D10AE09A68E8
:101B40008A4207D01B68002BF9D12846BDE87040B7
:101B5000FEF7D2BED3E9001209B14A605A683AB121
:101B600000201160C3E900406360D868336070BD35
:101B7000C3E900120029F8D00C46F5E784420020A2
:101B800008B50821FFF7A0FF406808BD08B5082187
:101B9000FFF79AFF406808BD2DE9F04F8E4F8BB0DC
:101BA0000546F8682C6803920E460693002800F05C
:101BB000F680C4F3080E40F2011300F5EF5900F56A
:101BC00033572A1D9E45049209F11C0907F13A0773
:101BD0004FEA542400F0AC804FF6FF73029300F5F7
:101BE00033533B334FF4817840F2FF12CDE900824A
:101BF0000893069A039B0793D31A4FF0170C4FF0E4
:101C0000090800250993BEF5807F00F09480009BB1
:101C1000734500F0AD807346B3F5817FBB464FF04E
:101C200001014FF0000AC0F0AE800AF1FF313944E3
:101C300000E09246A3F581739BB20AF1010219F804
:101C400003B001F801BF30F81330B3F5817FF0D253
:101C500005920AF1020107EB020B8BF80030009BA2
:101C6000734503D17B1813F8013C3B70029A4FF681
:101C7000FF7A52451DD0009B03F10043A3F5817309
:101C800007EB010A20F81320009A1AF801AC09EBBF
:101C90000203A3F5817302F1010B83F800A08BEA24
:101CA00002039A4202DAB8F10B0F6FDD1FFA8BF3D1
:101CB0000093039B002B4BD0069B002B48D039444C
:101CC000079BDDF824B009E0013B11F801AD08BF26
:101CD000039B86F800A008BF5A4416468F4206F1BF
:101CE0000102F1D10793CDF808E0C8F1200ABCF158
:101CF000100F0BDC04990D68CCF1200305FA0CF2EF
:101D0000043104911443DD400CF1200C019B03EAE3
:101D1000040E40F2011305FA0AFA24FA08F49E456B
:101D200025FA08F5ACEB080C4AEA04047FF46BAF23
:101D30000BB0BDE8F08F4FF4817140F2FF134FF606
:101D4000FF7E4FF0170A8DE80A404FF00908CEE7F2
:101D5000059A0132BB18C8F1200A711E13F801BDA3
:101D600001F801BF9F42F9D11644CDF808E0BEE763
:101D7000029BDDF820B0B3F5817F4FF002014FF0F8
:101D8000010ABFF452AFCDF814A066E7019B5B00D7
:101D900043F001039BB2019308F1010886E743F683
:101DA000FA4024F0CDFDF86030B10C4A136803F519
:101DB00073533A331360FCE64FF411720849094833
:101DC00024F0D2FD084824F0CFFD084824F0CCFDD3
:101DD00024F0DCFDF868E8E784420020704200202F
:101DE000E89B180898991808FC9D18082C6B18088F
:101DF000704700BF704700BF10B5074CE06848B19E
:101E000024F0A8FD054A1368A3F573533A3B00215B
:101E10001360E16010BD00BF8442002070420020CA
:101E200029B131EA00030CBF0120002070470846A9
:101E3000704700BF08B50821FFF746FE90F904007F
:101E400008BD00BF08B50821FFF73EFEB0F9040049
:101E500008BD00BF08B50821FFF736FE406808BD81
:101E600008B50821FFF730FE007908BD08B5082144
:101E7000FFF72AFE808808BD08B50821FFF724FE79
:101E8000406808BD08B50821FFF71EFE007908BDAF
:101E900008B50821FFF718FE90ED010A08BD00BF44
:101EA00008B50821FFF710FE406808BD08B50821F5
:101EB000FFF70AFE406808BDF8B5104F06460C460D
:101EC000034600251B68B3B1DA68002AFAD0D0684F
:101ED000A042F7D05968C968A142F3D13B68984243
:101EE000104603D01168D360CB699847334601355B
:101EF0001B68002BE8D12846F8BD00BF4C420020EB
:101F000070B50E4D04460E46236818469BB15A68BC
:101F1000D268B24204D1DA6872B1D26896420BD06C
:101F20002A681B68183A2A60236024F013FD23688E
:101F30001846002BEBD170BD1C46E5E7544200204B
:101F400070B50E4D04460E46236818469BB15A687C
:101F5000D268B24204D1DA6872B1D26896420BD02C
:101F60002A681B68143A2A60236024F0F3FC236873
:101F70001846002BEBD170BD1C46E5E7544200200B
:101F8000F0B5046883B06F4605461E4687E8060034
:101F9000ECB11146009802E025462468BCB1A26865
:101FA0008A42F9D162688242F6D123692BBB22684A
:101FB0002A602360296809B904E011460A68002AEA
:101FC000FBD10D4601202C60E66003B0F0BD14206B
:101FD00024F0B6FC044698B1DFF850C0DCF80030BD
:101FE00097E8030003F11402002323602361231DFB
:101FF000CCF8002083E80300DCE7002003B0F0BD4C
:1020000099220649064824F0AFFC064824F0ACFCAF
:10201000054824F0A9FC24F0B9FCDDE7249C18084D
:1020200098991808309C18082C6B18085442002006
:1020300070B5014604460948051D2E1FFFF73CFFF9
:1020400003E03046FFF738FF30B121462846FFF75E
:1020500033FF21460028F4D170BD00BF9442002018
:1020600038B50E4C206850B10D4D2B6802682260C7
:10207000143B2B6024F06EFC20680028F5D16068CA
:1020800050B1074D2B6802686260143B2B6024F04E
:1020900061FC60680028F5D138BD00BF9442002083
:1020A0005442002038B5094C0546014604F10800A9
:1020B000FFF726FF294604F10C00FFF721FF294610
:1020C00004F11000BDE838401AE700BF9442002038
:1020D00038B5054C054601462046FFF731FF294635
:1020E000201DBDE838402BE794420020C0E90012D3
:1020F000704700BFA1B1F8B50A4F0D46064600244F
:1021000056F83430013418463BB13A68D9689142E8
:1021100003D01968DA60CB699847A542F0D1F8BDC1
:10212000704700BF4C42002010B485B06C460DF1E2
:10213000100C84E80C000CE90300009B029A9A4200
:1021400004D0012005B05DF8044B70470398019B53
:10215000C01A18BF012005B05DF8044B704700BFDE
:1021600082B002AB03E90300009818B1019B11464D
:1021700002B0184702B0704710B582B06C4684E8D0
:10218000030030B113460B4894E80600FFF7F8FE51
:1021900008B102B010BD4FF4FE720749074824F0A1
:1021A000E3FB074824F0E0FB064802B0BDE810401E
:1021B00024F0DABB94420020249C1808647A1808A2
:1021C000589C18082C6B180810B483B06C4684E82F
:1021D000030038B1134694E80600044803B05DF8E4
:1021E000044BCDE603B05DF8044B704798420020E5
:1021F0002DE9F041114D2C68002C14BF4FF001085F
:102200004FF0000812D00E4E0127D4E90231606869
:10221000276198472A68336812682A602046143B71
:10222000336024F097FB2C68002CEED16B682B6098
:10223000002340466B60BDE8F08100BF944200205F
:1022400054420020044B1A680AB1012070475868B4
:10225000003018BF01207047944200202DE9F04162
:1022600082B06D4685E80300D0B1002A37D0254FF3
:10227000F968C1B1019E01E00968A1B14C688442CE
:10228000FAD18C68B442F7D1CC689442F4D1D1F839
:1022900010C0BCF1000FEFD14C699C42ECD16046FC
:1022A00002B0BDE8F08118209846144624F048FB9F
:1022B0000646C0B195E80300134A351D136885E84A
:1022C0000300F8683060183300210120F460C6F87C
:1022D000148031611360FE6002B0BDE8F0811046E9
:1022E00002B0BDE8F08140F28E220849084824F08F
:1022F0003BFB084824F038FB074824F035FB24F06A
:1023000045FBD7E79442002054420020249C180843
:1023100098991808909C18082C6B180882B02DE921
:10232000F04184B002AC84E803000AA981E80C0003
:10233000E0B11546CAB1DFF8B0800B9ED8F8103076
:10234000CBB1039901E01B68ABB15A688242FAD164
:102350009A688A42F7D1DA68AA42F4D11A69B2427D
:10236000F1D15F690D9A9742EDD1002004B0BDE82C
:10237000F04102B07047182024F0E2FA0346D0B1D1
:1023800094E80300DFF864C01C1D84E80300DCF857
:1023900000200D995961D8F81010196018320120E9
:1023A000C3E90356CCF80020C8F8103004B0BDE8EB
:1023B000F04102B0704740F2DB2207490748019321
:1023C00024F0D2FA064824F0CFFA064824F0CCFADA
:1023D00024F0DCFA019BD3E7249C1808989918088C
:1023E000909C18082C6B180894420020544200203E
:1023F000F0B583B06D4685E80300B0B1204EB368F8
:10240000ABB10C4601E01B688BB159688142FAD12F
:102410009968A142F7D1D9680029F4D11969002936
:10242000F1D15F699742EED1084603B0F0BD1820A4
:10243000174624F085FA044690B195E80300114A46
:10244000251D136885E80300B0682060002118335B
:1024500001206761E1601360B460216103B0F0BDE9
:102460004FF449720849094824F07EFA084824F0DC
:102470007BFA084824F078FA24F088FADDE700BFF8
:102480009442002054420020249C1808989918086F
:10249000909C18082C6B180870B582B002AC04E947
:1024A0000300009D1DB32AB3144CE068E8B10C345E
:1024B000019E02E004460068B8B14168A942F9D122
:1024C0008168B142F6D1C1689142F3D10169002916
:1024D000F0D141699942EDD1094A01681368216040
:1024E000183B136024F036FA012002B070BD284674
:1024F00002B070BD104602B070BD00BF9442002013
:102500005442002082B0F0B583B002AC04E903006D
:10251000009C08A981E80C004CB3002A2DD01A4970
:102520000869F8B11031019D099E02E0014600687A
:10253000C0B14368A342F9D18368AB42F6D1C36806
:102540009342F3D10369B342F0D143690B9FBB427D
:10255000ECD10E4A046813680C60183B136024F039
:10256000F9F9012003B0BDE8F04002B07047204601
:1025700003B0BDE8F04002B07047104603B0BDE8BC
:10258000F04002B0704700BF944200205442002047
:1025900030B583B002AB03E90300009C14B31349C8
:1025A0008868E8B10831019D02E001460068B8B1D1
:1025B0004368A342F9D18368AB42F6D1C368002BCC
:1025C000F3D10369002BF0D143699342EDD1084A5E
:1025D000046813680C60183B136024F0BBF90120F9
:1025E00003B030BD204603B030BD00BF9442002090
:1025F00054420020C0B10D4B70B5DC6805460E4654
:1026000014B910E0246874B1E368AB42FAD12269CE
:10261000002AF7D16369B342F4D1231D93E8030084
:10262000FFF7AAFDEEE770BD704700BF944200209F
:1026300030B585B004AC04E90700019DC5B10D4A71
:10264000146914B914E0246894B1E268AA42FAD17A
:102650002169029A9142F6D162699A42F3D1221D10
:1026600092E8030000220093FFF786FD009BEAE753
:1026700005B030BD9442002038B50C4B9C68A4B125
:10268000054601E0246884B1E368002BFAD1226991
:10269000002AF7D16369AB42F4D1231D93E803000C
:1026A000FFF76AFD2468002CEED138BD944200206B
:1026B00000282BDD70B545000E35284624F040F982
:1026C0000446A0B1124E1349326813480B68656086
:1026D00015440268226001333560002244F27765B8
:1026E00004600B602581628104F10C0070BD40F232
:1026F00077220A490A4824F037F90A4824F034F9C5
:10270000094824F031F924F041F9DBE70020704753
:102710006C4200207C420020A8420020B89C18088F
:1027200098991808C49C18082C6B1808038802464E
:1027300033B130F8023F002BFBD1801A40107047B4
:102740001846704772B1520030B4831E8D1831F8AC
:10275000024B23F8024FA942F9D110440023038011
:1027600030BC704700230380704700BF70B504463B
:102770000A460E480E4924F0F7F823887BB10D4E27
:102780000D4DA3F120025F2A1946284684BF194641
:10279000304624F0E9F834F8023F002BF1D1074825
:1027A00024F0E2F8BDE8704024F0F0B8EC9C180882
:1027B000B89C1808709818086C981808149D180888
:1027C0003D4B2DE9F047D3E900053C4F3C4E984680
:1027D0001C4630B14389026843B3044610460028C2
:1027E000F8D1D8F808C0DFF8D490DFF8D4A0BCF551
:1027F000004F064618DDBDB1AB8A6F682C8A05F123
:102800001000002B4DD1002C4DD00346224600E095
:10281000D2B103EB420399881A880029F8D09AB103
:102820003D46BCF5004FE6DCBDE8F0873968D0F8DE
:1028300004C033682260A1EB0C01013B39603360B6
:1028400024F088F82068C4E7D9F80030AA689B1AF9
:10285000C9F80030002100EB440001310488002C4D
:10286000F9D1DAF8003028685B1ACAF8003080B174
:1028700047606B6893B11860ACEB0202C5E9006673
:102880002846C8F808203D4624F064F8D8F808C067
:10289000C7E73B46C8F80470002BECD1C8F80C0021
:1028A000EAE7002CBCD1D9F80030AA689B1AC9F815
:1028B00000300021D5E700BFA84200206C42002074
:1028C0007C42002078B170B50446FFF72FFF064622
:1028D000FFF7EEFE054620B11EB132462146FFF756
:1028E00031FF284670BDE3E670B504460078B0B10C
:1028F000254615F8013F002BFBD12E1B3046FFF774
:10290000D7FE58B18EB1034614F8012B23F8022BE1
:10291000AC42F9D100EB46060023338070BDFFF7CF
:10292000C7FE06460028F7D170BD0646F4E700BF93
:102930002DE9F8430D1E40F38380034604461978C1
:1029400008062A464FF0000608D4013A0133002A4F
:1029500006F1010608DD19780806F6D5DF2955D8F5
:10296000023A0233002AF2DA3046FFF7A1FE0028CD
:102970006DD04FEA460C16B300EB0C0601464FF63D
:10298000FF7706E00134013D21F8023B8E4216D06C
:10299000ADB123787F2BF5D9DF2B15D8012D0ED0C3
:1029A00062789B0103F4F86302F03F02134421F8BC
:1029B000023B8E42A5F1020504F10204E8D1002396
:1029C00020F80C30BDE8F883EF2B26D9032DF6DD77
:1029D00094F801E094F8029094F803809B044FEA85
:1029E0000E3E4FEA891903F4E01208F03F080EF496
:1029F0007C3309F47C6E1A430EEB08031344BB428C
:102A0000A5F1040528BF3B460434BDE7EF2999BF73
:102A1000033A0333043A0433A4E7022DCFDD94F8DC
:102A200002E094F801801B039AB20EF03F034FEAD4
:102A3000881E13440EF47C62033D13440334A3E761
:102A40000020FFF735FE4FF0000C0028B7D1002022
:102A5000B8E700BF70B58AB00023022A8DF8253090
:102A600046D0082A33D0102A57D0354D0DF1250411
:102A7000A5FB0023DB0803EB8302A0EB4200303010
:102A800004F8010D1846002BF2D10DF12600802923
:102A9000A0EB04002ADC002934DD461E8E1B26EA4A
:102AA000E67528440138FFF703FE002E46DD2A466E
:102AB00003463021013A002A23F8021BFADC14F8FD
:102AC000012B23F8022B002AF9D10AB070BD0DF1B9
:102AD000250400F007033033C00804F8013DF8D1A5
:102AE0000DF126008029A0EB0400D4DD8021D4E77D
:102AF0000DF1250400F001033033400804F8013DD6
:102B0000F8D1C2E70138FFF7D3FD14F8012B0346D3
:102B100023F8022B002AD2D1D7E70DF1250400F0CB
:102B20000F03092BDAB204F1FF3402F1570396BF09
:102B30003032237022700009F1D1A6E70346BEE7C8
:102B4000CDCCCCCC70B58AB0002480EAE073022AE8
:102B5000A3EBE0738DF8254060D0082A36D0102A08
:102B600068D03D4D0DF12504A5FB0362D20802EBB0
:102B70008206A3EB4603303304F8013D1346002AD6
:102B8000F2D10DF126028029A2EB04022DDD0028EE
:102B90004FF080014CDB531ECB1A002823EAE3756B
:102BA0002CDBA8180138FFF783FD024675B302EB52
:102BB0004503302122F8021B9A42FBD114F8012B65
:102BC00023F8022B002AF9D10AB070BD0DF12504BB
:102BD00003F007023032DB0804F8012DF8D10DF1C3
:102BE00026028029A2EB0402D1DC002803DB0029A5
:102BF000D1DC0025D5E700291ADC0025A818FFF74D
:102C000057FD2D230380821C002DD0D1134614F8CC
:102C1000012B23F8022B002AD0D1D5E70DF1250492
:102C200003F0010230325B0804F8012DF8D1A8E767
:102C30008B1AB2E70DF1250403F00F02092AD5B271
:102C400004F1FF3405F1570296BF3035227025702C
:102C50001B09F1D195E700BFCDCCCCCC30B52028F5
:102C6000A8BF202020298FB0A8BF2021054610EE44
:102C7000100A0C4612F008FC25EAE57524EAE47413
:102C8000CDE902012B4605A8044A0094222123F035
:102C900085FE05A8FFF728FE0FB030BD189D180867
:102CA00038B5054608460C46FFF702FD48B14CB161
:102CB00000EB4401034623F8025B9942FBD100225A
:102CC0001A8038BD034600221A80FAE7A8B10388AB
:102CD00079B10A88934206D16BB130F8023F31F8DE
:102CE000022F9342F8D09B1A0ED4181C18BF012053
:102CF0007047002BF9D11846704719B10A8832B9CC
:102D000010467047084670474FF0FF307047034643
:102D1000E9E700BF2DE9F047056829684B1C63D03F
:102D20003F4EF268074652B1D3689D42144603D124
:102D30003EE0E3689D423BD02468002CF9D101F1CC
:102D40001008404623F0FCFD0446002859D04FF0FF
:102D5000000A04F11009534652464946281DC4E9A9
:102D60000285C4E900AAFEF717FF296801EBD171BB
:102D700049104846FFF73CF82A4A238A1168414423
:102D80001160002B3BD0524609EB43090132B9F8E0
:102D90000030002BF8D12448A16803681A4402606F
:102DA000D6E902320020C4E900209AB9746012E02A
:102DB000D4E90013E9B14B606368EBB119600020FE
:102DC000A168B368C4E9000000205B1AC4E90020D0
:102DD000002AEBD05460B888F46004EB40000B4448
:102DE0001030B360BDE8F087808805EB4000BDE897
:102DF000F0877360002BE1D1F1600A46DFE71A46E5
:102E0000C9E740F247220949094823F0ADFD0948C6
:102E100023F0AAFD084823F0A7FD23F0B7FD96E7AD
:102E2000A84200206C4200207C420020B89C180878
:102E300098991808C49C18082C6B180848B130F8E9
:102E4000042C44F277639A4204BF44F2575320F8AB
:102E5000043C704770B505688D4231D00C4606467B
:102E600071B131F8043C44F27762934235D044F2B8
:102E70005752934204D040F215512046FFF776FC9A
:102E80007DB135F8042C44F257539A4219D135F8E4
:102E9000023C4FF6FF72934203D01BB3013B25F86F
:102EA000023C64B134F8023C4FF6FF72934206D004
:102EB0004FF6EF72934224D8013324F8023C346079
:102EC00070BD40F217512846FFF750FC35F8023C20
:102ED0004FF6FF729342E0D1E3E744F2575321F8F3
:102EE000043CCDE740F223520E490F4823F03CFD4D
:102EF0000E4823F039FD0E4823F036FD23F046FD41
:102F0000CFE740F22F520749074823F02DFD09482B
:102F100023F02AFD064823F027FD23F037FD346017
:102F2000CEE700BFB89C180898991808209D18088B
:102F30002C6B1808549D180838B5056895B135F8FC
:102F4000042C44F257539A4204460CD135F8023C03
:102F50004FF6FF72934203D08BB1013B25F8023C40
:102F60000023236038BD4FF4AC612846FFF7FEFB19
:102F700035F8023C4FF6FF729342EDD1F0E740F294
:102F80006D520749074823F0EFFC074823F0ECFC9B
:102F9000064823F0E9FC23F0F9FC00232360E1E775
:102FA000B89C180898991808209D18082C6B1808C8
:102FB00000293AD02DE9F8434E1EDFF87890DFF86B
:102FC00078801A4F051F06E024F8022C00232B609E
:102FD00016F1FF3627D355F8044F44F25753002C0F
:102FE000F6D034F8042C9A4240F29351204601D096
:102FF000FFF7BCFB34F8023C4FF6FF72934203F13B
:10300000FF32E3D0002BDFD14FF4B4624946404693
:1030100023F0AAFC384623F0A7FC054823F0A4FCC3
:1030200023F0B4FCD2E7BDE8F8837047209D180870
:103030002C6B1808B89C1808989918082DE9F843C3
:10304000264E7068D8B1264FDFF898904FF00008F0
:10305000838A4568048A00F1100C002B36D1002CBD
:1030600036D06346224600E05AB103EB420399880A
:103070001A880029F8D022B12846002DE8D1BDE8F1
:10308000F8833B6882689B1A3B6000210CEB440C80
:103090000131BCF80040002CF8D1D9F800300468A8
:1030A0005B1AC9F800305CB16560436863B11C60AD
:1030B000B368C0E900889B1AB36023F04BFCDBE7E0
:1030C0002B467560002BF2D1F460F1E7002CD3D1D0
:1030D0003B6882689B1A3B600021DEE7A842002023
:1030E0006C4200207C4200202DE9F0410C4610B3D8
:1030F0000746FFF71BFB0646B1B10846FFF716FB74
:103100008046E6B1F8B13044FFF7D2FA054618B16F
:1031100039463246FFF716FB15EB460008D042460B
:103120002146FFF70FFB03E0002814BF3D460025B2
:103130002846BDE8F08111B10846FFF7F7FA2546A9
:103140002846BDE8F0813D46F2E700BF2DE9F8438F
:103150000D460446E8B1FFF7E9FA074611B92046E3
:10316000BDE8F8830130FFF7A3FA4FEA47080646A7
:1031700008F1020920B11FB13A462146FFF7E2FAF1
:10318000002326F8085026F8093034462046BDE8CA
:10319000F8830029E3D00120FFF78AFAA04606460B
:1031A0004FF00209002326F80850344626F809306B
:1031B000ECE700BFF8B505460C4689B10846FFF7B5
:1031C000B5FA074655B10130FFF772FA00230646FB
:1031D000058020F8023F00B167B934462046F8BDAB
:1031E0000028FBD00120FFF763FA00230446058086
:1031F0004380F3E721463A46FFF7A4FA3446EDE769
:1032000010B5044640B1FFF791FA002904DB88426B
:1032100002DD34F8110010BD002010BD70B50D4660
:103220001646044628B1FFF781FA002901DB8842DF
:103230000DDC40F2A1621649164823F095FB1648B2
:1032400023F092FB154823F08FFB23F09FFB34F80B
:10325000022C4FF6FF739A420BD034F8042C44F240
:1032600077639A42204601D0FFF72CFB20F81560C7
:1032700070BD40F2A5620649064823F075FB084878
:1032800023F072FB054823F06FFB23F07FFBE4E79C
:10329000B89C180898991808889D18082C6B18086D
:1032A000B49D180808B1FFF741BA704770B5D8B19E
:1032B0000546FFF73BFA0646FFF7FAF90446C0B1A8
:1032C0001EB132462946FFF73DFA238853B1224604
:1032D000A3F1610119299CBF203B138032F8023F02
:1032E000002BF5D1204670BDFFF7E2F90446002817
:1032F000EBD10024204670BD70B5D8B10546FFF76C
:1033000015FA0646FFF7D4F90446C0B11EB132469D
:103310002946FFF717FA238853B12246A3F141014A
:1033200019299CBF2033138032F8023F002BF5D1BE
:10333000204670BDFFF7BCF904460028EBD10024FD
:10334000204670BD70B50C460546B0B1FFF7EEF9EA
:1033500088420DDB84420BD09CB12046FFF7A8F9D0
:1033600006463DB130B129462246FFF7EBF9354616
:10337000284670BD3546284670BD0029EADD28463E
:1033800070BD2546F4E700BFF8B50D460446C8B148
:10339000FFF7CCF9884206460FDBB5420DD0ADB140
:1033A0002846FFF785F9761B14EB4601074606D041
:1033B00028B12A46FFF7C6F93C462046F8BD3C46F0
:1033C0002046F8BD0029F8DC0646E6E72C46F4E77F
:1033D000F8B50C4615460646C0B1FFF7A7F9002917
:1033E0001FDB844221DA6319834213DC854214D047
:1033F0002DB32846FFF75CF916EB4401074603D0CE
:1034000010B12A46FFF79EF93846F8BD002907DBC0
:1034100012D03046051B8542EAD137463846F8BD02
:103420003046254400248442DDDBF3DC00280CBF59
:10343000374600273846F8BD0F463846F8BD2F46B8
:10344000E2E700BF2DE9F84F0C4680B316468046F0
:10345000FFF76CF9074631B30846FFF767F9814675
:1034600008B37FB326EAE676BE423844A8BF3E469C
:10347000FFF71EF94FEA460A054638B300EB0A0B80
:103480004EBB214658464A46FFF75CF918EB0A0145
:103490000AD009EB060015EB400005D0BA1B03D09B
:1034A000FFF750F900E045462846BDE8F88F49B1DE
:1034B0000846FFF73BF9002814BF0D4600252846B3
:1034C000BDE8F88F25462846BDE8F88FD346BBF106
:1034D000000FDBD0D5E732464146FFF733F9BBF1A9
:1034E000000FD3D0CDE700BF2DE9F0470D461446BD
:1034F0000746B0B3FFF71AF906462B19002DBCBFDB
:103500001C4600259E42B8BF741B002C2BDDB44224
:103510002DD0301BFFF7CCF804EB050A6B00814679
:1035200007EB4A0A00EB030897B188B165B9BAF115
:10353000000F06D0751B2A1B03D051464046FFF7EB
:1035400001F94846BDE8F08739462A46FFF7FAF800
:10355000BAF1000FF5D0B8F1000FEBD14846BDE845
:10356000F0870646C9E7B9464846BDE8F0874FF000
:103570000009E6E7D8B170B515460646FFF7D6F85C
:10358000002D11DB85420FDA16EB45000CD036F822
:1035900015304BB1994211D0044601E0994209D04F
:1035A00034F8023F002BF9D14FF0FF3070BD4FF0DF
:1035B000FF307047241A05EB640070BD284670BDCB
:1035C00068B3F8B517460446FFF7B0F8002F1CDBC8
:1035D00087421ADA14EB470C17D0C9B10A88BAB17E
:1035E00034F81730604683B19A420AD10D4604463A
:1035F00000E07BB134F8023F35F8026FB342F8D0F7
:1036000046B130F8023F002BEED14FF0FF30F8BD4D
:103610003846F8BDA0EB0C0007EB6000F8BD4FF09A
:10362000FF307047002878D070B40388202B044600
:10363000A3F1090500F1020033D0042D31D92B2B61
:1036400034D02D2B03BF63884FF0FF36044601268C
:10365000022A04D0082A02D0102A2BD00A222F2BAB
:103660001CD902F12F00834218DCA3F13005A8B267
:10367000092805D923F02000413880B205280DD84B
:10368000022A4CD1002134F8023F05EB4101A3F19D
:103690003005ABB2012BF6D906FB01F1084670BC30
:1036A00070470028C1D1084670BC70476388012666
:1036B0000446CDE7A3F13005AAB2092A23D8A3F125
:1036C000610200210FE0114434F8023FA3F13005FC
:1036D000A8B223F020020928A2F1410201D9052A4B
:1036E000DAD8A3F1610292B2052AA3F141004FEAB0
:1036F0000111A3F15702E6D90528A3F1370394BFBE
:10370000C9184919E0E7A3F1610290B20528D8D998
:10371000A3F141000528D4D9C0E708467047082A1C
:103720000AD1002134F8023F05EBC101A3F13005B5
:10373000ABB2072BF6D9AFE70A2A08BF0021BED1EA
:1037400034F8023F01EB810105EB4101A3F13005A3
:10375000ABB2092BF4D99FE7002879D030B40388A5
:10376000202B0446A3F1090500F1020034D0042DFA
:1037700032D92B2B35D02D2B03BF63884FF0FF356B
:1037800004460125022A04D0082A02D0102A2CD08F
:103790000A222F2B1DD902F12F00834219DCA3F13D
:1037A0003000092805D923F02000413880B20528CF
:1037B0000FD8022A4ED1002103EB410134F8023F19
:1037C000A3F13002012AA1F13001F5D9013500D170
:1037D0004942084630BC70470028C0D1084630BC7A
:1037E0007047638801250446CCE7A3F13002092A1B
:1037F00024D8A3F1610200210FE0A2F1570134F8AF
:10380000023FA3F1300023F020020928A2F1410277
:1038100001D9052ADAD8A3F1610292B20901052A79
:10382000A3F1410001EB0302E7D9052801EB0302F4
:103830008ABFC918A2F137013039E0E7A3F161026C
:1038400090B20528D7D9A3F141000528D3D9C0E704
:1038500008467047082A0BD1002103EBC10134F858
:10386000023FA3F13002072AA1F13001F5D9ADE7FB
:103870000A2A08BF0021BCD101EB810103EB410101
:1038800034F8023FA3F13002092AA1F13001F3D943
:103890009CE700BF38B52DED028BB0EE408AD8B161
:1038A0000388202B0246A3F1090100F1020018D081
:1038B000042916D92B2B1BD02D2B08BF5388A3F11D
:1038C000300108BF024688B20CBF4FF0FF3401241C
:1038D000092816D92E2B5ED0B0EE480ABDEC028B1B
:1038E00038BD0028DCD1B0EE480ABDEC028B38BDF3
:1038F0005388A3F13001024688B209284FF0010431
:10390000E8D89FED3C8AB2EE047A07EE901AF8EE02
:10391000E77A32F8023FE8EE077AA3F1300188B285
:103920000928B0EE678AF0D92E2B5BD023F0200354
:103930009BB2452B08D00134CED1B1EE488AB0EE0F
:10394000480ABDEC028B38BD51882B2946D02D2961
:103950004AD0901C0125A1F1300293B2092BEAD87C
:10396000002330F8021F03EB830302EB4303A1F1B2
:10397000300291B20929F4D905FB03F3002BDAD008
:1039800007EE903AB2EE040AF8EEE70A23F048F8A0
:1039900028EE008ACFE75388303B092B9CD89FED57
:1039A000158A13465B88A3F1300188B2092802F119
:1039B0000202BBD8DFED107AF0EE676A32F8023F00
:1039C00007EE101AA3F13001B8EEC77A88B20928C1
:1039D000A7EE278A67EEA67AF0D9A7E7101D91888F
:1039E0000125B8E71346DDE7101D91884FF0FF353C
:1039F000B1E700BF00000000CDCCCC3D002A1ADDAD
:103A000030B4B0B1013A14D005880C461DB90AE0B3
:103A100030F8025F3DB1FF2D8CBF23702570013A55
:103A200004F10104F4D1002304F8013B601A30BC16
:103A300070470C46F7E70020704700BF08B50C211F
:103A4000FEF742F8BDE808400430FFF763B900BF55
:103A500008B50821FEF738F8808808BDA0F1610399
:103A6000192B9CBF203880B2704700BFA0F14103E2
:103A7000192B9CBF203080B2704700BF10B50446A0
:103A800022F09AFF064B1A68824202D95A68013224
:103A90005A60186093E8030084E80300204610BDD4
:103AA000B842002070B5054620200E4622F048FF9F
:103AB000044690B1104911480B68656003F120027B
:103AC00000238568237325608460A6600A60C4E9CA
:103AD0000433C4E90633204670BD872208490948EB
:103AE00022F042FF084822F03FFF084822F03CFF46
:103AF00022F04CFFDEE700BF54420020B842002015
:103B0000D89D180898991808E49D18082C6B180877
:103B100010B51C4B017B9A68044641BBA2422ED0D3
:103B20005AB113689C4208BF134615D02BB11A68CE
:103B3000A24211D01346002BF9D1C42212491348D6
:103B400022F012FF2146124822F00EFF114822F007
:103B50000BFF22F01BFF01E022681A600E4A136877
:103B60002046203BBDE81040136022F0F3BE002148
:103B7000A2420173C0E90611C0E90411D0D1226844
:103B80009A60EBE7B8420020D89D18089899180869
:103B90000C9E18082C6B18085442002030B5037B8B
:103BA00085B004460D4643BB002D17DB002A11DB10
:103BB000B5B1C4E9065202A8FFF760FFDDE90231A2
:103BC0001D44AB4288BF0131C4E904510123237372
:103BD00005B030BD002DFBD00022EAE7002AF7DB5C
:103BE000002AF5D0C4E9062202A80192FFF746FF99
:103BF000DDE90231019AD518E3E700230373C0E938
:103C00000633C0E90433CFE7037B2BB10023C0E9BF
:103C10000633C0E904330373704700BFF0B5274B88
:103C200083B09C686846FFF729FF009E002C41D0B6
:103C300000252F46237B8BB3D4E904300199B1EBE7
:103C4000000C0CBFF21A6246002A27DBE269002A48
:103C50002ADDD31824BF0130A1EB000CC4E90430E5
:103C6000BCF1000F01D1A6EB030CBCF1000F11DB7E
:103C7000F31A93FBF2F002FB1033F01A002BC8BFCB
:103C800001F1FF31864288BF0131121828BF01318E
:103C9000C4E90421D4E90130984701352468002C97
:103CA000C8D1284603B0F0BD2773C4E90677C4E93C
:103CB0000477EFE72546284603B0F0BDB842002060
:103CC00010B50C4B82B09C686846FFF7D7FE009A8F
:103CD0006FF000405CB1237B23B123699B1A9842AB
:103CE000A8BF18462468002CF5D120EAE07002B085
:103CF00010BD00BFB842002010F8012B11F8013BA5
:103D0000012A28BF9A42F7D0D01A7047034613F809
:103D1000012B002AFBD1181A01387047000000005F
:103D200001F0FF01102A2BDB10F0070F08D010F86C
:103D3000013B013A8B422DD010F0070F42B3F6D170
:103D4000F0B441EA012141EA014122F007047FF089
:103D500000070023F0E80256083C85EA010586EAE0
:103D6000010685FA47F5A3FA87F586FA47F6A5FA1C
:103D700087F68EB9EED1F0BC01F0FF0102F0070228
:103D800032B110F8013B013A83EA010313B1F8D1D3
:103D90000020704701387047002D06BF35460338B4
:103DA000073815F0010F07D1013015F4807F02BFED
:103DB000013015F4C03F0130F0BC0138704700BF3E
:103DC00070B501FB00F5AD00044605F114000E4688
:103DD0000FF00CFA68B1074A0460136846601433A8
:103DE0001D44A40000F114010023C460156081602B
:103DF000036170BD7042002022B1136813B1536893
:103E0000042B01D0002070479368B3EB800FF9DBDF
:103E100070B50446142016460D460FF0E7F958B168
:103E2000064A3168B66813680460C0E902161433A4
:103E3000012445601360046170BD00BF7042002022
:103E4000B8B110B403690C4C216833B11423CB1AF8
:103E500023605DF8044B0FF0CBB9D0E9003202FBD0
:103E600003F305339B00CB1A23605DF8044B0FF07E
:103E7000BFB90FF0BDB900BF7042002030B4DDE91A
:103E800002530DB104698CB9D0E9020489009C6029
:103E900002FB0414044400210422C3E9004201206F
:103EA000D960C3E90411996130BC7047002030BC6F
:103EB000704700BF01FB00F08000704740EA0240FD
:103EC00040EA036040EA0120704700BF42EA036312
:103ED00043EA012343EA0040704700BFF0B41E6983
:103EE0001C681D6B1F6A2309340B04F47F4403F420
:103EF0007F03066823438468C7F3075728013B43C1
:103F000004FB02F206EB810100F07F4003438B507B
:103F1000F0BC7047F0B41C681D691F6A86680068B1
:103F200024092D0B05F47F4504F47F042C431D6BFD
:103F3000C7F307532D01234305F07F4423431F0E8E
:103F40008900FF2F06FB021234D08458250E34D08E
:103F50008FB37E1CC6F5807105FB0111090A04F0C0
:103F6000FF1501FB05FCC4F3072403F0FF1501FB5B
:103F700004F406FB05C5C3F30723394406FB0343DA
:103F80002D0AFE2905F0FF144FEA13230CD80D4D1E
:103F900035F8115003F0FF1304FB05F4240A05FB68
:103FA00003F304F0FF141B0A1B0203F0FF2344EA8F
:103FB00001610B438350F0BC7047002FFAD1F0BC75
:103FC000704700BF6C61180870B413681569166AF1
:103FD000146B00681A092D0B02F47F0205F47F456B
:103FE0002A43C6F307562401324304F07F440029D4
:103FF00042EA040205DD4B1E013B591C40F8042B2C
:10400000FAD170BC704700BF2DE9F04714681669FB
:10401000176A156B02682409360B04F47F0406F452
:104020007F463443C7F307572D013C4305F07F45D6
:10403000002944EA05044EDD481E210E4B1C04F005
:10404000FF16C4F30725DFF894C0C3F5807703FBA0
:1040500006F603FB05F506E001B114600138431CC8
:1040600002F1040237D0FF29F7D013685FEA136822
:10407000F2D008FB07784FEA182803F0FF1908FB75
:104080000969C3F3072308FB03534FEA192901EB1E
:10409000080E1B0A09F0FF190029DFD0BEF1FE0F40
:1040A0000CD83CF81EA003F0FF1809FB0AF94FEAF0
:1040B00019290AFB08F309F0FF191B0A1B0203F078
:1040C000FF2349EA0E6E43EA0E0301381360431CD6
:1040D00002F10402C7D1BDE8F08700BF6C61180887
:1040E00000292DE9F043136B14681569166AD2F89C
:1040F00004C0D2F814E0D2F824800768526B1CDDAB
:10410000481E11011A0123094FEA153909F47F49A4
:1041100003F47F0343EA090302F07F4943EA0903FA
:10412000C6F3075943EA0903013847F8043B431C27
:10413000644475440A444644E5D1BDE8F08300BFB9
:104140002DE9F04F85B0536901930029536A066841
:104150000293D2F80080D2F81090D2F820A0176B0A
:104160005068536B64DD01F1FF3E4FEA031B3F01D2
:1041700084460EE004B13360019B0EF1FF3E99448A
:10418000029BBEF1FF3FE0449A4406F104065F44FF
:104190004ED04FEA18134FEA193202F47F4203F46B
:1041A0007F03134307F07F421343CAF307521343BD
:1041B0001C0EFF2CDFD03268110EDBD0601CC0F566
:1041C000807001FB0000000A054602F0FF11C2F3F7
:1041D000072203F0FF1005FB01F10392621C02FBB2
:1041E0000011039A284605FB02F2C3F30723651C5E
:1041F00005FB0322090A2044120A01F0FF11002CDA
:10420000BAD0FE280CD80C4B33F8104002F0FF1245
:1042100001FB04F1090A04FB02F201F0FF11120A8A
:10422000120202F0FF2241EA006010433060A3E76F
:1042300005B0BDE8F08F00BF6C611808002A006867
:10424000096802F1FF3307DD021F51F8040B42F841
:10425000040F013B581CF8D1704700BF002A2DE91C
:10426000F04100680C684ADD511E264D08E0BCF1A3
:10427000000F00D0036001394B1C00F104003ED058
:1042800054F8043B4FEA136CBCF1FF0FF2D0026804
:10429000170EECD00CF1010ECEF5807607FB06660A
:1042A000360A02F0FF1803F0FF1706FB08F8C2F306
:1042B000072206FB02F20EFB0787C3F307230EFB60
:1042C00003233F0A66441B0A07F0FF17BCF1000FE7
:1042D000D1D0FE2E0CD835F816C003F0FF1263467D
:1042E00007FB03F73F0A03FB02F307F0FF171B0A64
:1042F0001B0203F0FF2347EA06663343BAE7BDE833
:10430000F08100BF6C611808002A30B404681D6B8E
:10431000086811DD2D150135511E50F8043B1A0EA9
:1043200005FB02F2120A23F07F4343EA02630139DC
:1043300044F8043B4B1CF0D130BC7047002A2DE9F7
:10434000F04300681C6B0D684BDD2415264E0134CC
:10435000511E55F8043B03F0FF17C3F307221B0E51
:1043600003FB04434FEA132301F1FF3103FB07F77B
:1043700003FB02F831D002685FEA126EC3F5807C5D
:104380000CD00EFB0CCC4FEA1C2E02F0FF19C2F32E
:10439000072C73440EFB09770EFB0C883F0A03F1D0
:1043A000FF3C07F0FF174FEA182283B1BCF1FE0F64
:1043B0004FEA0C630BD836F81CC002F0FF1207FB63
:1043C0000CF73F0A0CFB02F207F0FF17120A120269
:1043D00002F0FF223B43134303604B1C00F1040037
:1043E000B7D1BDE8F08300BF6C611808002AF0B4B3
:1043F00005680C68D3E90C0711DD511E54F8043B25
:1044000006151A0E06FB022223F07F43120A43EA26
:104410000263013945F8043B4B1C3844EED1F0BC33
:10442000704700BF002A2DE9F04304680E68D3E905
:104430000C574FDDDFF8A0C0501E56F8042B02F0D9
:10444000FF11C2F3072E120E4FEA255802F10103A5
:1044500008FB03334FEA132300F1FF303D4403FB15
:1044600001F103FB0EF231D0D4F800E05FEA1E69DF
:10447000C3F580780CD009FB08884FEA18280EF0A5
:10448000FF19CEF3072E434408FB091108FB0E2247
:10449000090A03F1FF3E01F0FF11120A83B1BEF1D8
:1044A000FE0F4FEA0E630BD83CF81EE002F0FF123D
:1044B00001FB0EF1090A0EFB02F201F0FF11120AD4
:1044C000120202F0FF220B4313432360431C04F14A
:1044D0000404B2D1BDE8F0836C611808002A10B45E
:1044E00000680B688C6908DD1A4413F8011B54F846
:1044F000211040F8041B9342F7D15DF8044B70473C
:10450000002A2DE9F04300680C688D694DDD284EC6
:10451000224407E0BCF1000F00D00360944200F198
:10452000040042D014F8013B55F823304FEA136CD5
:10453000BCF1FF0FF1D001685FEA116EEAD00CF117
:104540000108C8F580770EFB07773F0A01F0FF1ED0
:1045500003F0FF1907FB0EFEC1F3072107FB01F172
:1045600008FB09EEC3F3072308FB03134FEA1E2ED3
:1045700067441B0A0EF0FF1EBCF1000FCED0FE2FC9
:104580000CD836F817C003F0FF110EFB0CFE4FEAF3
:104590001E2E0CFB01F30EF0FF1E1B0A1B0203F084
:1045A000FF234EEA07673B43B7E7BDE8F08300BF50
:1045B0006C611808002A70B404681D6B08688E6965
:1045C00012DD2D150135024410F8013B56F8233059
:1045D000190E05FB01F1090A23F07F4343EA016349
:1045E000904244F8043BEFD170BC7047002A2DE99B
:1045F000F0431E6B05680C688F694CDD3615DFF8DB
:104600009CC00136224414F8013B57F8233003F0D4
:10461000FF10C3F307211B0E03FB06634FEA1323AE
:1046200003FB00F003FB01F131D0D5F800E05FEAB5
:104630001E69C3F580780CD009FB08884FEA18285A
:104640000EF0FF19CEF3072E434408FB090008FBC8
:104650000E11000A03F1FF3E00F0FF10090A83B1BA
:10466000BEF1FE0F4FEA0E630BD83CF81EE001F0DE
:10467000FF1100FB0EF0000A0EFB01F100F0FF102D
:10468000090A090201F0FF2103430B432B60A242F8
:1046900005F10405B7D1BDE8F08300BF6C611808CF
:1046A000002AF0B405688F690868D3E90C4C12DD64
:1046B000024410F8013B57F823302615190E06FB6B
:1046C000011123F07F43090A43EA0163904245F850
:1046D000043B6444EDD1F0BC704700BF002A2DE9D3
:1046E000F04704688E690868D3E90C5752DDDFF89B
:1046F000A8C0024410F8013B56F8231001F0FF1E39
:10470000C1F30728090E4FEA255901F1010309FBFE
:1047100003334FEA13233D4403FB0EFE03FB08F172
:1047200034D0D4F800805FEA186AC3F580790CD0E1
:104730000AFB09994FEA192908F0FF1AC8F307285C
:104740004B4409FB0AEE09FB08114FEA1E2E03F148
:10475000FF380EF0FF1E090A8BB1B8F1FE0F4FEAC9
:1047600008630CD83CF8188001F0FF110EFB08FE1E
:104770004FEA1E2E08FB01F10EF0FF1E090A090286
:1047800001F0FF2143EA0E030B432360824204F150
:104790000404AFD1BDE8F0876C611808F0B41C6860
:1047A0001E691F6A1B6B006809682409360B04F434
:1047B0007F0406F47F463443C7F307571B013C438D
:1047C00003F07F43002A44EA030419DD0A44250E5E
:1047D00024F07F4607E01B0A46EA03638A4203602F
:1047E00000F104000CD011F8013B002BF6D0FF2B98
:1047F00003FB0553EFD18A42046000F10400F2D1BB
:10480000F0BC70472DE9F04F1E681F69D3F820C037
:104810001B6B05680C6836093F0B06F47F0607F42E
:104820007F473E43CCF3075C1B0146EA0C0603F0CE
:104830007F43002A83B046EA030641DD4FEA166E45
:1048400022440EF10108C6F3072A06F0FF1901966B
:10485000704614F8013B7BB3FF2B34D060B32F6854
:1048600003FB08831B0A5FEA176B03FB09FC03FBCE
:104870000AF10ED0C3F5807E0BFB0EEE4FEA1E2E22
:1048800007F0FF1BC7F3072773440EFB0BCC0EFB8F
:1048900007114FEA1C2707F0FF17090A33B103F18C
:1048A000FF3CBCF1FE0F4FEA0C6311D9090201F085
:1048B000FF213B430B432B60A24205F10405C8D105
:1048C00003B0BDE8F08FFF28C8D1019B2B60F3E750
:1048D000064E36F81CC001F0FF1107FB0CF73F0A2B
:1048E0000CFB01F107F0FF17090ADFE76C611808FC
:1048F0002DE9F04F83B00D6859681E681F69D3F821
:1049000020C01C6BD3F81490D3F824A0D0F800E09A
:104910000191002A5B6B2EDD4FEA031B240105EB9E
:10492000020814E01A0EFF2800FB022226D0100A0B
:1049300023F07F4242EA0062CEF80020019BA845A6
:104940001E444F44D4440EF1040E5C4413D032098B
:104950003B0B02F47F0203F47F43134304F07F41D7
:1049600015F8010BCCF307520B4313430028D9D1A0
:10497000CEF80000E2E703B0BDE8F08FCEF80030DB
:10498000DCE700BF2DE9F04F87B0D0F800C0086821
:1049900059681D681E691F6A1C6BD3F81480D3F810
:1049A00024900291002A5B6B6EDD4FEA031A4B469E
:1049B0002401C14600EB020B984610F8011B0029A8
:1049C00059D02B09320B02F47F4203F47F031343C7
:1049D00004F07F421343C7F307521343FF294FEA02
:1049E000136254D0002A46D0013201FB0222120A7F
:1049F00003F0FF11019202FB01F2DCF800E00392E8
:104A0000019AC3F3072302FB03F15FEA1E630491DB
:104A100019D0C2F5807103FB01130EF0FF1105914F
:104A200001991B0A1A4619440191134605990592EA
:104A3000039A03FB01230393DDE90413CEF3072E4E
:104A400003FB0E130493039B190A049B1A0A019B90
:104A500001F0FF113BB103F1FF3E4FEA0E63BEF1DF
:104A6000FE0F019318D91302019A03F0FF2311439B
:104A70001943CCF80010029B58451D444E4447444E
:104A80000CF1040C544498D107B0BDE8F08FFF2A14
:104A9000A8D1CCF80030EEE7074B33F81EE002F067
:104AA000FF1301FB0EF10EFB03F3090A1B0A01F0D1
:104AB000FF111A46D7E700BF6C6118082DE9F043D3
:104AC000002A0468D1F80880D1F800E00B9DDDE9E8
:104AD000070CDDE9097617DD4FEAA808511E02131D
:104AE0004FEA233905FB02F206FB09F912144FEADB
:104AF000294908FB029201395EF8222044F8042B70
:104B00004A1C38446344EAD1BDE8F0832DE9F04FF4
:104B10008C680968D0F800B083B0002A00914FEA91
:104B2000A401DDF8309001916CDD02F1FF388A00BC
:104B300002F1040A0F98019D191300FB01F110986E
:104B40004FEA293200FB02F2091312130839083A1E
:104B50001411081105FB0400009C04EB800E02F008
:104B60000F0201F00F01DEF8045054F820405EF807
:104B70000A00C2F1100C01FB0CFCC1F1100602FB93
:104B800006F62F0A02FB01F2D644CCF5807105F03F
:104B9000FF15891B07F0FF17891A0CFB05F55EF856
:104BA00004EC0CFB07F74FEA142C04F0FF1401FB94
:104BB00004540CF0FF1C050A00F0FF1001FB0C7CF4
:104BC00002FB00444FEA1E2105F0FF150EF0FF1E08
:104BD00002FB05CC01F0FF110D9A06FB0E4406FB0B
:104BE00001CC240A0CF0FF2C04F0FF1408F1FF386C
:104BF00013440E9A4CEA0404B8F1FF3F91444BF879
:104C0000044B97D103B0BDE8F08F00BF2DE9F04F02
:104C1000002A8C680768D1F80090DDF834A0DDE93F
:104C200009865BDD9E464FEAA40B02F1FF3C0CE0D7
:104C300004B138600A9B0CF1FF3C9E440B9BBCF115
:104C4000FF3F984407F1040748D00C994FEA2833F6
:104C50004FEA2E320AFB03F301FB02F21B1412147B
:104C60000BFB032359F82300040EFF2CE1D03B6813
:104C70001A0EDDD0651CC5F5807102FB0111090A11
:104C800003F0FF1200F0FF1601FB02F2C3F307234B
:104C900001FB03F305FB0622C0F3072005FB0033ED
:104CA000120A21441B0A02F0FF12002CC2D0FE2976
:104CB0000CD80B4830F8114003F0FF1302FB04F24C
:104CC000120A04FB03F302F0FF121B0A1B0203F09B
:104CD000FF2342EA016119433960ABE7BDE8F08F79
:104CE0006C6118082DE9F04F8C680968D0F80080D5
:104CF00083B0002A00914FEAA401DDF830A00191B1
:104D000040F3AE8002F1FF398A0002F1040B0EE09D
:104D10000CB1C8F800600D9A09F1FF3913440E9ADE
:104D2000B9F1FF3F924408F1040800F099800F9810
:104D3000019D191300FB01F110984FEA2A3200FB84
:104D400002F2091312130839083A1411081105FB6D
:104D50000400009C04EB800E02F00F0201F00F0132
:104D6000DEF8045054F820405EF80B00C2F1100C3D
:104D700001FB0CFCC1F1100602FB06F62F0A02FB38
:104D800001F2DE44CCF58071891B05F0FF1507F0B8
:104D9000FF170CFB05F5891A5EF804EC0CFB07F70E
:104DA0004FEA142C04F0FF1401FB04540CF0FF1C18
:104DB000050A00F0FF1001FB0C7C05F0FF154FEA1F
:104DC0001E2102FB00440EF0FF1E06FB0E4402FBF8
:104DD00005CC01F0FF1106FB01C6240A04F0FF1404
:104DE00006F0FF262643340EFF2C92D0D8F8002080
:104DF000110E8DD0651CC5F5807001FB0000000A06
:104E000002F0FF1106F0FF1700FB01F1C2F30722C9
:104E100000FB02F205FB0711C6F3072605FB06227D
:104E2000090A2044120A01F0FF11002C3FF473AF6D
:104E3000FE280CD80C4C34F8104002F0FF1201FB95
:104E400004F1090A04FB02F201F0FF11120A120236
:104E500002F0FF2241EA00611143C8F800105AE74E
:104E600003B0BDE8F08F00BF6C6118082DE9F04F6A
:104E700083B0D0F800C0119F8D68386B3C6D0C9EDC
:104E8000D1F800A0001501304FEAA50B002C59D134
:104E9000796DB1FA81F84FEA5818002A02F1FF3E05
:104EA00037DDC1460F991A1301FB02F210994FEA40
:104EB000263801FB08F812144FEA284808FB0B219A
:104EC0005AF82110B9F1000F10D1386DBD6B019562
:104ED0003C6B7D6D00B3B8F1000F2FD0786B00FBF9
:104EE000084495BB2046C0F3075001300A0E00FB72
:104EF00002F2120A21F07F4141EA02610D9A4CF858
:104F0000041B0EF1FF3E13440E9ABEF1FF3F164400
:104F1000C8D103B0BDE8F08F2046002DE3D0002AB1
:104F2000E1D0019DB86C4FEA2458C8EB255504F038
:104F30007F6400FB05F002FB0040D4E7002DD1D0D8
:104F40002046ECE74FF00008A7E7019DF86B00FB57
:104F5000085001902046E2E72DE9F04F87B0006845
:104F6000DDF854808D68D8F8304009680190D8F891
:104F7000500004912415A910DDF84090029104F12D
:104F8000010A002840F0B980D8F85410B1FA81F134
:104F900049090391002A02F1FF3B40F39480029AF1
:104FA0000093920004320592009B1913139B03FB9C
:104FB00001F1149B4FEA293703FB07F7039B0A1300
:104FC0003D13B3B9D8E91430D8F83040D8F8386078
:104FD000002B7BD03F1400F08B80D8F8343003FBDB
:104FE0000744002840F08C80A246CAF3075A0AF111
:104FF000010A083A083D029B049C1111281103FB89
:10500000001004EB800105F00F054E68059B54F875
:105010002040C85802F00F02C5F1100E02FB0EFE30
:10502000C2F1100705FB07F705FB02F219444FEA2E
:10503000162CCEF5807506F0FF16ED1B0CF0FF1C4C
:10504000AD1A0EFB06F651F8041C119B0EFB0CFC6E
:105050004FEA142E04F0FF1405FB04640EF0FF1E4B
:10506000060A00F0FF1002FB004405FB0ECE06F01E
:10507000FF160D0A01F0FF1102FB06EE05F0FF1509
:1050800007FB014407FB05EE240A009A0EF0FF2EF1
:1050900004F0FF144EEA040E4FEA1E601A44129BFD
:1050A00000920AFB00F0000A2EF07F4E9944019B0B
:1050B0004EEA00600BF1FF3B43F8040BBBF1FF3FEE
:1050C00001937FF471AF07B0BDE8F08FA2460028CE
:1050D0008BD0091489D04FEA245AD8F84800CAEB7B
:1050E000265604F07F6400FB06FA01FB0A4A7CE7BF
:1050F00000283FF479AFA246EBE70021039149E78E
:10510000D8F83C00A24600FB0766E2E72DE9F04F25
:1051100083B00668DDF844C08D68DCF83000DCF848
:10512000504009680C9F0091001501304FEAA50B13
:10513000002C40F09D80DCF85410B1FA81F84FEA61
:105140005818002A02F1FF3E77DD0190C2460F9AFF
:10515000009C191302FB01F1109A4FEA273802FB59
:1051600008F809144FEA284808FB0B1254F82220CB
:10517000BAF1000F18D1DCF85000DCF83040DCF850
:105180003850DCF8549000285AD0B8F1000F6AD09B
:10519000DCF8340000FB0844B9F1000F6BD1204665
:1051A000C0F30750411C0191110E3BD001983468A7
:1051B00001FB0001090A02F0FF155FEA1469C2F35E
:1051C000072201FB05F501FB02F20ED0C1F5807844
:1051D00009FB08884FEA182804F0FF19C4F30724D4
:1051E000414408FB095508FB04222D0A05F0FF1570
:1051F000120A89B14C1EFE2C4FEA04610CD82148DA
:1052000030F8144002F0FF1205FB04F52D0A04FBF0
:1052100002F205F0FF15120A120202F0FF220D43FE
:10522000154335600D9A0EF1FF3E13440E9ABEF100
:10523000FF3F174406F1040689D103B0BDE8F08FA3
:105240002046B9F1000FABD00029A9D04FEA24586D
:10525000DCF84800C8EB255504F07F6400FB05F03E
:1052600001FB00409CE7B9F1000F98D02046EBE726
:105270004FF0000865E7DCF83C0000FB08552046CD
:10528000E2E700BF6C6118082DE9F04F87B08D6828
:10529000DDF854800968D8F83040D0F800E0049177
:1052A0002415611CD8F850000291A910DDF8409037
:1052B0000191002840F0F680D8F85410B1FA81F13D
:1052C00049090391002A02F1FF3B40F3CE80019A85
:1052D0000093920004320592009B1F13139B03FB63
:1052E00007F7149B4FEA293403FB04F4039B3A139A
:1052F0002113D3B9D8F85000D8F83050D8F8386016
:10530000D8F854C0002800F0B380241400F0C48002
:10531000D8F8340000FB0455BCF1000F40F0C58004
:105320002846C0F30750431C0293A2F10806019BD4
:10533000049DA1F108021411311103FB041405EBC3
:10534000840102F00F0206F00F064F68059B55F826
:105350002450CC58C2F1100006FB00F0C6F1100C2E
:1053600002FB0CFC4FEA172A02FB06F21944C0F5B7
:1053700080760AF0FF1A07F0FF17A6EB0C0600FB79
:1053800007F7B61A51F8041C00FB0AF04FEA152A79
:1053900005F0FF150AF0FF1A06FB0575270A04F051
:1053A000FF1406FB0A0002FB04544FEA112A07F01F
:1053B000FF1701F0FF1102FB07000CFB01440AF08C
:1053C000FF1A0CFB0A00240A00F0FF2004F0FF1271
:1053D0000243110E3BD0029BDEF8004001FB03317B
:1053E000090A02F0FF10260EC2F3072201FB00F0AB
:1053F00001FB02F20DD0C1F5807506FB05552D0AA3
:1054000004F0FF16C4F30724294405FB060005FB3E
:105410000422000A00F0FF10120A89B14C1EFE2C73
:105420004FEA04610CD8244B33F8144002F0FF1209
:1054300000FB04F0000A04FB02F200F0FF10120A65
:10544000120202F0FF2208431043CEF80000119B25
:10545000009A0BF1FF3B1A44129B0092BBF1FF3FF5
:1054600099440EF1040E7FF437AF07B0BDE8F08F1A
:105470002846BCF1000F3FF454AF3F143FF451AF46
:105480002C15D8F84800C4EB265605F07F6500FBC4
:1054900006F007FB005044E7BCF1000F3FF440AFBB
:1054A0002846EAE7002103910CE7D8F83C0000FB0E
:1054B00004662846E1E700BF6C6118082DE9F04753
:1054C000002A0468D1F80090D1F81880D1F808E0DB
:1054D0000C9DDDE9080CDDE90A7617DD511E02138B
:1054E0004FEA233A05FB02F2121406FB0AFA0EFBFE
:1054F00002924FEA2A4A013912F80A2058F822206B
:1055000044F8042B4A1C38446344E8D1BDE8F087D2
:105510002DE9F04F85B000680190D1F81880086837
:1055200089680290002A0391DDF838A072DD02F14B
:10553000FF3901F1010B1198039D029E191300FB25
:1055400001F112984FEA2A3200FB02F209131213FA
:105550000839083A0811141105FB0404301902F047
:105560000F024578345D58F8256058F8245010F83B
:105570000B4001F00F01C2F1100E01FB0EFEC1F154
:10558000100702FB07F74FEA162C02FB01F2584402
:10559000CEF5807158F8244010F8010C06F0FF1683
:1055A000C91B0CF0FF1C891A0EFB06F60EFB0CFC47
:1055B0004FEA152E05F0FF1501FB05650EF0FF1EE5
:1055C000260A58F8200001FB0ECE04F0FF1406F066
:1055D000FF1602FB045502FB06EE0F9A010A00F0CB
:1055E000FF1001F0FF1107FB00551344109A07FB51
:1055F00001EE2D0A0EF0FF2E05F0FF159244019AE0
:105600004EEA050509F1FF3942F8045BB9F1FF3FA5
:10561000019290D105B0BDE8F08F00BF2DE9F04FA9
:10562000002A0768D1F80090D1F818A0D1F808B086
:10563000DDE909865BDD9E4602F1FF3C0CE004B12A
:1056400038600A9B0CF1FF3C9E440B9BBCF1FF3F72
:10565000984407F104074AD00D9B0C994FEA283271
:1056600003FB02F24FEA2E33121401FB03F30BFB90
:1056700002921B14D35C5AF82300040EFF2CDFD0D7
:105680003B681A0EDBD0651CC5F5807102FB011169
:10569000090A03F0FF1200F0FF1601FB02F2C3F348
:1056A000072301FB03F305FB0622C0F3072005FBDC
:1056B0000033120A21441B0A02F0FF12002CC0D052
:1056C000FE290CD80B4830F8114003F0FF1302FB01
:1056D00004F2120A04FB03F302F0FF121B0A1B027E
:1056E00003F0FF2342EA01621A433A60A9E7BDE8EA
:1056F000F08F00BF6C6118082DE9F04F85B0D0F82D
:105700000090D1F81880086889680190002A0291F9
:10571000DDF838B040F3B38002F1FF3A4A1C03923F
:105720000EE00CB1C9F800700F9A0AF1FF3A134469
:10573000109ABAF1FF3F934409F1040900F09F80E9
:105740001198029D019E039F191300FB01F112980D
:105750004FEA2B3200FB02F2091312130839083A00
:105760000811141105FB04043019345D457802F06A
:105770000F0201F00F0158F8256058F82450C45D5D
:10578000C2F1100E384401FB0EFEC1F1100702FBFE
:1057900007F74FEA162C02FB01F210F8010C58F83B
:1057A000244058F82000CEF58071C91B06F0FF1682
:1057B0000CF0FF1C0EFB06F6891A0EFB0CFC4FEAE0
:1057C000152E05F0FF1501FB05650EF0FF1E260ADC
:1057D00004F0FF1401FB0ECE02FB0455010A06F093
:1057E000FF1600F0FF1007FB005502FB06EE01F06C
:1057F000FF1107FB01EE2D0A0EF0FF2E05F0FF153D
:105800004EEA05073C0EFF2C8CD0D9F80020110E73
:1058100087D0651CC5F5807001FB0000000A02F00E
:10582000FF1107F0FF1600FB01F1C2F3072200FB96
:1058300002F205FB0611C7F3072705FB0722090A39
:105840002044120A01F0FF11002C3FF46DAFFE2836
:105850000CD80C4C34F8104002F0FF1201FB04F19C
:10586000090A04FB02F201F0FF11120A120202F00F
:10587000FF2241EA00611143C9F8001054E705B066
:10588000BDE8F08F6C6118082DE9F04F83B0D0F8B7
:1058900000C0119F0C9E386B3D6DD1F800A08C6943
:1058A000D1F808B000150130002D5CD1796DB1FA46
:1058B00081F84FEA5818002A02F1FF3E3ADDD1463E
:1058C000CDF80080A246109A0F99009C4FEA263826
:1058D00002FB08F81A1301FB02F24FEA284808FB02
:1058E0000B911214895C5AF8211084B9386DBD6B84
:1058F00001953C6B7D6D00B3B8F1000F2FD0786B34
:1059000000FB084495BB2046C0F3075001300A0E47
:1059100000FB02F2120A21F07F4141EA02610D9A76
:105920004CF8041B0EF1FF3E13440E9ABEF1FF3FEC
:105930001644C8D103B0BDE8F08F2046002DE3D057
:10594000002AE1D0019DB86C4FEA2458C8EB2555D8
:1059500004F07F6400FB05F002FB0040D4E7002D5B
:10596000D1D02046ECE74FF00008A4E7019DF86B8A
:1059700000FB085001902046E2E700BF2DE9F04F00
:1059800087B00068DDF854800090D8F83040D8F82F
:105990005000D1F818A0DDF840902415013401948E
:1059A0000C68896804940291002840F0BC80D8F803
:1059B0005410B1FA81F149090391002A02F1FF3B29
:1059C00040F39880029A013205921398039C1913B0
:1059D00000FB01F114984FEA293200FB02F2151383
:1059E0000813BCB9D8E91474D8F83060D8F838C0B6
:1059F000002F00F08280121400F09080D8F83470EC
:105A000007FB0266002C40F091803246C2F3075239
:105A100001320192A5F108020838029D049E059FFB
:105A20000111141105FB04143119345D4D7802F095
:105A30000F025AF825605AF82450CC5D00F00F0090
:105A4000C2F1100E394400FB0EFEC0F1100702FB3C
:105A500007F711F8011C5AF824405AF8211002FBEC
:105A600000F24FEA162CCEF5807006F0FF16C01B30
:105A70000CF0FF1C801A0EFB06F60EFB0CFC4FEA26
:105A8000152E05F0FF1500FB05650EF0FF1E260A1A
:105A900004F0FF1402FB045500FB0ECE06F0FF16C7
:105AA000080A01F0FF1102FB06EE00F0FF1007FBF1
:105AB000015507FB00EE2D0A0EF0FF2E05F0FF1535
:105AC0004EEA050E019A4FEA1E6402FB04F4119A95
:105AD0001344129A240A2EF07F4E9144009A4EEA03
